{
  "contractName": "ExpenseGroup",
  "abi": [
    {
      "inputs": [
        {
          "internalType": "string",
          "name": "_name",
          "type": "string"
        }
      ],
      "stateMutability": "nonpayable",
      "type": "constructor"
    },
    {
      "inputs": [
        {
          "internalType": "uint256",
          "name": "",
          "type": "uint256"
        }
      ],
      "name": "expenses",
      "outputs": [
        {
          "internalType": "string",
          "name": "name",
          "type": "string"
        },
        {
          "internalType": "uint256",
          "name": "amount",
          "type": "uint256"
        },
        {
          "internalType": "uint256",
          "name": "valueDate",
          "type": "uint256"
        },
        {
          "internalType": "uint256",
          "name": "creationDate",
          "type": "uint256"
        },
        {
          "internalType": "address",
          "name": "payer",
          "type": "address"
        }
      ],
      "stateMutability": "view",
      "type": "function"
    },
    {
      "inputs": [],
      "name": "isContractInstanceCreated",
      "outputs": [
        {
          "internalType": "bool",
          "name": "",
          "type": "bool"
        }
      ],
      "stateMutability": "view",
      "type": "function"
    },
    {
      "inputs": [
        {
          "internalType": "uint256",
          "name": "",
          "type": "uint256"
        }
      ],
      "name": "memberAddresses",
      "outputs": [
        {
          "internalType": "address",
          "name": "",
          "type": "address"
        }
      ],
      "stateMutability": "view",
      "type": "function"
    },
    {
      "inputs": [
        {
          "internalType": "address",
          "name": "",
          "type": "address"
        }
      ],
      "name": "members",
      "outputs": [
        {
          "internalType": "uint256",
          "name": "identifier",
          "type": "uint256"
        },
        {
          "internalType": "string",
          "name": "name",
          "type": "string"
        },
        {
          "internalType": "address",
          "name": "memberAddress",
          "type": "address"
        },
        {
          "internalType": "int256",
          "name": "balance",
          "type": "int256"
        }
      ],
      "stateMutability": "view",
      "type": "function"
    },
    {
      "inputs": [],
      "name": "numExpenses",
      "outputs": [
        {
          "internalType": "uint256",
          "name": "",
          "type": "uint256"
        }
      ],
      "stateMutability": "view",
      "type": "function"
    },
    {
      "inputs": [
        {
          "internalType": "uint256",
          "name": "",
          "type": "uint256"
        }
      ],
      "name": "payments",
      "outputs": [
        {
          "internalType": "string",
          "name": "title",
          "type": "string"
        },
        {
          "internalType": "uint256",
          "name": "amount",
          "type": "uint256"
        },
        {
          "internalType": "uint256",
          "name": "valueDate",
          "type": "uint256"
        },
        {
          "internalType": "address",
          "name": "payer",
          "type": "address"
        },
        {
          "internalType": "address",
          "name": "payee",
          "type": "address"
        }
      ],
      "stateMutability": "view",
      "type": "function"
    },
    {
      "inputs": [
        {
          "internalType": "address",
          "name": "",
          "type": "address"
        }
      ],
      "name": "withdrawals",
      "outputs": [
        {
          "internalType": "uint256",
          "name": "",
          "type": "uint256"
        }
      ],
      "stateMutability": "view",
      "type": "function"
    },
    {
      "inputs": [
        {
          "internalType": "string",
          "name": "_name",
          "type": "string"
        },
        {
          "internalType": "address",
          "name": "_memberAddress",
          "type": "address"
        }
      ],
      "name": "addMember",
      "outputs": [],
      "stateMutability": "nonpayable",
      "type": "function"
    },
    {
      "inputs": [
        {
          "internalType": "string",
          "name": "_title",
          "type": "string"
        },
        {
          "internalType": "uint256",
          "name": "_amount",
          "type": "uint256"
        },
        {
          "internalType": "uint256",
          "name": "_valueDate",
          "type": "uint256"
        },
        {
          "internalType": "address[]",
          "name": "_payees",
          "type": "address[]"
        }
      ],
      "name": "addExpense",
      "outputs": [],
      "stateMutability": "nonpayable",
      "type": "function"
    },
    {
      "inputs": [
        {
          "internalType": "uint256",
          "name": "_expenseId",
          "type": "uint256"
        },
        {
          "internalType": "bool",
          "name": "_approved",
          "type": "bool"
        }
      ],
      "name": "approve",
      "outputs": [],
      "stateMutability": "nonpayable",
      "type": "function"
    },
    {
      "inputs": [
        {
          "internalType": "string",
          "name": "_title",
          "type": "string"
        },
        {
          "internalType": "address",
          "name": "_payee",
          "type": "address"
        }
      ],
      "name": "addPayment",
      "outputs": [],
      "stateMutability": "payable",
      "type": "function"
    },
    {
      "inputs": [],
      "name": "withdraw",
      "outputs": [],
      "stateMutability": "nonpayable",
      "type": "function"
    },
    {
      "inputs": [],
      "name": "getMaxBalance",
      "outputs": [
        {
          "internalType": "int256",
          "name": "",
          "type": "int256"
        },
        {
          "internalType": "uint256",
          "name": "",
          "type": "uint256"
        }
      ],
      "stateMutability": "view",
      "type": "function"
    },
    {
      "inputs": [
        {
          "internalType": "address",
          "name": "_memberAddress",
          "type": "address"
        }
      ],
      "name": "getWithdrawal",
      "outputs": [
        {
          "internalType": "uint256",
          "name": "",
          "type": "uint256"
        }
      ],
      "stateMutability": "view",
      "type": "function"
    },
    {
      "inputs": [
        {
          "internalType": "uint256",
          "name": "_expenseId",
          "type": "uint256"
        },
        {
          "internalType": "address",
          "name": "_memberAddress",
          "type": "address"
        }
      ],
      "name": "getApproval",
      "outputs": [
        {
          "internalType": "bool",
          "name": "",
          "type": "bool"
        }
      ],
      "stateMutability": "view",
      "type": "function"
    },
    {
      "inputs": [
        {
          "internalType": "uint256",
          "name": "_expenseId",
          "type": "uint256"
        }
      ],
      "name": "getNumberOfApprovals",
      "outputs": [
        {
          "internalType": "uint256",
          "name": "",
          "type": "uint256"
        }
      ],
      "stateMutability": "view",
      "type": "function"
    },
    {
      "inputs": [
        {
          "internalType": "address",
          "name": "_memberAddress",
          "type": "address"
        }
      ],
      "name": "getBalance",
      "outputs": [
        {
          "internalType": "int256",
          "name": "",
          "type": "int256"
        }
      ],
      "stateMutability": "view",
      "type": "function"
    },
    {
      "inputs": [
        {
          "internalType": "address",
          "name": "_memberAddress",
          "type": "address"
        }
      ],
      "name": "getMemberName",
      "outputs": [
        {
          "internalType": "string",
          "name": "",
          "type": "string"
        }
      ],
      "stateMutability": "view",
      "type": "function"
    }
  ],
  "bytecode": "0x60806040526000600260006101000a81548160ff0219169083151502179055503480156200002c57600080fd5b50604051620030c1380380620030c18339818101604052810190620000529190620005f2565b6200006481336200008660201b60201c565b6001600260006101000a81548160ff021916908315150217905550506200071c565b6000803373ffffffffffffffffffffffffffffffffffffffff1673ffffffffffffffffffffffffffffffffffffffff16815260200190815260200160002060020160009054906101000a900473ffffffffffffffffffffffffffffffffffffffff1673ffffffffffffffffffffffffffffffffffffffff163373ffffffffffffffffffffffffffffffffffffffff1614806200012f5750600260009054906101000a900460ff16155b6200013957600080fd5b6000808273ffffffffffffffffffffffffffffffffffffffff1673ffffffffffffffffffffffffffffffffffffffff16815260200190815260200160002060020160009054906101000a900473ffffffffffffffffffffffffffffffffffffffff1673ffffffffffffffffffffffffffffffffffffffff168173ffffffffffffffffffffffffffffffffffffffff16141580620001e35750600260009054906101000a900460ff16155b620001ed57600080fd5b600073ffffffffffffffffffffffffffffffffffffffff168173ffffffffffffffffffffffffffffffffffffffff1614156200022857600080fd5b60006040518060800160405280600081526020018481526020018373ffffffffffffffffffffffffffffffffffffffff168152602001600081525090506001829080600181540180825580915050600190039060005260206000200160009091909190916101000a81548173ffffffffffffffffffffffffffffffffffffffff021916908373ffffffffffffffffffffffffffffffffffffffff16021790555060018080549050620002db91906200067c565b816000018181525050806000808473ffffffffffffffffffffffffffffffffffffffff1673ffffffffffffffffffffffffffffffffffffffff1681526020019081526020016000206000820151816000015560208201518160010190805190602001906200034b929190620003a5565b5060408201518160020160006101000a81548173ffffffffffffffffffffffffffffffffffffffff021916908373ffffffffffffffffffffffffffffffffffffffff16021790555060608201518160030155905050505050565b828054620003b390620006e6565b90600052602060002090601f016020900481019282620003d7576000855562000423565b82601f10620003f257805160ff191683800117855562000423565b8280016001018555821562000423579182015b828111156200042257825182559160200191906001019062000405565b5b50905062000432919062000436565b5090565b5b808211156200045157600081600090555060010162000437565b5090565b6000604051905090565b600080fd5b600080fd5b600080fd5b600080fd5b6000601f19601f8301169050919050565b7f4e487b7100000000000000000000000000000000000000000000000000000000600052604160045260246000fd5b620004be8262000473565b810181811067ffffffffffffffff82111715620004e057620004df62000484565b5b80604052505050565b6000620004f562000455565b9050620005038282620004b3565b919050565b600067ffffffffffffffff82111562000526576200052562000484565b5b620005318262000473565b9050602081019050919050565b60005b838110156200055e57808201518184015260208101905062000541565b838111156200056e576000848401525b50505050565b60006200058b620005858462000508565b620004e9565b905082815260208101848484011115620005aa57620005a96200046e565b5b620005b78482856200053e565b509392505050565b600082601f830112620005d757620005d662000469565b5b8151620005e984826020860162000574565b91505092915050565b6000602082840312156200060b576200060a6200045f565b5b600082015167ffffffffffffffff8111156200062c576200062b62000464565b5b6200063a84828501620005bf565b91505092915050565b6000819050919050565b7f4e487b7100000000000000000000000000000000000000000000000000000000600052601160045260246000fd5b6000620006898262000643565b9150620006968362000643565b925082821015620006ac57620006ab6200064d565b5b828203905092915050565b7f4e487b7100000000000000000000000000000000000000000000000000000000600052602260045260246000fd5b60006002820490506001821680620006ff57607f821691505b60208210811415620007165762000715620006b7565b5b50919050565b612995806200072c6000396000f3fe6080604052600436106101095760003560e01c806399f62bab11610095578063bc35008811610064578063bc350088146103ac578063c3e1888e146103c8578063cc4e6299146103f4578063f8b2cb4f14610431578063ff419aa21461046e57610109565b806399f62bab146102c8578063af4afe0a14610305578063aff4b84914610346578063b4d95e711461038357610109565b80635b8f3d14116100dc5780635b8f3d14146101cb578063747442d3146101f65780637a9262a21461021f57806387d817891461025c5780638f081ece1461029d57610109565b806308ae4b0c1461010e57806328c847931461014e5780633ccfd60b1461018b57806345e39705146101a2575b600080fd5b34801561011a57600080fd5b5061013560048036038101906101309190611ee0565b6104ab565b6040516101459493929190611fe7565b60405180910390f35b34801561015a57600080fd5b506101756004803603810190610170919061205f565b610583565b60405161018291906120ba565b60405180910390f35b34801561019757600080fd5b506101a06105ee565b005b3480156101ae57600080fd5b506101c960048036038101906101c4919061220a565b6107ee565b005b3480156101d757600080fd5b506101e0610b04565b6040516101ed91906120ba565b60405180910390f35b34801561020257600080fd5b5061021d60048036038101906102189190612292565b610b17565b005b34801561022b57600080fd5b5061024660048036038101906102419190611ee0565b610cfa565b60405161025391906122d2565b60405180910390f35b34801561026857600080fd5b50610283600480360381019061027e91906122ed565b610d12565b60405161029495949392919061231a565b60405180910390f35b3480156102a957600080fd5b506102b2610e20565b6040516102bf91906122d2565b60405180910390f35b3480156102d457600080fd5b506102ef60048036038101906102ea9190611ee0565b610e26565b6040516102fc91906122d2565b60405180910390f35b34801561031157600080fd5b5061032c600480360381019061032791906122ed565b610e6f565b60405161033d959493929190612374565b60405180910390f35b34801561035257600080fd5b5061036d60048036038101906103689190611ee0565b610f4d565b60405161037a91906123ce565b60405180910390f35b34801561038f57600080fd5b506103aa60048036038101906103a591906124b8565b611020565b005b6103c660048036038101906103c1919061220a565b6111fd565b005b3480156103d457600080fd5b506103dd6114c6565b6040516103eb929190612557565b60405180910390f35b34801561040057600080fd5b5061041b600480360381019061041691906122ed565b611698565b6040516104289190612580565b60405180910390f35b34801561043d57600080fd5b5061045860048036038101906104539190611ee0565b6116d7565b604051610465919061259b565b60405180910390f35b34801561047a57600080fd5b50610495600480360381019061049091906122ed565b611722565b6040516104a291906122d2565b60405180910390f35b60006020528060005260406000206000915090508060000154908060010180546104d4906125e5565b80601f0160208091040260200160405190810160405280929190818152602001828054610500906125e5565b801561054d5780601f106105225761010080835404028352916020019161054d565b820191906000526020600020905b81548152906001019060200180831161053057829003601f168201915b5050505050908060020160009054906101000a900473ffffffffffffffffffffffffffffffffffffffff16908060030154905084565b60006004600084815260200190815260200160002060060160008373ffffffffffffffffffffffffffffffffffffffff1673ffffffffffffffffffffffffffffffffffffffff16815260200190815260200160002060009054906101000a900460ff16905092915050565b6000803373ffffffffffffffffffffffffffffffffffffffff1673ffffffffffffffffffffffffffffffffffffffff16815260200190815260200160002060020160009054906101000a900473ffffffffffffffffffffffffffffffffffffffff1673ffffffffffffffffffffffffffffffffffffffff163373ffffffffffffffffffffffffffffffffffffffff1614806106965750600260009054906101000a900460ff16155b61069f57600080fd5b6000600660003373ffffffffffffffffffffffffffffffffffffffff1673ffffffffffffffffffffffffffffffffffffffff16815260200190815260200160002054116106eb57600080fd5b6000600660003373ffffffffffffffffffffffffffffffffffffffff1673ffffffffffffffffffffffffffffffffffffffff1681526020019081526020016000205490506000600660003373ffffffffffffffffffffffffffffffffffffffff1673ffffffffffffffffffffffffffffffffffffffff1681526020019081526020016000208190555060003373ffffffffffffffffffffffffffffffffffffffff168260405161079a90612648565b60006040518083038185875af1925050503d80600081146107d7576040519150601f19603f3d011682016040523d82523d6000602084013e6107dc565b606091505b50509050806107ea57600080fd5b5050565b6000803373ffffffffffffffffffffffffffffffffffffffff1673ffffffffffffffffffffffffffffffffffffffff16815260200190815260200160002060020160009054906101000a900473ffffffffffffffffffffffffffffffffffffffff1673ffffffffffffffffffffffffffffffffffffffff163373ffffffffffffffffffffffffffffffffffffffff1614806108965750600260009054906101000a900460ff16155b61089f57600080fd5b6000808273ffffffffffffffffffffffffffffffffffffffff1673ffffffffffffffffffffffffffffffffffffffff16815260200190815260200160002060020160009054906101000a900473ffffffffffffffffffffffffffffffffffffffff1673ffffffffffffffffffffffffffffffffffffffff168173ffffffffffffffffffffffffffffffffffffffff161415806109485750600260009054906101000a900460ff16155b61095157600080fd5b600073ffffffffffffffffffffffffffffffffffffffff168173ffffffffffffffffffffffffffffffffffffffff16141561098b57600080fd5b60006040518060800160405280600081526020018481526020018373ffffffffffffffffffffffffffffffffffffffff168152602001600081525090506001829080600181540180825580915050600190039060005260206000200160009091909190916101000a81548173ffffffffffffffffffffffffffffffffffffffff021916908373ffffffffffffffffffffffffffffffffffffffff16021790555060018080549050610a3c919061268c565b816000018181525050806000808473ffffffffffffffffffffffffffffffffffffffff1673ffffffffffffffffffffffffffffffffffffffff168152602001908152602001600020600082015181600001556020820151816001019080519060200190610aaa929190611d41565b5060408201518160020160006101000a81548173ffffffffffffffffffffffffffffffffffffffff021916908373ffffffffffffffffffffffffffffffffffffffff16021790555060608201518160030155905050505050565b600260009054906101000a900460ff1681565b6000803373ffffffffffffffffffffffffffffffffffffffff1673ffffffffffffffffffffffffffffffffffffffff16815260200190815260200160002060020160009054906101000a900473ffffffffffffffffffffffffffffffffffffffff1673ffffffffffffffffffffffffffffffffffffffff163373ffffffffffffffffffffffffffffffffffffffff161480610bbf5750600260009054906101000a900460ff16155b610bc857600080fd5b60006004600084815260200190815260200160002090506224ea008160030154610bf291906126c0565b4210610bfd57600080fd5b8115158160060160003373ffffffffffffffffffffffffffffffffffffffff1673ffffffffffffffffffffffffffffffffffffffff16815260200190815260200160002060009054906101000a900460ff1615151415610c5c57600080fd5b6000610c6784611722565b905060008114610c7b57610c7a84611815565b5b828260060160003373ffffffffffffffffffffffffffffffffffffffff1673ffffffffffffffffffffffffffffffffffffffff16815260200190815260200160002060006101000a81548160ff0219169083151502179055506000610cdf85611722565b905060008114610cf357610cf285611823565b5b5050505050565b60066020528060005260406000206000915090505481565b60058181548110610d2257600080fd5b9060005260206000209060050201600091509050806000018054610d45906125e5565b80601f0160208091040260200160405190810160405280929190818152602001828054610d71906125e5565b8015610dbe5780601f10610d9357610100808354040283529160200191610dbe565b820191906000526020600020905b815481529060010190602001808311610da157829003601f168201915b5050505050908060010154908060020154908060030160009054906101000a900473ffffffffffffffffffffffffffffffffffffffff16908060040160009054906101000a900473ffffffffffffffffffffffffffffffffffffffff16905085565b60035481565b6000600660008373ffffffffffffffffffffffffffffffffffffffff1673ffffffffffffffffffffffffffffffffffffffff168152602001908152602001600020549050919050565b6004602052806000526040600020600091509050806000018054610e92906125e5565b80601f0160208091040260200160405190810160405280929190818152602001828054610ebe906125e5565b8015610f0b5780601f10610ee057610100808354040283529160200191610f0b565b820191906000526020600020905b815481529060010190602001808311610eee57829003601f168201915b5050505050908060010154908060020154908060030154908060040160009054906101000a900473ffffffffffffffffffffffffffffffffffffffff16905085565b60606000808373ffffffffffffffffffffffffffffffffffffffff1673ffffffffffffffffffffffffffffffffffffffff1681526020019081526020016000206001018054610f9b906125e5565b80601f0160208091040260200160405190810160405280929190818152602001828054610fc7906125e5565b80156110145780601f10610fe957610100808354040283529160200191611014565b820191906000526020600020905b815481529060010190602001808311610ff757829003601f168201915b50505050509050919050565b6000803373ffffffffffffffffffffffffffffffffffffffff1673ffffffffffffffffffffffffffffffffffffffff16815260200190815260200160002060020160009054906101000a900473ffffffffffffffffffffffffffffffffffffffff1673ffffffffffffffffffffffffffffffffffffffff163373ffffffffffffffffffffffffffffffffffffffff1614806110c85750600260009054906101000a900460ff16155b6110d157600080fd5b6000339050600084116110e357600080fd5b600082511180156110f95750601460ff16825111155b61110257600080fd5b61110b81611831565b61111457600080fd5b61111d826118db565b61112657600080fd5b61112f8261193b565b61113857600080fd5b6000600460006003600081548092919061115190612716565b91905055815260200190815260200160002090508581600001908051906020019061117d929190611d41565b50848160010181905550838160020181905550818160040160006101000a81548173ffffffffffffffffffffffffffffffffffffffff021916908373ffffffffffffffffffffffffffffffffffffffff160217905550428160030181905550828160050190805190602001906111f4929190611dc7565b50505050505050565b6000803373ffffffffffffffffffffffffffffffffffffffff1673ffffffffffffffffffffffffffffffffffffffff16815260200190815260200160002060020160009054906101000a900473ffffffffffffffffffffffffffffffffffffffff1673ffffffffffffffffffffffffffffffffffffffff163373ffffffffffffffffffffffffffffffffffffffff1614806112a55750600260009054906101000a900460ff16155b6112ae57600080fd5b6000339050600034116112c057600080fd5b8073ffffffffffffffffffffffffffffffffffffffff168273ffffffffffffffffffffffffffffffffffffffff1614156112f957600080fd5b61130281611831565b61130b57600080fd5b61131482611831565b61131d57600080fd5b60006040518060a001604052808581526020013481526020014281526020018373ffffffffffffffffffffffffffffffffffffffff1681526020018473ffffffffffffffffffffffffffffffffffffffff168152509050600581908060018154018082558091505060019003906000526020600020906005020160009091909190915060008201518160000190805190602001906113bc929190611d41565b50602082015181600101556040820151816002015560608201518160030160006101000a81548173ffffffffffffffffffffffffffffffffffffffff021916908373ffffffffffffffffffffffffffffffffffffffff16021790555060808201518160040160006101000a81548173ffffffffffffffffffffffffffffffffffffffff021916908373ffffffffffffffffffffffffffffffffffffffff160217905550505034600660008573ffffffffffffffffffffffffffffffffffffffff1673ffffffffffffffffffffffffffffffffffffffff16815260200190815260200160002060008282546114b091906126c0565b925050819055506114c081611a20565b50505050565b600080600080600060016000815481106114e3576114e261275f565b5b9060005260206000200160009054906101000a900473ffffffffffffffffffffffffffffffffffffffff1673ffffffffffffffffffffffffffffffffffffffff1673ffffffffffffffffffffffffffffffffffffffff168152602001908152602001600020600301549050600080600190505b60018054905081101561168b576115ec836000806001858154811061157e5761157d61275f565b5b9060005260206000200160009054906101000a900473ffffffffffffffffffffffffffffffffffffffff1673ffffffffffffffffffffffffffffffffffffffff1673ffffffffffffffffffffffffffffffffffffffff16815260200190815260200160002060030154611ae3565b831461167857600080600183815481106116095761160861275f565b5b9060005260206000200160009054906101000a900473ffffffffffffffffffffffffffffffffffffffff1673ffffffffffffffffffffffffffffffffffffffff1673ffffffffffffffffffffffffffffffffffffffff1681526020019081526020016000206003015492508091505b808061168390612716565b915050611556565b5081819350935050509091565b600181815481106116a857600080fd5b906000526020600020016000915054906101000a900473ffffffffffffffffffffffffffffffffffffffff1681565b60008060008373ffffffffffffffffffffffffffffffffffffffff1673ffffffffffffffffffffffffffffffffffffffff168152602001908152602001600020600301549050919050565b6000806004600084815260200190815260200160002090506000805b826005018054905081101561180a576001151583600601600085600501848154811061176d5761176c61275f565b5b9060005260206000200160009054906101000a900473ffffffffffffffffffffffffffffffffffffffff1673ffffffffffffffffffffffffffffffffffffffff1673ffffffffffffffffffffffffffffffffffffffff16815260200190815260200160002060009054906101000a900460ff16151514156117f75781806117f390612716565b9250505b808061180290612716565b91505061173e565b508092505050919050565b611820816001611afd565b50565b61182e816000611afd565b50565b60008060008373ffffffffffffffffffffffffffffffffffffffff1673ffffffffffffffffffffffffffffffffffffffff16815260200190815260200160002060020160009054906101000a900473ffffffffffffffffffffffffffffffffffffffff1673ffffffffffffffffffffffffffffffffffffffff168273ffffffffffffffffffffffffffffffffffffffff1614156118d157600190506118d6565b600090505b919050565b600080600090505b82518110156119305761190f8382815181106119025761190161275f565b5b6020026020010151611831565b61191d576000915050611936565b808061192890612716565b9150506118e3565b50600190505b919050565b60008060005b8351811015611a14576000915060008482815181106119635761196261275f565b5b6020026020010151905060005b85518110156119ff5785818151811061198c5761198b61275f565b5b602002602001015173ffffffffffffffffffffffffffffffffffffffff168273ffffffffffffffffffffffffffffffffffffffff1614156119d65783806119d290612716565b9450505b60028414156119ec576000945050505050611a1b565b80806119f790612716565b915050611970565b50508080611a0c90612716565b915050611941565b5060019150505b919050565b8060200151600080836080015173ffffffffffffffffffffffffffffffffffffffff1673ffffffffffffffffffffffffffffffffffffffff1681526020019081526020016000206003016000828254611a79919061278e565b925050819055508060200151600080836060015173ffffffffffffffffffffffffffffffffffffffff1673ffffffffffffffffffffffffffffffffffffffff1681526020019081526020016000206003016000828254611ad99190612822565b9250508190555050565b600081831215611af35781611af5565b825b905092915050565b6000611b0883611722565b905060008111611b1757600080fd5b60006004600085815260200190815260200160002090506000828260010154611b4091906128e5565b90506000826001015490508415611b6a5781611b5b90612916565b915080611b6790612916565b90505b806000808560040160009054906101000a900473ffffffffffffffffffffffffffffffffffffffff1673ffffffffffffffffffffffffffffffffffffffff1673ffffffffffffffffffffffffffffffffffffffff1681526020019081526020016000206003016000828254611bdf9190612822565b9250508190555060005b8360050180549050811015611d3857836006016000856005018381548110611c1457611c1361275f565b5b9060005260206000200160009054906101000a900473ffffffffffffffffffffffffffffffffffffffff1673ffffffffffffffffffffffffffffffffffffffff1673ffffffffffffffffffffffffffffffffffffffff16815260200190815260200160002060009054906101000a900460ff1615611d255782600080866005018481548110611ca657611ca561275f565b5b9060005260206000200160009054906101000a900473ffffffffffffffffffffffffffffffffffffffff1673ffffffffffffffffffffffffffffffffffffffff1673ffffffffffffffffffffffffffffffffffffffff1681526020019081526020016000206003016000828254611d1d919061278e565b925050819055505b8080611d3090612716565b915050611be9565b50505050505050565b828054611d4d906125e5565b90600052602060002090601f016020900481019282611d6f5760008555611db6565b82601f10611d8857805160ff1916838001178555611db6565b82800160010185558215611db6579182015b82811115611db5578251825591602001919060010190611d9a565b5b509050611dc39190611e51565b5090565b828054828255906000526020600020908101928215611e40579160200282015b82811115611e3f5782518260006101000a81548173ffffffffffffffffffffffffffffffffffffffff021916908373ffffffffffffffffffffffffffffffffffffffff16021790555091602001919060010190611de7565b5b509050611e4d9190611e51565b5090565b5b80821115611e6a576000816000905550600101611e52565b5090565b6000604051905090565b600080fd5b600080fd5b600073ffffffffffffffffffffffffffffffffffffffff82169050919050565b6000611ead82611e82565b9050919050565b611ebd81611ea2565b8114611ec857600080fd5b50565b600081359050611eda81611eb4565b92915050565b600060208284031215611ef657611ef5611e78565b5b6000611f0484828501611ecb565b91505092915050565b6000819050919050565b611f2081611f0d565b82525050565b600081519050919050565b600082825260208201905092915050565b60005b83811015611f60578082015181840152602081019050611f45565b83811115611f6f576000848401525b50505050565b6000601f19601f8301169050919050565b6000611f9182611f26565b611f9b8185611f31565b9350611fab818560208601611f42565b611fb481611f75565b840191505092915050565b611fc881611ea2565b82525050565b6000819050919050565b611fe181611fce565b82525050565b6000608082019050611ffc6000830187611f17565b818103602083015261200e8186611f86565b905061201d6040830185611fbf565b61202a6060830184611fd8565b95945050505050565b61203c81611f0d565b811461204757600080fd5b50565b60008135905061205981612033565b92915050565b6000806040838503121561207657612075611e78565b5b60006120848582860161204a565b925050602061209585828601611ecb565b9150509250929050565b60008115159050919050565b6120b48161209f565b82525050565b60006020820190506120cf60008301846120ab565b92915050565b600080fd5b600080fd5b7f4e487b7100000000000000000000000000000000000000000000000000000000600052604160045260246000fd5b61211782611f75565b810181811067ffffffffffffffff82111715612136576121356120df565b5b80604052505050565b6000612149611e6e565b9050612155828261210e565b919050565b600067ffffffffffffffff821115612175576121746120df565b5b61217e82611f75565b9050602081019050919050565b82818337600083830152505050565b60006121ad6121a88461215a565b61213f565b9050828152602081018484840111156121c9576121c86120da565b5b6121d484828561218b565b509392505050565b600082601f8301126121f1576121f06120d5565b5b813561220184826020860161219a565b91505092915050565b6000806040838503121561222157612220611e78565b5b600083013567ffffffffffffffff81111561223f5761223e611e7d565b5b61224b858286016121dc565b925050602061225c85828601611ecb565b9150509250929050565b61226f8161209f565b811461227a57600080fd5b50565b60008135905061228c81612266565b92915050565b600080604083850312156122a9576122a8611e78565b5b60006122b78582860161204a565b92505060206122c88582860161227d565b9150509250929050565b60006020820190506122e76000830184611f17565b92915050565b60006020828403121561230357612302611e78565b5b60006123118482850161204a565b91505092915050565b600060a08201905081810360008301526123348188611f86565b90506123436020830187611f17565b6123506040830186611f17565b61235d6060830185611fbf565b61236a6080830184611fbf565b9695505050505050565b600060a082019050818103600083015261238e8188611f86565b905061239d6020830187611f17565b6123aa6040830186611f17565b6123b76060830185611f17565b6123c46080830184611fbf565b9695505050505050565b600060208201905081810360008301526123e88184611f86565b905092915050565b600067ffffffffffffffff82111561240b5761240a6120df565b5b602082029050602081019050919050565b600080fd5b600061243461242f846123f0565b61213f565b905080838252602082019050602084028301858111156124575761245661241c565b5b835b81811015612480578061246c8882611ecb565b845260208401935050602081019050612459565b5050509392505050565b600082601f83011261249f5761249e6120d5565b5b81356124af848260208601612421565b91505092915050565b600080600080608085870312156124d2576124d1611e78565b5b600085013567ffffffffffffffff8111156124f0576124ef611e7d565b5b6124fc878288016121dc565b945050602061250d8782880161204a565b935050604061251e8782880161204a565b925050606085013567ffffffffffffffff81111561253f5761253e611e7d565b5b61254b8782880161248a565b91505092959194509250565b600060408201905061256c6000830185611fd8565b6125796020830184611f17565b9392505050565b60006020820190506125956000830184611fbf565b92915050565b60006020820190506125b06000830184611fd8565b92915050565b7f4e487b7100000000000000000000000000000000000000000000000000000000600052602260045260246000fd5b600060028204905060018216806125fd57607f821691505b60208210811415612611576126106125b6565b5b50919050565b600081905092915050565b50565b6000612632600083612617565b915061263d82612622565b600082019050919050565b600061265382612625565b9150819050919050565b7f4e487b7100000000000000000000000000000000000000000000000000000000600052601160045260246000fd5b600061269782611f0d565b91506126a283611f0d565b9250828210156126b5576126b461265d565b5b828203905092915050565b60006126cb82611f0d565b91506126d683611f0d565b9250827fffffffffffffffffffffffffffffffffffffffffffffffffffffffffffffffff0382111561270b5761270a61265d565b5b828201905092915050565b600061272182611f0d565b91507fffffffffffffffffffffffffffffffffffffffffffffffffffffffffffffffff8214156127545761275361265d565b5b600182019050919050565b7f4e487b7100000000000000000000000000000000000000000000000000000000600052603260045260246000fd5b600061279982611fce565b91506127a483611fce565b9250827f8000000000000000000000000000000000000000000000000000000000000000018212600084121516156127df576127de61265d565b5b827f7fffffffffffffffffffffffffffffffffffffffffffffffffffffffffffffff0182136000841216156128175761281661265d565b5b828203905092915050565b600061282d82611fce565b915061283883611fce565b9250817f7fffffffffffffffffffffffffffffffffffffffffffffffffffffffffffffff038313600083121516156128735761287261265d565b5b817f80000000000000000000000000000000000000000000000000000000000000000383126000831216156128ab576128aa61265d565b5b828201905092915050565b7f4e487b7100000000000000000000000000000000000000000000000000000000600052601260045260246000fd5b60006128f082611f0d565b91506128fb83611f0d565b92508261290b5761290a6128b6565b5b828204905092915050565b600061292182611fce565b91507f80000000000000000000000000000000000000000000000000000000000000008214156129545761295361265d565b5b81600003905091905056fea2646970667358221220665fd779760a40a8a6458d59c29e8b583a63d0d1e1520e512f10a949176cd87164736f6c63430008090033",
  "immutableReferences": {},
  "source": "// SPDX-License-Identifier: MIT\npragma solidity ^0.8.9;\n\n/// @title ExpenseGroup smart contract allows to share and settle a group of expenses and track debts and credits.\n/// @author Andrs Buenestado\ncontract ExpenseGroup {\n\n    uint8 constant MAX_PAYEES = 20;\n\n    /**\n    Member is a person or company which is part of current expense group.\n     */\n    struct Member {\n        uint256 identifier;\n        string name;\n        address memberAddress;\n        int256 balance;\n    }\n\n    /**\n    Expense is a cost incurred which needs to be paid back.\n    It has an impact on the balance for payer / payees only when a payee gives its approval.\n     */\n    struct Expense {\n        string name;\n        uint256 amount;\n        uint256 valueDate;\n        uint256 creationDate;\n        address payer;\n        address[] payees;\n        mapping(address => bool) approvals;\n    }\n\n    /**\n    Payment is money transfer from one member to another.\n    It can be use to settle a debt or a credit.\n     */\n    struct Payment {\n        string title;\n        uint256 amount;\n        uint256 valueDate;\n        address payer;\n        address payee;\n    }\n    \n    mapping(address => Member) public members;\n    \n    address[] public memberAddresses;\n\n    /// Allow the creation of the first member when the contract instance is created.\n    bool public isContractInstanceCreated = false;\n\n    /// A mapping of expense identifier and expense.\n    uint256 public numExpenses;\n    mapping(uint256 => Expense) public expenses;\n    \n    Payment[] public payments;\n\n    // A mapping of all the available withdrawals per address.\n    mapping(address => uint256) public withdrawals;\n    \n    modifier restrictedToMember() {\n        require(\n            msg.sender == members[msg.sender].memberAddress ||\n                !isContractInstanceCreated\n        );\n        _;\n    }\n\n    /// @notice Constructor. The creator of the smart contract will be the first member.    \n    /// @param _name the name of the first member.\n    constructor(string memory _name) {\n        addMember(_name, msg.sender);\n        isContractInstanceCreated = true;\n    }\n\n    /// @notice Adds a member. Only registered member can add new members.\n    /// @param _name the name or alias of the member.\n    /// @param _memberAddress the address of the member.\n    function addMember(string memory _name, address _memberAddress)\n        public\n        restrictedToMember\n    {\n        require(\n            _memberAddress != members[_memberAddress].memberAddress ||\n                !isContractInstanceCreated\n        ); \n\n        require(_memberAddress != address(0));\n\n        Member memory member = Member({\n            identifier: 0,\n            name: _name,\n            memberAddress: _memberAddress,\n            balance: 0\n        });\n\n        memberAddresses.push(_memberAddress);\n        member.identifier = memberAddresses.length - 1;\n        members[_memberAddress] = member;\n    }\n\n    /// @notice Add an expense as payer. By default, the payer is the creator of the expense.\n    /// @dev The number of payees are limited to a fixed number to avoid gas limit using loop.\n    /// @param _title the title of the expense.\n    /// @param _amount the amount of the expense. Must be superior to zero.\n    /// @param _valueDate the value date of the expense.\n    /// @param _payees the list of payee of the expense. The payer can be part of the payees.\n    function addExpense(\n        string memory _title,\n        uint256 _amount,\n        uint256 _valueDate,\n        address[] memory _payees\n    ) public restrictedToMember {\n        address _payer = msg.sender;\n        require(_amount > 0);\n        require(_payees.length > 0 && _payees.length <= MAX_PAYEES);\n        require(isMember(_payer));\n        require(areAllMembers(_payees));\n        require(areAllAddressesUnique(_payees));\n\n        /// NOTE: Expense contains a mapping 'approvals' and data location needs to be storage.\n        Expense storage expense = expenses[numExpenses++];\n\n        expense.name = _title;\n        expense.amount = _amount;\n        expense.valueDate = _valueDate;\n        expense.payer = _payer;\n        expense.creationDate = block.timestamp;\n        expense.payees = _payees;\n    }\n\n    /// @notice Set member's approval for an expense. Each member has 4 weeks to set its approval.\n    /// @param _expenseId the identifier of the expense.\n    /// @param _approved the approval of the member : true of false.\n    function approve(uint256 _expenseId, bool _approved) public restrictedToMember {\n        Expense storage expense = expenses[_expenseId];\n        require(block.timestamp < expense.creationDate + 4 weeks);\n        require(expense.approvals[msg.sender] != _approved);\n\n        uint256 numberOfApprovalsBefore = getNumberOfApprovals(_expenseId);\n        \n        /// If the number of approvals before the call is not 0, we revert the balance to the previous state without the expense.\n        if (numberOfApprovalsBefore != 0) {\n            removeFromBalance(_expenseId);\n        }\n\n        /// Update the number of approvals\n        expense.approvals[msg.sender] = _approved;\n\n        uint256 numberOfApprovalsAfter = getNumberOfApprovals(_expenseId);\n\n        /// If the number of approvals after is not 0, we syncrohonize the balance.\n        if (numberOfApprovalsAfter != 0) {\n            addToBalance(_expenseId);\n        }\n    }\n\n    /// @notice Create a Payment. Use this payable function send money to the smart contract.\n    /// @param _title the title of the payment\n    /// @param _payee the payee of the payment\n    function addPayment(string memory _title, address _payee)\n        public\n        payable\n        restrictedToMember\n    {\n        address _payer = msg.sender;\n        require(msg.value > 0);\n        require(_payee != _payer);\n        require(isMember(_payer));\n        require(isMember(_payee));\n\n        Payment memory payment = Payment({\n            title: _title,\n            amount: msg.value,\n            valueDate: block.timestamp,\n            payer: _payer,\n            payee: _payee\n        });\n\n        payments.push(payment);\n        withdrawals[_payee] += msg.value;\n        synchronizeBalanceAfterPayment(payment);\n    }\n\n    /// @notice Allow each user to withdraw its money from the smart contract\n    function withdraw() public restrictedToMember {\n        require(withdrawals[msg.sender] > 0);\n        uint256 amount = withdrawals[msg.sender];\n        withdrawals[msg.sender] = 0;\n\n        (bool success, ) = msg.sender.call{value: amount}(\"\");\n\n        require(success);\n    }\n\n    /// @notice Get the max of all balances.\n    /// @return (max, index) where max is the max of all the balance and index is the index of the member.\n    function getMaxBalance() public view returns (int256, uint256) {\n        int256 max = members[memberAddresses[0]].balance;\n        uint256 index = 0;\n        for (uint256 i = 1; i < memberAddresses.length; i++) {\n            if (max != getMax(max, members[memberAddresses[i]].balance)) {\n                max = members[memberAddresses[i]].balance;\n                index = i;\n            }\n        }\n        return (max, index);\n    }\n\n    /// @notice Get withdrawal per address\n    /// @return the available withdrawal for the member address\n    function getWithdrawal(address _memberAddress) public view returns (uint256) {\n        return withdrawals[_memberAddress];\n    }\n\n    /// @notice Get approval depending on the expense identifier and address of the member.\n    /// @param _expenseId the index of the expense\n    /// @param _memberAddress address of the payee\n    /// @return true if payee gave is approval, else false\n    function getApproval(uint256 _expenseId, address _memberAddress)\n        public\n        view\n        returns (bool)\n    {\n        return expenses[_expenseId].approvals[_memberAddress];\n    }\n\n    /// @notice Get the total number of approvals for a given expense.\n    /// @param _expenseId the index of the expense\n    /// @return the number of approvals\n    function getNumberOfApprovals(uint256 _expenseId)\n        public\n        view\n        returns (uint256)\n    {\n        Expense storage expense = expenses[_expenseId];\n        uint256 numberOfApprovals = 0;\n        for (uint256 i = 0; i < expense.payees.length; i++) {\n            if (expense.approvals[expense.payees[i]] == true) {\n                numberOfApprovals++;\n            }\n        }\n        return numberOfApprovals;\n    }\n\n    /// @notice Get the balance of a member.\n    /// @param _memberAddress the address of the member\n    /// @return the balance of the member\n    function getBalance(address _memberAddress) public view returns (int256) {\n        return members[_memberAddress].balance;\n    }\n\n    /// @notice Get the name of a member.\n    /// @param _memberAddress the address of the member\n    /// @return the name of the member\n    function getMemberName(address _memberAddress)\n        public\n        view\n        returns (string memory)\n    {\n        return members[_memberAddress].name;\n    }\n\n    /// @notice Check if there is duplicate inside array.\n    /// @param _list the list of address to check\n    /// @return true if there is duplicate, false otherwise\n    function areAllAddressesUnique(address[] memory _list)\n        internal\n        pure\n        returns (bool)\n    {\n        uint256 counter;\n        for (uint256 i = 0; i < _list.length; i++) {\n            counter = 0;\n            address addr = _list[i];\n            for (uint256 j = 0; j < _list.length; j++) {\n                if (addr == _list[j]) {\n                    counter++;\n                }\n                if (counter == 2) {\n                    return false;\n                }\n            }\n        }\n        \n        return true;\n    }\n\n    /// @notice Check if each address of the list is registered as member.\n    /// @param _list the list of address to check\n    /// @return true if all the list is registred as member, false otherwise\n    function areAllMembers(address[] memory _list) internal view returns (bool) {\n        for (uint256 i = 0; i < _list.length; i++) {\n            if (!isMember(_list[i])) {\n                return false;\n            }\n        }\n        return true;\n    }\n\n    /// @notice Check if each address of the list is registered as amember.\n    /// @param _memberAddress the address to check\n    /// @return true if all the list is registred as member, false otherwise\n    function isMember(address _memberAddress) internal view returns (bool) {\n        if (_memberAddress == members[_memberAddress].memberAddress) {\n            return true;\n        } else {\n            return false;\n        }\n    }\n\n    /// @notice Add the expense amount to the balance if there is some approval\n    /// @dev This function must be use if there is at list one approval in the expense\n    /// @param expenseId the index of the expense\n    function addToBalance(uint256 expenseId) internal {\n        calculateBalance(expenseId, false);\n    }\n\n    /// @notice Remove the expense amount from the balance if there is no approval\n    /// @dev This function must not be use if there is zero approval\n    /// @param expenseId the index of the expense\n    function removeFromBalance(uint256 expenseId) internal {\n        calculateBalance(expenseId, true);\n    }\n\n    /// @notice Calculate the balance after each approval / unapproval.\n    /// @param _expenseId the index of the expense\n    /// @param _isRemoved indicate if the expense must be reverted or synchronized\n    function calculateBalance(uint256 _expenseId, bool _isRemoved) internal {\n        uint256 contributors = getNumberOfApprovals(_expenseId);\n        require(contributors > 0);\n        Expense storage expense = expenses[_expenseId];\n        int256 _portion = int256(expense.amount / contributors);\n        int256 _amount = int256(expense.amount);\n\n        if (_isRemoved) {\n            _portion = -(_portion);\n            _amount = -(_amount);\n        }\n\n        members[expense.payer].balance += _amount;\n        for (uint256 i = 0; i < expense.payees.length; i++) {\n            if (expense.approvals[expense.payees[i]]) {\n                members[expense.payees[i]].balance -= _portion;\n            }\n        }\n    }\n\n    /// @notice Calculate the state of the balance after each new payement.\n    /// @param payment which will alter balance\n    function synchronizeBalanceAfterPayment(Payment memory payment) internal {\n        members[payment.payee].balance -= int256(payment.amount);\n        members[payment.payer].balance += int256(payment.amount);\n    }\n\n    function getMax(int256 a, int256 b) internal pure returns (int256) {\n        return a >= b ? a : b;\n    }\n\n    function getMin(int256 a, int256 b) internal pure returns (int256) {\n        return a < b ? a : b;\n    }\n}\n",
  "sourcePath": "/Users/andybn/projects/blockchain-developer-bootcamp-final-project/contracts/ExpenseGroup.sol",
  "compiler": {
    "name": "solc",
    "version": "0.8.9+commit.e5eed63a.Emscripten.clang"
  },
  "schemaVersion": "3.4.3",
  "updatedAt": "2021-10-07T18:09:12.971Z",
  "devdoc": {
    "author": "Andrs Buenestado",
    "kind": "dev",
    "methods": {
      "addExpense(string,uint256,uint256,address[])": {
        "details": "The number of payees are limited to a fixed number to avoid gas limit using loop.",
        "params": {
          "_amount": "the amount of the expense. Must be superior to zero.",
          "_payees": "the list of payee of the expense. The payer can be part of the payees.",
          "_title": "the title of the expense.",
          "_valueDate": "the value date of the expense."
        }
      },
      "addMember(string,address)": {
        "params": {
          "_memberAddress": "the address of the member.",
          "_name": "the name or alias of the member."
        }
      },
      "addPayment(string,address)": {
        "params": {
          "_payee": "the payee of the payment",
          "_title": "the title of the payment"
        }
      },
      "approve(uint256,bool)": {
        "params": {
          "_approved": "the approval of the member : true of false.",
          "_expenseId": "the identifier of the expense."
        }
      },
      "constructor": {
        "params": {
          "_name": "the name of the first member."
        }
      },
      "getApproval(uint256,address)": {
        "params": {
          "_expenseId": "the index of the expense",
          "_memberAddress": "address of the payee"
        },
        "returns": {
          "_0": "true if payee gave is approval, else false"
        }
      },
      "getBalance(address)": {
        "params": {
          "_memberAddress": "the address of the member"
        },
        "returns": {
          "_0": "the balance of the member"
        }
      },
      "getMaxBalance()": {
        "returns": {
          "_0": "(max, index) where max is the max of all the balance and index is the index of the member."
        }
      },
      "getMemberName(address)": {
        "params": {
          "_memberAddress": "the address of the member"
        },
        "returns": {
          "_0": "the name of the member"
        }
      },
      "getNumberOfApprovals(uint256)": {
        "params": {
          "_expenseId": "the index of the expense"
        },
        "returns": {
          "_0": "the number of approvals"
        }
      },
      "getWithdrawal(address)": {
        "returns": {
          "_0": "the available withdrawal for the member address"
        }
      }
    },
    "title": "ExpenseGroup smart contract allows to share and settle a group of expenses and track debts and credits.",
    "version": 1
  },
  "userdoc": {
    "kind": "user",
    "methods": {
      "addExpense(string,uint256,uint256,address[])": {
        "notice": "Add an expense as payer. By default, the payer is the creator of the expense."
      },
      "addMember(string,address)": {
        "notice": "Adds a member. Only registered member can add new members."
      },
      "addPayment(string,address)": {
        "notice": "Create a Payment. Use this payable function send money to the smart contract."
      },
      "approve(uint256,bool)": {
        "notice": "Set member's approval for an expense. Each member has 4 weeks to set its approval."
      },
      "constructor": {
        "notice": "Constructor. The creator of the smart contract will be the first member.    "
      },
      "getApproval(uint256,address)": {
        "notice": "Get approval depending on the expense identifier and address of the member."
      },
      "getBalance(address)": {
        "notice": "Get the balance of a member."
      },
      "getMaxBalance()": {
        "notice": "Get the max of all balances."
      },
      "getMemberName(address)": {
        "notice": "Get the name of a member."
      },
      "getNumberOfApprovals(uint256)": {
        "notice": "Get the total number of approvals for a given expense."
      },
      "getWithdrawal(address)": {
        "notice": "Get withdrawal per address"
      },
      "isContractInstanceCreated()": {
        "notice": "Allow the creation of the first member when the contract instance is created."
      },
      "numExpenses()": {
        "notice": "A mapping of expense identifier and expense."
      },
      "withdraw()": {
        "notice": "Allow each user to withdraw its money from the smart contract"
      }
    },
    "version": 1
  }
}