{
  "contractName": "ExpenseGroup",
  "abi": [
    {
      "inputs": [
        {
          "internalType": "address",
          "name": "_owner",
          "type": "address"
        },
        {
          "internalType": "string",
          "name": "_ownerName",
          "type": "string"
        },
        {
          "internalType": "string",
          "name": "_title",
          "type": "string"
        }
      ],
      "stateMutability": "nonpayable",
      "type": "constructor"
    },
    {
      "anonymous": false,
      "inputs": [
        {
          "indexed": true,
          "internalType": "uint256",
          "name": "_expenseId",
          "type": "uint256"
        }
      ],
      "name": "ExpenseAdded",
      "type": "event"
    },
    {
      "anonymous": false,
      "inputs": [
        {
          "indexed": true,
          "internalType": "uint256",
          "name": "_expenseId",
          "type": "uint256"
        },
        {
          "indexed": false,
          "internalType": "bool",
          "name": "_approved",
          "type": "bool"
        }
      ],
      "name": "ExpenseApproved",
      "type": "event"
    },
    {
      "anonymous": false,
      "inputs": [
        {
          "indexed": true,
          "internalType": "uint256",
          "name": "_memberId",
          "type": "uint256"
        }
      ],
      "name": "MemberAdded",
      "type": "event"
    },
    {
      "anonymous": false,
      "inputs": [
        {
          "indexed": false,
          "internalType": "address",
          "name": "account",
          "type": "address"
        }
      ],
      "name": "Paused",
      "type": "event"
    },
    {
      "anonymous": false,
      "inputs": [
        {
          "indexed": true,
          "internalType": "address",
          "name": "_payer",
          "type": "address"
        },
        {
          "indexed": false,
          "internalType": "address",
          "name": "_payee",
          "type": "address"
        },
        {
          "indexed": false,
          "internalType": "uint256",
          "name": "_amount",
          "type": "uint256"
        }
      ],
      "name": "PaymentAdded",
      "type": "event"
    },
    {
      "anonymous": false,
      "inputs": [
        {
          "indexed": false,
          "internalType": "address",
          "name": "account",
          "type": "address"
        }
      ],
      "name": "Unpaused",
      "type": "event"
    },
    {
      "anonymous": false,
      "inputs": [
        {
          "indexed": true,
          "internalType": "address",
          "name": "_member",
          "type": "address"
        },
        {
          "indexed": false,
          "internalType": "uint256",
          "name": "_amount",
          "type": "uint256"
        }
      ],
      "name": "Withdrawal",
      "type": "event"
    },
    {
      "inputs": [
        {
          "internalType": "uint256",
          "name": "",
          "type": "uint256"
        }
      ],
      "name": "expenses",
      "outputs": [
        {
          "internalType": "string",
          "name": "name",
          "type": "string"
        },
        {
          "internalType": "uint256",
          "name": "amount",
          "type": "uint256"
        },
        {
          "internalType": "uint256",
          "name": "valueDate",
          "type": "uint256"
        },
        {
          "internalType": "uint256",
          "name": "creationDate",
          "type": "uint256"
        },
        {
          "internalType": "address",
          "name": "payer",
          "type": "address"
        }
      ],
      "stateMutability": "view",
      "type": "function",
      "constant": true
    },
    {
      "inputs": [],
      "name": "isContractInstanceCreated",
      "outputs": [
        {
          "internalType": "bool",
          "name": "",
          "type": "bool"
        }
      ],
      "stateMutability": "view",
      "type": "function",
      "constant": true
    },
    {
      "inputs": [
        {
          "internalType": "uint256",
          "name": "",
          "type": "uint256"
        }
      ],
      "name": "memberAddresses",
      "outputs": [
        {
          "internalType": "address",
          "name": "",
          "type": "address"
        }
      ],
      "stateMutability": "view",
      "type": "function",
      "constant": true
    },
    {
      "inputs": [
        {
          "internalType": "address",
          "name": "",
          "type": "address"
        }
      ],
      "name": "members",
      "outputs": [
        {
          "internalType": "uint256",
          "name": "identifier",
          "type": "uint256"
        },
        {
          "internalType": "string",
          "name": "name",
          "type": "string"
        },
        {
          "internalType": "address",
          "name": "memberAddress",
          "type": "address"
        },
        {
          "internalType": "int256",
          "name": "balance",
          "type": "int256"
        }
      ],
      "stateMutability": "view",
      "type": "function",
      "constant": true
    },
    {
      "inputs": [],
      "name": "numExpenses",
      "outputs": [
        {
          "internalType": "uint256",
          "name": "",
          "type": "uint256"
        }
      ],
      "stateMutability": "view",
      "type": "function",
      "constant": true
    },
    {
      "inputs": [],
      "name": "paused",
      "outputs": [
        {
          "internalType": "bool",
          "name": "",
          "type": "bool"
        }
      ],
      "stateMutability": "view",
      "type": "function",
      "constant": true
    },
    {
      "inputs": [
        {
          "internalType": "uint256",
          "name": "",
          "type": "uint256"
        }
      ],
      "name": "payments",
      "outputs": [
        {
          "internalType": "string",
          "name": "title",
          "type": "string"
        },
        {
          "internalType": "uint256",
          "name": "amount",
          "type": "uint256"
        },
        {
          "internalType": "uint256",
          "name": "valueDate",
          "type": "uint256"
        },
        {
          "internalType": "address",
          "name": "payer",
          "type": "address"
        },
        {
          "internalType": "address",
          "name": "payee",
          "type": "address"
        }
      ],
      "stateMutability": "view",
      "type": "function",
      "constant": true
    },
    {
      "inputs": [],
      "name": "title",
      "outputs": [
        {
          "internalType": "string",
          "name": "",
          "type": "string"
        }
      ],
      "stateMutability": "view",
      "type": "function",
      "constant": true
    },
    {
      "inputs": [
        {
          "internalType": "address",
          "name": "",
          "type": "address"
        }
      ],
      "name": "withdrawals",
      "outputs": [
        {
          "internalType": "uint256",
          "name": "",
          "type": "uint256"
        }
      ],
      "stateMutability": "view",
      "type": "function",
      "constant": true
    },
    {
      "inputs": [
        {
          "internalType": "string",
          "name": "_name",
          "type": "string"
        },
        {
          "internalType": "address",
          "name": "_memberAddress",
          "type": "address"
        }
      ],
      "name": "addMember",
      "outputs": [],
      "stateMutability": "nonpayable",
      "type": "function"
    },
    {
      "inputs": [
        {
          "internalType": "string",
          "name": "_title",
          "type": "string"
        },
        {
          "internalType": "uint256",
          "name": "_amount",
          "type": "uint256"
        },
        {
          "internalType": "uint256",
          "name": "_valueDate",
          "type": "uint256"
        },
        {
          "internalType": "address[]",
          "name": "_payees",
          "type": "address[]"
        }
      ],
      "name": "addExpense",
      "outputs": [],
      "stateMutability": "nonpayable",
      "type": "function"
    },
    {
      "inputs": [
        {
          "internalType": "uint256",
          "name": "_expenseId",
          "type": "uint256"
        },
        {
          "internalType": "bool",
          "name": "_approved",
          "type": "bool"
        }
      ],
      "name": "approve",
      "outputs": [],
      "stateMutability": "nonpayable",
      "type": "function"
    },
    {
      "inputs": [
        {
          "internalType": "string",
          "name": "_title",
          "type": "string"
        },
        {
          "internalType": "address",
          "name": "_payee",
          "type": "address"
        }
      ],
      "name": "addPayment",
      "outputs": [],
      "stateMutability": "payable",
      "type": "function",
      "payable": true
    },
    {
      "inputs": [],
      "name": "withdraw",
      "outputs": [],
      "stateMutability": "nonpayable",
      "type": "function"
    },
    {
      "inputs": [],
      "name": "getMaxBalance",
      "outputs": [
        {
          "internalType": "int256",
          "name": "",
          "type": "int256"
        },
        {
          "internalType": "uint256",
          "name": "",
          "type": "uint256"
        }
      ],
      "stateMutability": "view",
      "type": "function",
      "constant": true
    },
    {
      "inputs": [
        {
          "internalType": "address",
          "name": "_memberAddress",
          "type": "address"
        }
      ],
      "name": "getWithdrawal",
      "outputs": [
        {
          "internalType": "uint256",
          "name": "",
          "type": "uint256"
        }
      ],
      "stateMutability": "view",
      "type": "function",
      "constant": true
    },
    {
      "inputs": [
        {
          "internalType": "uint256",
          "name": "_expenseId",
          "type": "uint256"
        },
        {
          "internalType": "address",
          "name": "_memberAddress",
          "type": "address"
        }
      ],
      "name": "getApproval",
      "outputs": [
        {
          "internalType": "bool",
          "name": "",
          "type": "bool"
        }
      ],
      "stateMutability": "view",
      "type": "function",
      "constant": true
    },
    {
      "inputs": [
        {
          "internalType": "uint256",
          "name": "_expenseId",
          "type": "uint256"
        }
      ],
      "name": "getNumberOfApprovals",
      "outputs": [
        {
          "internalType": "uint256",
          "name": "",
          "type": "uint256"
        }
      ],
      "stateMutability": "view",
      "type": "function",
      "constant": true
    },
    {
      "inputs": [
        {
          "internalType": "address",
          "name": "_memberAddress",
          "type": "address"
        }
      ],
      "name": "getBalance",
      "outputs": [
        {
          "internalType": "int256",
          "name": "",
          "type": "int256"
        }
      ],
      "stateMutability": "view",
      "type": "function",
      "constant": true
    },
    {
      "inputs": [
        {
          "internalType": "address",
          "name": "_memberAddress",
          "type": "address"
        }
      ],
      "name": "getMemberName",
      "outputs": [
        {
          "internalType": "string",
          "name": "",
          "type": "string"
        }
      ],
      "stateMutability": "view",
      "type": "function",
      "constant": true
    }
  ],
  "bytecode": "0x60806040526000600460006101000a81548160ff0219169083151502179055503480156200002c57600080fd5b50604051620036973803806200369783398181016040528101906200005291906200072a565b60008060006101000a81548160ff0219169083151502179055506200007e8284620000bb60201b60201c565b80600190805190602001906200009692919062000478565b506001600460006101000a81548160ff02191690831515021790555050505062000920565b600260003373ffffffffffffffffffffffffffffffffffffffff1673ffffffffffffffffffffffffffffffffffffffff16815260200190815260200160002060020160009054906101000a900473ffffffffffffffffffffffffffffffffffffffff1673ffffffffffffffffffffffffffffffffffffffff163373ffffffffffffffffffffffffffffffffffffffff161480620001655750600460009054906101000a900460ff16155b6200016f57600080fd5b6200017f6200046260201b60201c565b15620001c2576040517f08c379a0000000000000000000000000000000000000000000000000000000008152600401620001b99062000825565b60405180910390fd5b600260008273ffffffffffffffffffffffffffffffffffffffff1673ffffffffffffffffffffffffffffffffffffffff16815260200190815260200160002060020160009054906101000a900473ffffffffffffffffffffffffffffffffffffffff1673ffffffffffffffffffffffffffffffffffffffff168173ffffffffffffffffffffffffffffffffffffffff161415806200026d5750600460009054906101000a900460ff16155b6200027757600080fd5b600073ffffffffffffffffffffffffffffffffffffffff168173ffffffffffffffffffffffffffffffffffffffff161415620002b257600080fd5b60006040518060800160405280600081526020018481526020018373ffffffffffffffffffffffffffffffffffffffff168152602001600081525090506003829080600181540180825580915050600190039060005260206000200160009091909190916101000a81548173ffffffffffffffffffffffffffffffffffffffff021916908373ffffffffffffffffffffffffffffffffffffffff160217905550600160038054905062000366919062000880565b81600001818152505080600260008473ffffffffffffffffffffffffffffffffffffffff1673ffffffffffffffffffffffffffffffffffffffff168152602001908152602001600020600082015181600001556020820151816001019080519060200190620003d792919062000478565b5060408201518160020160006101000a81548173ffffffffffffffffffffffffffffffffffffffff021916908373ffffffffffffffffffffffffffffffffffffffff1602179055506060820151816003015590505080600001517f663edc42a721f7c73209441ed31f141cef6912283c680024547d950559c5559160405160405180910390a2505050565b60008060009054906101000a900460ff16905090565b8280546200048690620008ea565b90600052602060002090601f016020900481019282620004aa5760008555620004f6565b82601f10620004c557805160ff1916838001178555620004f6565b82800160010185558215620004f6579182015b82811115620004f5578251825591602001919060010190620004d8565b5b50905062000505919062000509565b5090565b5b80821115620005245760008160009055506001016200050a565b5090565b6000604051905090565b600080fd5b600080fd5b600073ffffffffffffffffffffffffffffffffffffffff82169050919050565b600062000569826200053c565b9050919050565b6200057b816200055c565b81146200058757600080fd5b50565b6000815190506200059b8162000570565b92915050565b600080fd5b600080fd5b6000601f19601f8301169050919050565b7f4e487b7100000000000000000000000000000000000000000000000000000000600052604160045260246000fd5b620005f682620005ab565b810181811067ffffffffffffffff82111715620006185762000617620005bc565b5b80604052505050565b60006200062d62000528565b90506200063b8282620005eb565b919050565b600067ffffffffffffffff8211156200065e576200065d620005bc565b5b6200066982620005ab565b9050602081019050919050565b60005b838110156200069657808201518184015260208101905062000679565b83811115620006a6576000848401525b50505050565b6000620006c3620006bd8462000640565b62000621565b905082815260208101848484011115620006e257620006e1620005a6565b5b620006ef84828562000676565b509392505050565b600082601f8301126200070f576200070e620005a1565b5b815162000721848260208601620006ac565b91505092915050565b60008060006060848603121562000746576200074562000532565b5b600062000756868287016200058a565b935050602084015167ffffffffffffffff8111156200077a576200077962000537565b5b6200078886828701620006f7565b925050604084015167ffffffffffffffff811115620007ac57620007ab62000537565b5b620007ba86828701620006f7565b9150509250925092565b600082825260208201905092915050565b7f5061757361626c653a2070617573656400000000000000000000000000000000600082015250565b60006200080d601083620007c4565b91506200081a82620007d5565b602082019050919050565b600060208201905081810360008301526200084081620007fe565b9050919050565b6000819050919050565b7f4e487b7100000000000000000000000000000000000000000000000000000000600052601160045260246000fd5b60006200088d8262000847565b91506200089a8362000847565b925082821015620008b057620008af62000851565b5b828203905092915050565b7f4e487b7100000000000000000000000000000000000000000000000000000000600052602260045260246000fd5b600060028204905060018216806200090357607f821691505b602082108114156200091a5762000919620008bb565b5b50919050565b612d6780620009306000396000f3fe60806040526004361061011f5760003560e01c80638f081ece116100a0578063bc35008811610064578063bc35008814610418578063c3e1888e14610434578063cc4e629914610460578063f8b2cb4f1461049d578063ff419aa2146104da5761011f565b80638f081ece1461030957806399f62bab14610334578063af4afe0a14610371578063aff4b849146103b2578063b4d95e71146103ef5761011f565b80635b8f3d14116100e75780635b8f3d141461020c5780635c975abb14610237578063747442d3146102625780637a9262a21461028b57806387d81789146102c85761011f565b806308ae4b0c1461012457806328c84793146101645780633ccfd60b146101a157806345e39705146101b85780634a79d50c146101e1575b600080fd5b34801561013057600080fd5b5061014b6004803603810190610146919061221d565b610517565b60405161015b9493929190612324565b60405180910390f35b34801561017057600080fd5b5061018b6004803603810190610186919061239c565b6105ef565b60405161019891906123f7565b60405180910390f35b3480156101ad57600080fd5b506101b661065a565b005b3480156101c457600080fd5b506101df60048036038101906101da9190612547565b6108a9565b005b3480156101ed57600080fd5b506101f6610c3c565b60405161020391906125a3565b60405180910390f35b34801561021857600080fd5b50610221610cca565b60405161022e91906123f7565b60405180910390f35b34801561024357600080fd5b5061024c610cdd565b60405161025991906123f7565b60405180910390f35b34801561026e57600080fd5b50610289600480360381019061028491906125f1565b610cf3565b005b34801561029757600080fd5b506102b260048036038101906102ad919061221d565b610f57565b6040516102bf9190612631565b60405180910390f35b3480156102d457600080fd5b506102ef60048036038101906102ea919061264c565b610f6f565b604051610300959493929190612679565b60405180910390f35b34801561031557600080fd5b5061031e61107d565b60405161032b9190612631565b60405180910390f35b34801561034057600080fd5b5061035b6004803603810190610356919061221d565b611083565b6040516103689190612631565b60405180910390f35b34801561037d57600080fd5b506103986004803603810190610393919061264c565b6110cc565b6040516103a99594939291906126d3565b60405180910390f35b3480156103be57600080fd5b506103d960048036038101906103d4919061221d565b6111aa565b6040516103e691906125a3565b60405180910390f35b3480156103fb57600080fd5b50610416600480360381019061041191906127f5565b61127e565b005b610432600480360381019061042d9190612547565b6114bb565b005b34801561044057600080fd5b5061044961180b565b604051610457929190612894565b60405180910390f35b34801561046c57600080fd5b506104876004803603810190610482919061264c565b6119e0565b60405161049491906128bd565b60405180910390f35b3480156104a957600080fd5b506104c460048036038101906104bf919061221d565b611a1f565b6040516104d191906128d8565b60405180910390f35b3480156104e657600080fd5b5061050160048036038101906104fc919061264c565b611a6b565b60405161050e9190612631565b60405180910390f35b600260205280600052604060002060009150905080600001549080600101805461054090612922565b80601f016020809104026020016040519081016040528092919081815260200182805461056c90612922565b80156105b95780601f1061058e576101008083540402835291602001916105b9565b820191906000526020600020905b81548152906001019060200180831161059c57829003601f168201915b5050505050908060020160009054906101000a900473ffffffffffffffffffffffffffffffffffffffff16908060030154905084565b60006006600084815260200190815260200160002060060160008373ffffffffffffffffffffffffffffffffffffffff1673ffffffffffffffffffffffffffffffffffffffff16815260200190815260200160002060009054906101000a900460ff16905092915050565b600260003373ffffffffffffffffffffffffffffffffffffffff1673ffffffffffffffffffffffffffffffffffffffff16815260200190815260200160002060020160009054906101000a900473ffffffffffffffffffffffffffffffffffffffff1673ffffffffffffffffffffffffffffffffffffffff163373ffffffffffffffffffffffffffffffffffffffff1614806107035750600460009054906101000a900460ff16155b61070c57600080fd5b6000600860003373ffffffffffffffffffffffffffffffffffffffff1673ffffffffffffffffffffffffffffffffffffffff168152602001908152602001600020541161075857600080fd5b6000600860003373ffffffffffffffffffffffffffffffffffffffff1673ffffffffffffffffffffffffffffffffffffffff1681526020019081526020016000205490506000600860003373ffffffffffffffffffffffffffffffffffffffff1673ffffffffffffffffffffffffffffffffffffffff1681526020019081526020016000208190555060003373ffffffffffffffffffffffffffffffffffffffff168260405161080790612985565b60006040518083038185875af1925050503d8060008114610844576040519150601f19603f3d011682016040523d82523d6000602084013e610849565b606091505b505090508061085757600080fd5b3373ffffffffffffffffffffffffffffffffffffffff167f7fcf532c15f0a6db0bd6d0e038bea71d30d808c7d98cb3bf7268a95bf5081b658360405161089d9190612631565b60405180910390a25050565b600260003373ffffffffffffffffffffffffffffffffffffffff1673ffffffffffffffffffffffffffffffffffffffff16815260200190815260200160002060020160009054906101000a900473ffffffffffffffffffffffffffffffffffffffff1673ffffffffffffffffffffffffffffffffffffffff163373ffffffffffffffffffffffffffffffffffffffff1614806109525750600460009054906101000a900460ff16155b61095b57600080fd5b610963610cdd565b156109a3576040517f08c379a000000000000000000000000000000000000000000000000000000000815260040161099a906129e6565b60405180910390fd5b600260008273ffffffffffffffffffffffffffffffffffffffff1673ffffffffffffffffffffffffffffffffffffffff16815260200190815260200160002060020160009054906101000a900473ffffffffffffffffffffffffffffffffffffffff1673ffffffffffffffffffffffffffffffffffffffff168173ffffffffffffffffffffffffffffffffffffffff16141580610a4d5750600460009054906101000a900460ff16155b610a5657600080fd5b600073ffffffffffffffffffffffffffffffffffffffff168173ffffffffffffffffffffffffffffffffffffffff161415610a9057600080fd5b60006040518060800160405280600081526020018481526020018373ffffffffffffffffffffffffffffffffffffffff168152602001600081525090506003829080600181540180825580915050600190039060005260206000200160009091909190916101000a81548173ffffffffffffffffffffffffffffffffffffffff021916908373ffffffffffffffffffffffffffffffffffffffff1602179055506001600380549050610b429190612a35565b81600001818152505080600260008473ffffffffffffffffffffffffffffffffffffffff1673ffffffffffffffffffffffffffffffffffffffff168152602001908152602001600020600082015181600001556020820151816001019080519060200190610bb192919061207e565b5060408201518160020160006101000a81548173ffffffffffffffffffffffffffffffffffffffff021916908373ffffffffffffffffffffffffffffffffffffffff1602179055506060820151816003015590505080600001517f663edc42a721f7c73209441ed31f141cef6912283c680024547d950559c5559160405160405180910390a2505050565b60018054610c4990612922565b80601f0160208091040260200160405190810160405280929190818152602001828054610c7590612922565b8015610cc25780601f10610c9757610100808354040283529160200191610cc2565b820191906000526020600020905b815481529060010190602001808311610ca557829003601f168201915b505050505081565b600460009054906101000a900460ff1681565b60008060009054906101000a900460ff16905090565b600260003373ffffffffffffffffffffffffffffffffffffffff1673ffffffffffffffffffffffffffffffffffffffff16815260200190815260200160002060020160009054906101000a900473ffffffffffffffffffffffffffffffffffffffff1673ffffffffffffffffffffffffffffffffffffffff163373ffffffffffffffffffffffffffffffffffffffff161480610d9c5750600460009054906101000a900460ff16155b610da557600080fd5b610dad610cdd565b15610ded576040517f08c379a0000000000000000000000000000000000000000000000000000000008152600401610de4906129e6565b60405180910390fd5b60006006600084815260200190815260200160002090506224ea008160030154610e179190612a69565b4210610e2257600080fd5b8115158160060160003373ffffffffffffffffffffffffffffffffffffffff1673ffffffffffffffffffffffffffffffffffffffff16815260200190815260200160002060009054906101000a900460ff1615151415610e8157600080fd5b6000610e8c84611a6b565b905060008114610ea057610e9f84611b5e565b5b828260060160003373ffffffffffffffffffffffffffffffffffffffff1673ffffffffffffffffffffffffffffffffffffffff16815260200190815260200160002060006101000a81548160ff0219169083151502179055506000610f0485611a6b565b905060008114610f1857610f1785611b6c565b5b847f23c19de93ce378d27f3b34f74ae236838987d9179c902bca3cdc3bb93bd7314485604051610f4891906123f7565b60405180910390a25050505050565b60086020528060005260406000206000915090505481565b60078181548110610f7f57600080fd5b9060005260206000209060050201600091509050806000018054610fa290612922565b80601f0160208091040260200160405190810160405280929190818152602001828054610fce90612922565b801561101b5780601f10610ff05761010080835404028352916020019161101b565b820191906000526020600020905b815481529060010190602001808311610ffe57829003601f168201915b5050505050908060010154908060020154908060030160009054906101000a900473ffffffffffffffffffffffffffffffffffffffff16908060040160009054906101000a900473ffffffffffffffffffffffffffffffffffffffff16905085565b60055481565b6000600860008373ffffffffffffffffffffffffffffffffffffffff1673ffffffffffffffffffffffffffffffffffffffff168152602001908152602001600020549050919050565b60066020528060005260406000206000915090508060000180546110ef90612922565b80601f016020809104026020016040519081016040528092919081815260200182805461111b90612922565b80156111685780601f1061113d57610100808354040283529160200191611168565b820191906000526020600020905b81548152906001019060200180831161114b57829003601f168201915b5050505050908060010154908060020154908060030154908060040160009054906101000a900473ffffffffffffffffffffffffffffffffffffffff16905085565b6060600260008373ffffffffffffffffffffffffffffffffffffffff1673ffffffffffffffffffffffffffffffffffffffff16815260200190815260200160002060010180546111f990612922565b80601f016020809104026020016040519081016040528092919081815260200182805461122590612922565b80156112725780601f1061124757610100808354040283529160200191611272565b820191906000526020600020905b81548152906001019060200180831161125557829003601f168201915b50505050509050919050565b600260003373ffffffffffffffffffffffffffffffffffffffff1673ffffffffffffffffffffffffffffffffffffffff16815260200190815260200160002060020160009054906101000a900473ffffffffffffffffffffffffffffffffffffffff1673ffffffffffffffffffffffffffffffffffffffff163373ffffffffffffffffffffffffffffffffffffffff1614806113275750600460009054906101000a900460ff16155b61133057600080fd5b611338610cdd565b15611378576040517f08c379a000000000000000000000000000000000000000000000000000000000815260040161136f906129e6565b60405180910390fd5b6000831161138557600080fd5b6000815111801561139b5750601460ff16815111155b6113a457600080fd5b6113ad81611b7a565b6113b657600080fd5b6113bf81611bda565b6113c857600080fd5b600060066000600560008154809291906113e190612abf565b91905055815260200190815260200160002090508481600001908051906020019061140d92919061207e565b50838160010181905550828160020181905550338160040160006101000a81548173ffffffffffffffffffffffffffffffffffffffff021916908373ffffffffffffffffffffffffffffffffffffffff16021790555042816003018190555081816005019080519060200190611484929190612104565b506005547f0196a834ab6362d8b08696adb04296039cef5ac7132808904aa83f47bf7f4e5e60405160405180910390a25050505050565b600260003373ffffffffffffffffffffffffffffffffffffffff1673ffffffffffffffffffffffffffffffffffffffff16815260200190815260200160002060020160009054906101000a900473ffffffffffffffffffffffffffffffffffffffff1673ffffffffffffffffffffffffffffffffffffffff163373ffffffffffffffffffffffffffffffffffffffff1614806115645750600460009054906101000a900460ff16155b61156d57600080fd5b611575610cdd565b156115b5576040517f08c379a00000000000000000000000000000000000000000000000000000000081526004016115ac906129e6565b60405180910390fd5b6000339050600034116115c757600080fd5b8073ffffffffffffffffffffffffffffffffffffffff168273ffffffffffffffffffffffffffffffffffffffff16141561160057600080fd5b61160982611cbf565b61161257600080fd5b60006040518060a001604052808581526020013481526020014281526020018373ffffffffffffffffffffffffffffffffffffffff1681526020018473ffffffffffffffffffffffffffffffffffffffff168152509050600781908060018154018082558091505060019003906000526020600020906005020160009091909190915060008201518160000190805190602001906116b192919061207e565b50602082015181600101556040820151816002015560608201518160030160006101000a81548173ffffffffffffffffffffffffffffffffffffffff021916908373ffffffffffffffffffffffffffffffffffffffff16021790555060808201518160040160006101000a81548173ffffffffffffffffffffffffffffffffffffffff021916908373ffffffffffffffffffffffffffffffffffffffff160217905550505034600860008573ffffffffffffffffffffffffffffffffffffffff1673ffffffffffffffffffffffffffffffffffffffff16815260200190815260200160002060008282546117a59190612a69565b925050819055506117b581611d59565b8173ffffffffffffffffffffffffffffffffffffffff167f9d1bcf0ff0f343cd9c63d8f1eb8a81b7884dc4151cb4eb64d0281f7ecd69754884346040516117fd929190612b08565b60405180910390a250505050565b600080600060026000600360008154811061182957611828612b31565b5b9060005260206000200160009054906101000a900473ffffffffffffffffffffffffffffffffffffffff1673ffffffffffffffffffffffffffffffffffffffff1673ffffffffffffffffffffffffffffffffffffffff168152602001908152602001600020600301549050600080600190505b6003805490508110156119d3576119338360026000600385815481106118c5576118c4612b31565b5b9060005260206000200160009054906101000a900473ffffffffffffffffffffffffffffffffffffffff1673ffffffffffffffffffffffffffffffffffffffff1673ffffffffffffffffffffffffffffffffffffffff16815260200190815260200160002060030154611e1e565b83146119c057600260006003838154811061195157611950612b31565b5b9060005260206000200160009054906101000a900473ffffffffffffffffffffffffffffffffffffffff1673ffffffffffffffffffffffffffffffffffffffff1673ffffffffffffffffffffffffffffffffffffffff1681526020019081526020016000206003015492508091505b80806119cb90612abf565b91505061189c565b5081819350935050509091565b600381815481106119f057600080fd5b906000526020600020016000915054906101000a900473ffffffffffffffffffffffffffffffffffffffff1681565b6000600260008373ffffffffffffffffffffffffffffffffffffffff1673ffffffffffffffffffffffffffffffffffffffff168152602001908152602001600020600301549050919050565b6000806006600084815260200190815260200160002090506000805b8260050180549050811015611b535760011515836006016000856005018481548110611ab657611ab5612b31565b5b9060005260206000200160009054906101000a900473ffffffffffffffffffffffffffffffffffffffff1673ffffffffffffffffffffffffffffffffffffffff1673ffffffffffffffffffffffffffffffffffffffff16815260200190815260200160002060009054906101000a900460ff1615151415611b40578180611b3c90612abf565b9250505b8080611b4b90612abf565b915050611a87565b508092505050919050565b611b69816001611e38565b50565b611b77816000611e38565b50565b600080600090505b8251811015611bcf57611bae838281518110611ba157611ba0612b31565b5b6020026020010151611cbf565b611bbc576000915050611bd5565b8080611bc790612abf565b915050611b82565b50600190505b919050565b60008060005b8351811015611cb357600091506000848281518110611c0257611c01612b31565b5b6020026020010151905060005b8551811015611c9e57858181518110611c2b57611c2a612b31565b5b602002602001015173ffffffffffffffffffffffffffffffffffffffff168273ffffffffffffffffffffffffffffffffffffffff161415611c75578380611c7190612abf565b9450505b6002841415611c8b576000945050505050611cba565b8080611c9690612abf565b915050611c0f565b50508080611cab90612abf565b915050611be0565b5060019150505b919050565b6000600260008373ffffffffffffffffffffffffffffffffffffffff1673ffffffffffffffffffffffffffffffffffffffff16815260200190815260200160002060020160009054906101000a900473ffffffffffffffffffffffffffffffffffffffff1673ffffffffffffffffffffffffffffffffffffffff168273ffffffffffffffffffffffffffffffffffffffff16149050919050565b806020015160026000836080015173ffffffffffffffffffffffffffffffffffffffff1673ffffffffffffffffffffffffffffffffffffffff1681526020019081526020016000206003016000828254611db39190612b60565b92505081905550806020015160026000836060015173ffffffffffffffffffffffffffffffffffffffff1673ffffffffffffffffffffffffffffffffffffffff1681526020019081526020016000206003016000828254611e149190612bf4565b9250508190555050565b600081831215611e2e5781611e30565b825b905092915050565b6000611e4383611a6b565b905060008111611e5257600080fd5b60006006600085815260200190815260200160002090506000828260010154611e7b9190612cb7565b90506000826001015490508415611ea55781611e9690612ce8565b915080611ea290612ce8565b90505b80600260008560040160009054906101000a900473ffffffffffffffffffffffffffffffffffffffff1673ffffffffffffffffffffffffffffffffffffffff1673ffffffffffffffffffffffffffffffffffffffff1681526020019081526020016000206003016000828254611f1b9190612bf4565b9250508190555060005b836005018054905081101561207557836006016000856005018381548110611f5057611f4f612b31565b5b9060005260206000200160009054906101000a900473ffffffffffffffffffffffffffffffffffffffff1673ffffffffffffffffffffffffffffffffffffffff1673ffffffffffffffffffffffffffffffffffffffff16815260200190815260200160002060009054906101000a900460ff1615612062578260026000866005018481548110611fe357611fe2612b31565b5b9060005260206000200160009054906101000a900473ffffffffffffffffffffffffffffffffffffffff1673ffffffffffffffffffffffffffffffffffffffff1673ffffffffffffffffffffffffffffffffffffffff168152602001908152602001600020600301600082825461205a9190612b60565b925050819055505b808061206d90612abf565b915050611f25565b50505050505050565b82805461208a90612922565b90600052602060002090601f0160209004810192826120ac57600085556120f3565b82601f106120c557805160ff19168380011785556120f3565b828001600101855582156120f3579182015b828111156120f25782518255916020019190600101906120d7565b5b509050612100919061218e565b5090565b82805482825590600052602060002090810192821561217d579160200282015b8281111561217c5782518260006101000a81548173ffffffffffffffffffffffffffffffffffffffff021916908373ffffffffffffffffffffffffffffffffffffffff16021790555091602001919060010190612124565b5b50905061218a919061218e565b5090565b5b808211156121a757600081600090555060010161218f565b5090565b6000604051905090565b600080fd5b600080fd5b600073ffffffffffffffffffffffffffffffffffffffff82169050919050565b60006121ea826121bf565b9050919050565b6121fa816121df565b811461220557600080fd5b50565b600081359050612217816121f1565b92915050565b600060208284031215612233576122326121b5565b5b600061224184828501612208565b91505092915050565b6000819050919050565b61225d8161224a565b82525050565b600081519050919050565b600082825260208201905092915050565b60005b8381101561229d578082015181840152602081019050612282565b838111156122ac576000848401525b50505050565b6000601f19601f8301169050919050565b60006122ce82612263565b6122d8818561226e565b93506122e881856020860161227f565b6122f1816122b2565b840191505092915050565b612305816121df565b82525050565b6000819050919050565b61231e8161230b565b82525050565b60006080820190506123396000830187612254565b818103602083015261234b81866122c3565b905061235a60408301856122fc565b6123676060830184612315565b95945050505050565b6123798161224a565b811461238457600080fd5b50565b60008135905061239681612370565b92915050565b600080604083850312156123b3576123b26121b5565b5b60006123c185828601612387565b92505060206123d285828601612208565b9150509250929050565b60008115159050919050565b6123f1816123dc565b82525050565b600060208201905061240c60008301846123e8565b92915050565b600080fd5b600080fd5b7f4e487b7100000000000000000000000000000000000000000000000000000000600052604160045260246000fd5b612454826122b2565b810181811067ffffffffffffffff821117156124735761247261241c565b5b80604052505050565b60006124866121ab565b9050612492828261244b565b919050565b600067ffffffffffffffff8211156124b2576124b161241c565b5b6124bb826122b2565b9050602081019050919050565b82818337600083830152505050565b60006124ea6124e584612497565b61247c565b90508281526020810184848401111561250657612505612417565b5b6125118482856124c8565b509392505050565b600082601f83011261252e5761252d612412565b5b813561253e8482602086016124d7565b91505092915050565b6000806040838503121561255e5761255d6121b5565b5b600083013567ffffffffffffffff81111561257c5761257b6121ba565b5b61258885828601612519565b925050602061259985828601612208565b9150509250929050565b600060208201905081810360008301526125bd81846122c3565b905092915050565b6125ce816123dc565b81146125d957600080fd5b50565b6000813590506125eb816125c5565b92915050565b60008060408385031215612608576126076121b5565b5b600061261685828601612387565b9250506020612627858286016125dc565b9150509250929050565b60006020820190506126466000830184612254565b92915050565b600060208284031215612662576126616121b5565b5b600061267084828501612387565b91505092915050565b600060a082019050818103600083015261269381886122c3565b90506126a26020830187612254565b6126af6040830186612254565b6126bc60608301856122fc565b6126c960808301846122fc565b9695505050505050565b600060a08201905081810360008301526126ed81886122c3565b90506126fc6020830187612254565b6127096040830186612254565b6127166060830185612254565b61272360808301846122fc565b9695505050505050565b600067ffffffffffffffff8211156127485761274761241c565b5b602082029050602081019050919050565b600080fd5b600061277161276c8461272d565b61247c565b9050808382526020820190506020840283018581111561279457612793612759565b5b835b818110156127bd57806127a98882612208565b845260208401935050602081019050612796565b5050509392505050565b600082601f8301126127dc576127db612412565b5b81356127ec84826020860161275e565b91505092915050565b6000806000806080858703121561280f5761280e6121b5565b5b600085013567ffffffffffffffff81111561282d5761282c6121ba565b5b61283987828801612519565b945050602061284a87828801612387565b935050604061285b87828801612387565b925050606085013567ffffffffffffffff81111561287c5761287b6121ba565b5b612888878288016127c7565b91505092959194509250565b60006040820190506128a96000830185612315565b6128b66020830184612254565b9392505050565b60006020820190506128d260008301846122fc565b92915050565b60006020820190506128ed6000830184612315565b92915050565b7f4e487b7100000000000000000000000000000000000000000000000000000000600052602260045260246000fd5b6000600282049050600182168061293a57607f821691505b6020821081141561294e5761294d6128f3565b5b50919050565b600081905092915050565b50565b600061296f600083612954565b915061297a8261295f565b600082019050919050565b600061299082612962565b9150819050919050565b7f5061757361626c653a2070617573656400000000000000000000000000000000600082015250565b60006129d060108361226e565b91506129db8261299a565b602082019050919050565b600060208201905081810360008301526129ff816129c3565b9050919050565b7f4e487b7100000000000000000000000000000000000000000000000000000000600052601160045260246000fd5b6000612a408261224a565b9150612a4b8361224a565b925082821015612a5e57612a5d612a06565b5b828203905092915050565b6000612a748261224a565b9150612a7f8361224a565b9250827fffffffffffffffffffffffffffffffffffffffffffffffffffffffffffffffff03821115612ab457612ab3612a06565b5b828201905092915050565b6000612aca8261224a565b91507fffffffffffffffffffffffffffffffffffffffffffffffffffffffffffffffff821415612afd57612afc612a06565b5b600182019050919050565b6000604082019050612b1d60008301856122fc565b612b2a6020830184612254565b9392505050565b7f4e487b7100000000000000000000000000000000000000000000000000000000600052603260045260246000fd5b6000612b6b8261230b565b9150612b768361230b565b9250827f800000000000000000000000000000000000000000000000000000000000000001821260008412151615612bb157612bb0612a06565b5b827f7fffffffffffffffffffffffffffffffffffffffffffffffffffffffffffffff018213600084121615612be957612be8612a06565b5b828203905092915050565b6000612bff8261230b565b9150612c0a8361230b565b9250817f7fffffffffffffffffffffffffffffffffffffffffffffffffffffffffffffff03831360008312151615612c4557612c44612a06565b5b817f8000000000000000000000000000000000000000000000000000000000000000038312600083121615612c7d57612c7c612a06565b5b828201905092915050565b7f4e487b7100000000000000000000000000000000000000000000000000000000600052601260045260246000fd5b6000612cc28261224a565b9150612ccd8361224a565b925082612cdd57612cdc612c88565b5b828204905092915050565b6000612cf38261230b565b91507f8000000000000000000000000000000000000000000000000000000000000000821415612d2657612d25612a06565b5b81600003905091905056fea2646970667358221220b68725e5a340b65619ae3cba926df32b0af294effb91c8dd9324db31009d0d0864736f6c63430008090033",
  "immutableReferences": {},
  "source": "// SPDX-License-Identifier: MIT\npragma solidity ^0.8.0;\nimport \"@openzeppelin/contracts/security/Pausable.sol\";\n\n/// @title ExpenseGroup smart contract allows to share and settle a group of expenses and track debts and credits.\n/// @author Andrs Buenestado\ncontract ExpenseGroup is Pausable {\n    \n    /**\n    Max number of payees for a expense (Restriction to avoid high gas costs)\n    */\n    uint8 constant MAX_PAYEES = 20;\n\n    /**\n    Member is a person or company which is part of current expense group.\n     */\n    struct Member {\n        uint256 identifier;\n        string name;\n        address memberAddress;\n        int256 balance;\n    }\n\n    /**\n    Expense is a cost incurred which needs to be paid back.\n    It has an impact on the balance for payer / payees only when a payee gives its approval.\n     */\n    struct Expense {\n        string name;\n        uint256 amount;\n        uint256 valueDate;\n        uint256 creationDate;\n        address payer;\n        address[] payees;\n        mapping(address => bool) approvals;\n    }\n\n    /**\n    Payment is money transfer from one member to another.\n    It can be use to settle a debt or a credit.\n     */\n    struct Payment {\n        string title;\n        uint256 amount;\n        uint256 valueDate;\n        address payer;\n        address payee;\n    }\n\n    string public title;\n\n    /// Users of current expense group\n    mapping(address => Member) public members;\n\n    // Addresses of all the members\n    address[] public memberAddresses;\n\n    /// Allow the creation of the first member when the contract instance is created.\n    bool public isContractInstanceCreated = false;\n\n    /// A mapping of expense identifier and expense.\n    uint256 public numExpenses;\n    mapping(uint256 => Expense) public expenses;\n\n    Payment[] public payments;\n\n    /// A mapping of all the available withdrawals per address.\n    mapping(address => uint256) public withdrawals;\n\n    /// Restricted to a member (or first constant instantiation)\n    modifier onlyMember() {\n        require(\n            msg.sender == members[msg.sender].memberAddress ||\n                !isContractInstanceCreated\n        );\n        _;\n    }\n\n    /// @notice Constructor. The creator of the smart contract will be the first member.\n    /// @param _owner address of the first member.\n    /// @param _ownerName Yhe name of the first member.\n    /// @param _title ExpenseGroup title \n    constructor(address _owner, string memory _ownerName, string memory _title) {\n        addMember(_ownerName, _owner);\n        title = _title;\n        isContractInstanceCreated = true;\n    }\n\n    /// @notice Event triggered when a new member is added\n    /// @param _memberId the identifier of the member.\n    event MemberAdded(uint256 indexed _memberId);\n\n    /// @notice Event triggered when a new expense is added\n    /// @param _expenseId the identifier of the expense.\n    event ExpenseAdded(uint256 indexed _expenseId);\n    \n    /// @notice Event triggered when an existing expense is approved\n    /// @param _expenseId the identifier of the expense.\n    /// @param _approved approval (true) or disapproval (false)\n    event ExpenseApproved(uint256 indexed _expenseId, bool _approved);\n    \n    /// @notice Event triggered when a payment is made\n    /// @param _payer payer address.\n    /// @param _payee payee address\n    /// @param _amount amount paid\n    event PaymentAdded(address indexed _payer, address _payee, uint256 _amount);\n    \n    /// @notice Event triggered when a withdrawal is made    \n    /// @param _member member address.\n    /// @param _amount withdrawn amount    \n    event Withdrawal(address indexed _member, uint256 _amount);\n\n    /// @notice Adds a member. Only registered member can add new members.\n    /// @param _name the name or alias of the member.\n    /// @param _memberAddress the address of the member.\n    function addMember(string memory _name, address _memberAddress)\n        public\n        onlyMember\n        whenNotPaused\n    {\n        require(\n            _memberAddress != members[_memberAddress].memberAddress ||\n                !isContractInstanceCreated\n        );\n\n        require(_memberAddress != address(0));\n\n        Member memory member = Member({\n            identifier: 0,\n            name: _name,\n            memberAddress: _memberAddress,\n            balance: 0\n        });\n\n        memberAddresses.push(_memberAddress);\n        member.identifier = memberAddresses.length - 1;\n        members[_memberAddress] = member;\n\n        emit MemberAdded(member.identifier);\n    }\n\n    /// @notice Add an expense as payer. By default, the payer is the creator of the expense.\n    /// @dev The number of payees are limited to a fixed number to avoid gas limit using loop.\n    /// @param _title the title of the expense.\n    /// @param _amount the amount of the expense. Must be superior to zero.\n    /// @param _valueDate the value date of the expense.\n    /// @param _payees the list of payee of the expense. The payer can be part of the payees.\n    function addExpense(\n        string memory _title,\n        uint256 _amount,\n        uint256 _valueDate,\n        address[] memory _payees\n    ) public onlyMember whenNotPaused {\n        require(_amount > 0);\n        require(_payees.length > 0 && _payees.length <= MAX_PAYEES);\n        require(_areAllMembers(_payees));\n        require(_areAllAddressesUnique(_payees));\n\n        /// NOTE: Expense contains a mapping 'approvals' and data location needs to be storage.\n        Expense storage expense = expenses[numExpenses++];\n\n        expense.name = _title;\n        expense.amount = _amount;\n        expense.valueDate = _valueDate;\n        expense.payer = msg.sender;\n        expense.creationDate = block.timestamp;\n        expense.payees = _payees;\n\n        emit ExpenseAdded(numExpenses);\n    }\n\n    /// @notice Set member's approval for an expense. Each member has 4 weeks to set its approval.\n    /// @param _expenseId the identifier of the expense.\n    /// @param _approved the approval of the member : true of false.\n    function approve(uint256 _expenseId, bool _approved)\n        public\n        onlyMember\n        whenNotPaused\n    {\n        Expense storage expense = expenses[_expenseId];\n        require(block.timestamp < expense.creationDate + 4 weeks);\n        require(expense.approvals[msg.sender] != _approved);\n\n        uint256 numberOfApprovalsBefore = getNumberOfApprovals(_expenseId);\n\n        /// If the number of approvals before the call is not 0, we revert the balance to the previous state without the expense.\n        if (numberOfApprovalsBefore != 0) {\n            _removeFromBalance(_expenseId);\n        }\n\n        /// Update the number of approvals\n        expense.approvals[msg.sender] = _approved;\n\n        uint256 numberOfApprovalsAfter = getNumberOfApprovals(_expenseId);\n\n        /// If the number of approvals after is not 0, we syncrohonize the balance.\n        if (numberOfApprovalsAfter != 0) {\n            _addToBalance(_expenseId);\n        }\n\n        emit ExpenseApproved(_expenseId, _approved);\n    }\n\n    /// @notice Create a Payment. Use this payable function send money to the smart contract.\n    /// @param _title the title of the payment\n    /// @param _payee the payee of the payment\n    function addPayment(string memory _title, address _payee)\n        public\n        payable\n        onlyMember\n        whenNotPaused\n    {\n        address _payer = msg.sender;\n        require(msg.value > 0);\n        require(_payee != _payer);\n        require(_isMember(_payee));\n\n        Payment memory payment = Payment({\n            title: _title,\n            amount: msg.value,\n            valueDate: block.timestamp,\n            payer: _payer,\n            payee: _payee\n        });\n\n        payments.push(payment);\n        withdrawals[_payee] += msg.value;\n        _synchronizeBalanceAfterPayment(payment);\n\n        emit PaymentAdded(_payer, _payee, msg.value);\n    }\n\n    /// @notice Allow each user to withdraw its money from the smart contract\n    function withdraw() public onlyMember {\n        require(withdrawals[msg.sender] > 0);\n        uint256 amount = withdrawals[msg.sender];\n        withdrawals[msg.sender] = 0;\n\n        (bool success, ) = msg.sender.call{value: amount}(\"\");\n        require(success);\n\n        emit Withdrawal(msg.sender, amount);\n    }\n\n    /// @notice Get the max of all balances.\n    /// @return (max, index) where max is the max of all the balance and index is the index of the member.\n    function getMaxBalance() public view returns (int256, uint256) {\n        int256 max = members[memberAddresses[0]].balance;\n        uint256 index = 0;\n        for (uint256 i = 1; i < memberAddresses.length; i++) {\n            if (max != _getMax(max, members[memberAddresses[i]].balance)) {\n                max = members[memberAddresses[i]].balance;\n                index = i;\n            }\n        }\n        return (max, index);\n    }\n\n    /// @notice Get withdrawal per address\n    /// @return the available withdrawal for the member address\n    function getWithdrawal(address _memberAddress)\n        public\n        view\n        returns (uint256)\n    {\n        return withdrawals[_memberAddress];\n    }\n\n    /// @notice Get approval depending on the expense identifier and address of the member.\n    /// @param _expenseId the index of the expense\n    /// @param _memberAddress address of the payee\n    /// @return true if payee gave is approval, else false\n    function getApproval(uint256 _expenseId, address _memberAddress)\n        public\n        view\n        returns (bool)\n    {\n        return expenses[_expenseId].approvals[_memberAddress];\n    }\n\n    /// @notice Get the total number of approvals for a given expense.\n    /// @param _expenseId the index of the expense\n    /// @return the number of approvals\n    function getNumberOfApprovals(uint256 _expenseId)\n        public\n        view\n        returns (uint256)\n    {\n        Expense storage expense = expenses[_expenseId];\n        uint256 numberOfApprovals = 0;\n        for (uint256 i = 0; i < expense.payees.length; i++) {\n            if (expense.approvals[expense.payees[i]] == true) {\n                numberOfApprovals++;\n            }\n        }\n        return numberOfApprovals;\n    }\n\n    /// @notice Get the balance of a member.\n    /// @param _memberAddress the address of the member\n    /// @return the balance of the member\n    function getBalance(address _memberAddress) public view returns (int256) {\n        return members[_memberAddress].balance;\n    }\n\n    /// @notice Get the name of a member.\n    /// @param _memberAddress the address of the member\n    /// @return the name of the member\n    function getMemberName(address _memberAddress)\n        public\n        view\n        returns (string memory)\n    {\n        return members[_memberAddress].name;\n    }\n\n    /// @notice Check if there is duplicate inside array.\n    /// @param _list the list of address to check\n    /// @return true if there is duplicate, false otherwise\n    function _areAllAddressesUnique(address[] memory _list)\n        internal\n        pure\n        returns (bool)\n    {\n        uint256 counter;\n        for (uint256 i = 0; i < _list.length; i++) {\n            counter = 0;\n            address addr = _list[i];\n            for (uint256 j = 0; j < _list.length; j++) {\n                if (addr == _list[j]) {\n                    counter++;\n                }\n                if (counter == 2) {\n                    return false;\n                }\n            }\n        }\n\n        return true;\n    }\n\n    /// @notice Check if each address of the list is registered as member.\n    /// @param _list the list of address to check\n    /// @return true if all the list is registred as member, false otherwise\n    function _areAllMembers(address[] memory _list)\n        internal\n        view\n        returns (bool)\n    {\n        for (uint256 i = 0; i < _list.length; i++) {\n            if (!_isMember(_list[i])) {\n                return false;\n            }\n        }\n        return true;\n    }\n\n    /// @notice Check if each address of the list is registered as amember.\n    /// @param _memberAddress the address to check\n    /// @return true if all the list is registred as member, false otherwise\n    function _isMember(address _memberAddress) internal view returns (bool) {\n        return (_memberAddress == members[_memberAddress].memberAddress);\n    }\n\n    /// @notice Add the expense amount to the balance if there is some approval\n    /// @dev This function must be use if there is at list one approval in the expense\n    /// @param expenseId the index of the expense\n    function _addToBalance(uint256 expenseId) internal {\n        _calculateBalance(expenseId, false);\n    }\n\n    /// @notice Remove the expense amount from the balance if there is no approval\n    /// @dev This function must not be use if there is zero approval\n    /// @param expenseId the index of the expense\n    function _removeFromBalance(uint256 expenseId) internal {\n        _calculateBalance(expenseId, true);\n    }\n\n    /// @notice Calculate the balance after each approval / unapproval.\n    /// @param _expenseId the index of the expense\n    /// @param _isRemoved indicate if the expense must be reverted or synchronized\n    function _calculateBalance(uint256 _expenseId, bool _isRemoved) internal {\n        uint256 contributors = getNumberOfApprovals(_expenseId);\n        require(contributors > 0);\n        Expense storage expense = expenses[_expenseId];\n        int256 _portion = int256(expense.amount / contributors);\n        int256 _amount = int256(expense.amount);\n\n        if (_isRemoved) {\n            _portion = -(_portion);\n            _amount = -(_amount);\n        }\n\n        members[expense.payer].balance += _amount;\n        for (uint256 i = 0; i < expense.payees.length; i++) {\n            if (expense.approvals[expense.payees[i]]) {\n                members[expense.payees[i]].balance -= _portion;\n            }\n        }\n    }\n\n    /// @notice Calculate the state of the balance after each new payement.\n    /// @param payment which will alter balance\n    function _synchronizeBalanceAfterPayment(Payment memory payment) internal {\n        members[payment.payee].balance -= int256(payment.amount);\n        members[payment.payer].balance += int256(payment.amount);\n    }\n\n    function _getMax(int256 a, int256 b) internal pure returns (int256) {\n        return a >= b ? a : b;\n    }\n\n    function _getMin(int256 a, int256 b) internal pure returns (int256) {\n        return a < b ? a : b;\n    }\n}\n",
  "sourcePath": "/Users/andybn/projects/blockchain-developer-bootcamp-final-project/contracts/ExpenseGroup.sol",
  "compiler": {
    "name": "solc",
    "version": "0.8.9+commit.e5eed63a.Emscripten.clang"
  },
  "schemaVersion": "3.4.3",
  "updatedAt": "2021-10-13T11:17:20.739Z",
  "networkType": "ethereum",
  "devdoc": {
    "author": "Andrs Buenestado",
    "events": {
      "ExpenseAdded(uint256)": {
        "params": {
          "_expenseId": "the identifier of the expense."
        }
      },
      "ExpenseApproved(uint256,bool)": {
        "params": {
          "_approved": "approval (true) or disapproval (false)",
          "_expenseId": "the identifier of the expense."
        }
      },
      "MemberAdded(uint256)": {
        "params": {
          "_memberId": "the identifier of the member."
        }
      },
      "PaymentAdded(address,address,uint256)": {
        "params": {
          "_amount": "amount paid",
          "_payee": "payee address",
          "_payer": "payer address."
        }
      },
      "Withdrawal(address,uint256)": {
        "params": {
          "_amount": "withdrawn amount    ",
          "_member": "member address."
        }
      }
    },
    "kind": "dev",
    "methods": {
      "addExpense(string,uint256,uint256,address[])": {
        "details": "The number of payees are limited to a fixed number to avoid gas limit using loop.",
        "params": {
          "_amount": "the amount of the expense. Must be superior to zero.",
          "_payees": "the list of payee of the expense. The payer can be part of the payees.",
          "_title": "the title of the expense.",
          "_valueDate": "the value date of the expense."
        }
      },
      "addMember(string,address)": {
        "params": {
          "_memberAddress": "the address of the member.",
          "_name": "the name or alias of the member."
        }
      },
      "addPayment(string,address)": {
        "params": {
          "_payee": "the payee of the payment",
          "_title": "the title of the payment"
        }
      },
      "approve(uint256,bool)": {
        "params": {
          "_approved": "the approval of the member : true of false.",
          "_expenseId": "the identifier of the expense."
        }
      },
      "constructor": {
        "params": {
          "_owner": "address of the first member.",
          "_ownerName": "Yhe name of the first member.",
          "_title": "ExpenseGroup title "
        }
      },
      "getApproval(uint256,address)": {
        "params": {
          "_expenseId": "the index of the expense",
          "_memberAddress": "address of the payee"
        },
        "returns": {
          "_0": "true if payee gave is approval, else false"
        }
      },
      "getBalance(address)": {
        "params": {
          "_memberAddress": "the address of the member"
        },
        "returns": {
          "_0": "the balance of the member"
        }
      },
      "getMaxBalance()": {
        "returns": {
          "_0": "(max, index) where max is the max of all the balance and index is the index of the member."
        }
      },
      "getMemberName(address)": {
        "params": {
          "_memberAddress": "the address of the member"
        },
        "returns": {
          "_0": "the name of the member"
        }
      },
      "getNumberOfApprovals(uint256)": {
        "params": {
          "_expenseId": "the index of the expense"
        },
        "returns": {
          "_0": "the number of approvals"
        }
      },
      "getWithdrawal(address)": {
        "returns": {
          "_0": "the available withdrawal for the member address"
        }
      },
      "paused()": {
        "details": "Returns true if the contract is paused, and false otherwise."
      }
    },
    "title": "ExpenseGroup smart contract allows to share and settle a group of expenses and track debts and credits.",
    "version": 1
  },
  "userdoc": {
    "events": {
      "ExpenseAdded(uint256)": {
        "notice": "Event triggered when a new expense is added"
      },
      "ExpenseApproved(uint256,bool)": {
        "notice": "Event triggered when an existing expense is approved"
      },
      "MemberAdded(uint256)": {
        "notice": "Event triggered when a new member is added"
      },
      "PaymentAdded(address,address,uint256)": {
        "notice": "Event triggered when a payment is made"
      },
      "Withdrawal(address,uint256)": {
        "notice": "Event triggered when a withdrawal is made    "
      }
    },
    "kind": "user",
    "methods": {
      "addExpense(string,uint256,uint256,address[])": {
        "notice": "Add an expense as payer. By default, the payer is the creator of the expense."
      },
      "addMember(string,address)": {
        "notice": "Adds a member. Only registered member can add new members."
      },
      "addPayment(string,address)": {
        "notice": "Create a Payment. Use this payable function send money to the smart contract."
      },
      "approve(uint256,bool)": {
        "notice": "Set member's approval for an expense. Each member has 4 weeks to set its approval."
      },
      "constructor": {
        "notice": "Constructor. The creator of the smart contract will be the first member."
      },
      "getApproval(uint256,address)": {
        "notice": "Get approval depending on the expense identifier and address of the member."
      },
      "getBalance(address)": {
        "notice": "Get the balance of a member."
      },
      "getMaxBalance()": {
        "notice": "Get the max of all balances."
      },
      "getMemberName(address)": {
        "notice": "Get the name of a member."
      },
      "getNumberOfApprovals(uint256)": {
        "notice": "Get the total number of approvals for a given expense."
      },
      "getWithdrawal(address)": {
        "notice": "Get withdrawal per address"
      },
      "isContractInstanceCreated()": {
        "notice": "Allow the creation of the first member when the contract instance is created."
      },
      "members(address)": {
        "notice": "Users of current expense group"
      },
      "numExpenses()": {
        "notice": "A mapping of expense identifier and expense."
      },
      "withdraw()": {
        "notice": "Allow each user to withdraw its money from the smart contract"
      },
      "withdrawals(address)": {
        "notice": "A mapping of all the available withdrawals per address."
      }
    },
    "version": 1
  }
}