{
  "contractName": "ExpenseGroupFactory",
  "abi": [
    {
      "anonymous": false,
      "inputs": [
        {
          "indexed": true,
          "internalType": "address",
          "name": "_expenseGroupAddress",
          "type": "address"
        },
        {
          "indexed": true,
          "internalType": "string",
          "name": "_name",
          "type": "string"
        }
      ],
      "name": "ExpenseGroupCreated",
      "type": "event"
    },
    {
      "inputs": [
        {
          "internalType": "uint256",
          "name": "",
          "type": "uint256"
        }
      ],
      "name": "expenseGroups",
      "outputs": [
        {
          "internalType": "contract ExpenseGroup",
          "name": "",
          "type": "address"
        }
      ],
      "stateMutability": "view",
      "type": "function"
    },
    {
      "inputs": [
        {
          "internalType": "string",
          "name": "_name",
          "type": "string"
        }
      ],
      "name": "createExpenseGroup",
      "outputs": [],
      "stateMutability": "nonpayable",
      "type": "function"
    },
    {
      "inputs": [],
      "name": "getExpenseGroups",
      "outputs": [
        {
          "internalType": "contract ExpenseGroup[]",
          "name": "",
          "type": "address[]"
        }
      ],
      "stateMutability": "view",
      "type": "function"
    }
  ],
  "bytecode": "0x608060405234801561001057600080fd5b50613d72806100206000396000f3fe60806040523480156200001157600080fd5b5060043610620000465760003560e01c80631b5d0551146200004b5780634d3a27cd146200006d5780637fe976e514620000a3575b600080fd5b62000055620000c3565b604051620000649190620003ea565b60405180910390f35b6200008b60048036038101906200008591906200045d565b62000153565b6040516200009a9190620004a0565b60405180910390f35b620000c16004803603810190620000bb91906200061f565b62000193565b005b606060008054806020026020016040519081016040528092919081815260200182805480156200014957602002820191906000526020600020905b8160009054906101000a900473ffffffffffffffffffffffffffffffffffffffff1673ffffffffffffffffffffffffffffffffffffffff1681526020019060010190808311620000fe575b5050505050905090565b600081815481106200016457600080fd5b906000526020600020016000915054906101000a900473ffffffffffffffffffffffffffffffffffffffff1681565b60003382604051620001a59062000294565b620001b292919062000728565b604051809103906000f080158015620001cf573d6000803e3d6000fd5b5090506000819080600181540180825580915050600190039060005260206000200160009091909190916101000a81548173ffffffffffffffffffffffffffffffffffffffff021916908373ffffffffffffffffffffffffffffffffffffffff160217905550816040516200024591906200079e565b60405180910390208173ffffffffffffffffffffffffffffffffffffffff167f75ba07ee2e9d62321ba6ac8c2c0b4e4330ce5f8571ede4021c79d549fcb7f2a760405160405180910390a35050565b61358580620007b883390190565b600081519050919050565b600082825260208201905092915050565b6000819050602082019050919050565b600073ffffffffffffffffffffffffffffffffffffffff82169050919050565b6000819050919050565b600062000319620003136200030d84620002ce565b620002ee565b620002ce565b9050919050565b60006200032d82620002f8565b9050919050565b6000620003418262000320565b9050919050565b620003538162000334565b82525050565b600062000367838362000348565b60208301905092915050565b6000602082019050919050565b60006200038d82620002a2565b620003998185620002ad565b9350620003a683620002be565b8060005b83811015620003dd578151620003c1888262000359565b9750620003ce8362000373565b925050600181019050620003aa565b5085935050505092915050565b6000602082019050818103600083015262000406818462000380565b905092915050565b6000604051905090565b600080fd5b600080fd5b6000819050919050565b620004378162000422565b81146200044357600080fd5b50565b60008135905062000457816200042c565b92915050565b60006020828403121562000476576200047562000418565b5b6000620004868482850162000446565b91505092915050565b6200049a8162000334565b82525050565b6000602082019050620004b760008301846200048f565b92915050565b600080fd5b600080fd5b6000601f19601f8301169050919050565b7f4e487b7100000000000000000000000000000000000000000000000000000000600052604160045260246000fd5b6200051282620004c7565b810181811067ffffffffffffffff82111715620005345762000533620004d8565b5b80604052505050565b6000620005496200040e565b905062000557828262000507565b919050565b600067ffffffffffffffff8211156200057a5762000579620004d8565b5b6200058582620004c7565b9050602081019050919050565b82818337600083830152505050565b6000620005b8620005b2846200055c565b6200053d565b905082815260208101848484011115620005d757620005d6620004c2565b5b620005e484828562000592565b509392505050565b600082601f830112620006045762000603620004bd565b5b813562000616848260208601620005a1565b91505092915050565b60006020828403121562000638576200063762000418565b5b600082013567ffffffffffffffff8111156200065957620006586200041d565b5b6200066784828501620005ec565b91505092915050565b60006200067d82620002ce565b9050919050565b6200068f8162000670565b82525050565b600081519050919050565b600082825260208201905092915050565b60005b83811015620006d1578082015181840152602081019050620006b4565b83811115620006e1576000848401525b50505050565b6000620006f48262000695565b620007008185620006a0565b935062000712818560208601620006b1565b6200071d81620004c7565b840191505092915050565b60006040820190506200073f600083018562000684565b8181036020830152620007538184620006e7565b90509392505050565b600081905092915050565b6000620007748262000695565b6200078081856200075c565b935062000792818560208601620006b1565b80840191505092915050565b6000620007ac828462000767565b91508190509291505056fe60806040526000600360006101000a81548160ff0219169083151502179055503480156200002c57600080fd5b506040516200358538038062003585833981810160405281019062000052919062000710565b60008060006101000a81548160ff0219169083151502179055506200007e8183620000a160201b60201c565b6001600360006101000a81548160ff0219169083151502179055505050620008d2565b600160003373ffffffffffffffffffffffffffffffffffffffff1673ffffffffffffffffffffffffffffffffffffffff16815260200190815260200160002060020160009054906101000a900473ffffffffffffffffffffffffffffffffffffffff1673ffffffffffffffffffffffffffffffffffffffff163373ffffffffffffffffffffffffffffffffffffffff1614806200014b5750600360009054906101000a900460ff16155b6200015557600080fd5b620001656200044860201b60201c565b15620001a8576040517f08c379a00000000000000000000000000000000000000000000000000000000081526004016200019f90620007d7565b60405180910390fd5b600160008273ffffffffffffffffffffffffffffffffffffffff1673ffffffffffffffffffffffffffffffffffffffff16815260200190815260200160002060020160009054906101000a900473ffffffffffffffffffffffffffffffffffffffff1673ffffffffffffffffffffffffffffffffffffffff168173ffffffffffffffffffffffffffffffffffffffff16141580620002535750600360009054906101000a900460ff16155b6200025d57600080fd5b600073ffffffffffffffffffffffffffffffffffffffff168173ffffffffffffffffffffffffffffffffffffffff1614156200029857600080fd5b60006040518060800160405280600081526020018481526020018373ffffffffffffffffffffffffffffffffffffffff168152602001600081525090506002829080600181540180825580915050600190039060005260206000200160009091909190916101000a81548173ffffffffffffffffffffffffffffffffffffffff021916908373ffffffffffffffffffffffffffffffffffffffff16021790555060016002805490506200034c919062000832565b81600001818152505080600160008473ffffffffffffffffffffffffffffffffffffffff1673ffffffffffffffffffffffffffffffffffffffff168152602001908152602001600020600082015181600001556020820151816001019080519060200190620003bd9291906200045e565b5060408201518160020160006101000a81548173ffffffffffffffffffffffffffffffffffffffff021916908373ffffffffffffffffffffffffffffffffffffffff1602179055506060820151816003015590505080600001517f663edc42a721f7c73209441ed31f141cef6912283c680024547d950559c5559160405160405180910390a2505050565b60008060009054906101000a900460ff16905090565b8280546200046c906200089c565b90600052602060002090601f016020900481019282620004905760008555620004dc565b82601f10620004ab57805160ff1916838001178555620004dc565b82800160010185558215620004dc579182015b82811115620004db578251825591602001919060010190620004be565b5b509050620004eb9190620004ef565b5090565b5b808211156200050a576000816000905550600101620004f0565b5090565b6000604051905090565b600080fd5b600080fd5b600073ffffffffffffffffffffffffffffffffffffffff82169050919050565b60006200054f8262000522565b9050919050565b620005618162000542565b81146200056d57600080fd5b50565b600081519050620005818162000556565b92915050565b600080fd5b600080fd5b6000601f19601f8301169050919050565b7f4e487b7100000000000000000000000000000000000000000000000000000000600052604160045260246000fd5b620005dc8262000591565b810181811067ffffffffffffffff82111715620005fe57620005fd620005a2565b5b80604052505050565b6000620006136200050e565b9050620006218282620005d1565b919050565b600067ffffffffffffffff821115620006445762000643620005a2565b5b6200064f8262000591565b9050602081019050919050565b60005b838110156200067c5780820151818401526020810190506200065f565b838111156200068c576000848401525b50505050565b6000620006a9620006a38462000626565b62000607565b905082815260208101848484011115620006c857620006c76200058c565b5b620006d58482856200065c565b509392505050565b600082601f830112620006f557620006f462000587565b5b81516200070784826020860162000692565b91505092915050565b600080604083850312156200072a576200072962000518565b5b60006200073a8582860162000570565b925050602083015167ffffffffffffffff8111156200075e576200075d6200051d565b5b6200076c85828601620006dd565b9150509250929050565b600082825260208201905092915050565b7f5061757361626c653a2070617573656400000000000000000000000000000000600082015250565b6000620007bf60108362000776565b9150620007cc8262000787565b602082019050919050565b60006020820190508181036000830152620007f281620007b0565b9050919050565b6000819050919050565b7f4e487b7100000000000000000000000000000000000000000000000000000000600052601160045260246000fd5b60006200083f82620007f9565b91506200084c83620007f9565b92508282101562000862576200086162000803565b5b828203905092915050565b7f4e487b7100000000000000000000000000000000000000000000000000000000600052602260045260246000fd5b60006002820490506001821680620008b557607f821691505b60208210811415620008cc57620008cb6200086d565b5b50919050565b612ca380620008e26000396000f3fe6080604052600436106101145760003560e01c80638f081ece116100a0578063bc35008811610064578063bc350088146103e2578063c3e1888e146103fe578063cc4e62991461042a578063f8b2cb4f14610467578063ff419aa2146104a457610114565b80638f081ece146102d357806399f62bab146102fe578063af4afe0a1461033b578063aff4b8491461037c578063b4d95e71146103b957610114565b80635b8f3d14116100e75780635b8f3d14146101d65780635c975abb14610201578063747442d31461022c5780637a9262a21461025557806387d817891461029257610114565b806308ae4b0c1461011957806328c84793146101595780633ccfd60b1461019657806345e39705146101ad575b600080fd5b34801561012557600080fd5b50610140600480360381019061013b9190612159565b6104e1565b6040516101509493929190612260565b60405180910390f35b34801561016557600080fd5b50610180600480360381019061017b91906122d8565b6105b9565b60405161018d9190612333565b60405180910390f35b3480156101a257600080fd5b506101ab610624565b005b3480156101b957600080fd5b506101d460048036038101906101cf9190612483565b610873565b005b3480156101e257600080fd5b506101eb610c06565b6040516101f89190612333565b60405180910390f35b34801561020d57600080fd5b50610216610c19565b6040516102239190612333565b60405180910390f35b34801561023857600080fd5b50610253600480360381019061024e919061250b565b610c2f565b005b34801561026157600080fd5b5061027c60048036038101906102779190612159565b610e93565b604051610289919061254b565b60405180910390f35b34801561029e57600080fd5b506102b960048036038101906102b49190612566565b610eab565b6040516102ca959493929190612593565b60405180910390f35b3480156102df57600080fd5b506102e8610fb9565b6040516102f5919061254b565b60405180910390f35b34801561030a57600080fd5b5061032560048036038101906103209190612159565b610fbf565b604051610332919061254b565b60405180910390f35b34801561034757600080fd5b50610362600480360381019061035d9190612566565b611008565b6040516103739594939291906125ed565b60405180910390f35b34801561038857600080fd5b506103a3600480360381019061039e9190612159565b6110e6565b6040516103b09190612647565b60405180910390f35b3480156103c557600080fd5b506103e060048036038101906103db9190612731565b6111ba565b005b6103fc60048036038101906103f79190612483565b6113f7565b005b34801561040a57600080fd5b50610413611747565b6040516104219291906127d0565b60405180910390f35b34801561043657600080fd5b50610451600480360381019061044c9190612566565b61191c565b60405161045e91906127f9565b60405180910390f35b34801561047357600080fd5b5061048e60048036038101906104899190612159565b61195b565b60405161049b9190612814565b60405180910390f35b3480156104b057600080fd5b506104cb60048036038101906104c69190612566565b6119a7565b6040516104d8919061254b565b60405180910390f35b600160205280600052604060002060009150905080600001549080600101805461050a9061285e565b80601f01602080910402602001604051908101604052809291908181526020018280546105369061285e565b80156105835780601f1061055857610100808354040283529160200191610583565b820191906000526020600020905b81548152906001019060200180831161056657829003601f168201915b5050505050908060020160009054906101000a900473ffffffffffffffffffffffffffffffffffffffff16908060030154905084565b60006005600084815260200190815260200160002060060160008373ffffffffffffffffffffffffffffffffffffffff1673ffffffffffffffffffffffffffffffffffffffff16815260200190815260200160002060009054906101000a900460ff16905092915050565b600160003373ffffffffffffffffffffffffffffffffffffffff1673ffffffffffffffffffffffffffffffffffffffff16815260200190815260200160002060020160009054906101000a900473ffffffffffffffffffffffffffffffffffffffff1673ffffffffffffffffffffffffffffffffffffffff163373ffffffffffffffffffffffffffffffffffffffff1614806106cd5750600360009054906101000a900460ff16155b6106d657600080fd5b6000600760003373ffffffffffffffffffffffffffffffffffffffff1673ffffffffffffffffffffffffffffffffffffffff168152602001908152602001600020541161072257600080fd5b6000600760003373ffffffffffffffffffffffffffffffffffffffff1673ffffffffffffffffffffffffffffffffffffffff1681526020019081526020016000205490506000600760003373ffffffffffffffffffffffffffffffffffffffff1673ffffffffffffffffffffffffffffffffffffffff1681526020019081526020016000208190555060003373ffffffffffffffffffffffffffffffffffffffff16826040516107d1906128c1565b60006040518083038185875af1925050503d806000811461080e576040519150601f19603f3d011682016040523d82523d6000602084013e610813565b606091505b505090508061082157600080fd5b3373ffffffffffffffffffffffffffffffffffffffff167f7fcf532c15f0a6db0bd6d0e038bea71d30d808c7d98cb3bf7268a95bf5081b6583604051610867919061254b565b60405180910390a25050565b600160003373ffffffffffffffffffffffffffffffffffffffff1673ffffffffffffffffffffffffffffffffffffffff16815260200190815260200160002060020160009054906101000a900473ffffffffffffffffffffffffffffffffffffffff1673ffffffffffffffffffffffffffffffffffffffff163373ffffffffffffffffffffffffffffffffffffffff16148061091c5750600360009054906101000a900460ff16155b61092557600080fd5b61092d610c19565b1561096d576040517f08c379a000000000000000000000000000000000000000000000000000000000815260040161096490612922565b60405180910390fd5b600160008273ffffffffffffffffffffffffffffffffffffffff1673ffffffffffffffffffffffffffffffffffffffff16815260200190815260200160002060020160009054906101000a900473ffffffffffffffffffffffffffffffffffffffff1673ffffffffffffffffffffffffffffffffffffffff168173ffffffffffffffffffffffffffffffffffffffff16141580610a175750600360009054906101000a900460ff16155b610a2057600080fd5b600073ffffffffffffffffffffffffffffffffffffffff168173ffffffffffffffffffffffffffffffffffffffff161415610a5a57600080fd5b60006040518060800160405280600081526020018481526020018373ffffffffffffffffffffffffffffffffffffffff168152602001600081525090506002829080600181540180825580915050600190039060005260206000200160009091909190916101000a81548173ffffffffffffffffffffffffffffffffffffffff021916908373ffffffffffffffffffffffffffffffffffffffff1602179055506001600280549050610b0c9190612971565b81600001818152505080600160008473ffffffffffffffffffffffffffffffffffffffff1673ffffffffffffffffffffffffffffffffffffffff168152602001908152602001600020600082015181600001556020820151816001019080519060200190610b7b929190611fba565b5060408201518160020160006101000a81548173ffffffffffffffffffffffffffffffffffffffff021916908373ffffffffffffffffffffffffffffffffffffffff1602179055506060820151816003015590505080600001517f663edc42a721f7c73209441ed31f141cef6912283c680024547d950559c5559160405160405180910390a2505050565b600360009054906101000a900460ff1681565b60008060009054906101000a900460ff16905090565b600160003373ffffffffffffffffffffffffffffffffffffffff1673ffffffffffffffffffffffffffffffffffffffff16815260200190815260200160002060020160009054906101000a900473ffffffffffffffffffffffffffffffffffffffff1673ffffffffffffffffffffffffffffffffffffffff163373ffffffffffffffffffffffffffffffffffffffff161480610cd85750600360009054906101000a900460ff16155b610ce157600080fd5b610ce9610c19565b15610d29576040517f08c379a0000000000000000000000000000000000000000000000000000000008152600401610d2090612922565b60405180910390fd5b60006005600084815260200190815260200160002090506224ea008160030154610d5391906129a5565b4210610d5e57600080fd5b8115158160060160003373ffffffffffffffffffffffffffffffffffffffff1673ffffffffffffffffffffffffffffffffffffffff16815260200190815260200160002060009054906101000a900460ff1615151415610dbd57600080fd5b6000610dc8846119a7565b905060008114610ddc57610ddb84611a9a565b5b828260060160003373ffffffffffffffffffffffffffffffffffffffff1673ffffffffffffffffffffffffffffffffffffffff16815260200190815260200160002060006101000a81548160ff0219169083151502179055506000610e40856119a7565b905060008114610e5457610e5385611aa8565b5b847f23c19de93ce378d27f3b34f74ae236838987d9179c902bca3cdc3bb93bd7314485604051610e849190612333565b60405180910390a25050505050565b60076020528060005260406000206000915090505481565b60068181548110610ebb57600080fd5b9060005260206000209060050201600091509050806000018054610ede9061285e565b80601f0160208091040260200160405190810160405280929190818152602001828054610f0a9061285e565b8015610f575780601f10610f2c57610100808354040283529160200191610f57565b820191906000526020600020905b815481529060010190602001808311610f3a57829003601f168201915b5050505050908060010154908060020154908060030160009054906101000a900473ffffffffffffffffffffffffffffffffffffffff16908060040160009054906101000a900473ffffffffffffffffffffffffffffffffffffffff16905085565b60045481565b6000600760008373ffffffffffffffffffffffffffffffffffffffff1673ffffffffffffffffffffffffffffffffffffffff168152602001908152602001600020549050919050565b600560205280600052604060002060009150905080600001805461102b9061285e565b80601f01602080910402602001604051908101604052809291908181526020018280546110579061285e565b80156110a45780601f10611079576101008083540402835291602001916110a4565b820191906000526020600020905b81548152906001019060200180831161108757829003601f168201915b5050505050908060010154908060020154908060030154908060040160009054906101000a900473ffffffffffffffffffffffffffffffffffffffff16905085565b6060600160008373ffffffffffffffffffffffffffffffffffffffff1673ffffffffffffffffffffffffffffffffffffffff16815260200190815260200160002060010180546111359061285e565b80601f01602080910402602001604051908101604052809291908181526020018280546111619061285e565b80156111ae5780601f10611183576101008083540402835291602001916111ae565b820191906000526020600020905b81548152906001019060200180831161119157829003601f168201915b50505050509050919050565b600160003373ffffffffffffffffffffffffffffffffffffffff1673ffffffffffffffffffffffffffffffffffffffff16815260200190815260200160002060020160009054906101000a900473ffffffffffffffffffffffffffffffffffffffff1673ffffffffffffffffffffffffffffffffffffffff163373ffffffffffffffffffffffffffffffffffffffff1614806112635750600360009054906101000a900460ff16155b61126c57600080fd5b611274610c19565b156112b4576040517f08c379a00000000000000000000000000000000000000000000000000000000081526004016112ab90612922565b60405180910390fd5b600083116112c157600080fd5b600081511180156112d75750600a60ff16815111155b6112e057600080fd5b6112e981611ab6565b6112f257600080fd5b6112fb81611b16565b61130457600080fd5b6000600560006004600081548092919061131d906129fb565b919050558152602001908152602001600020905084816000019080519060200190611349929190611fba565b50838160010181905550828160020181905550338160040160006101000a81548173ffffffffffffffffffffffffffffffffffffffff021916908373ffffffffffffffffffffffffffffffffffffffff160217905550428160030181905550818160050190805190602001906113c0929190612040565b506004547f0196a834ab6362d8b08696adb04296039cef5ac7132808904aa83f47bf7f4e5e60405160405180910390a25050505050565b600160003373ffffffffffffffffffffffffffffffffffffffff1673ffffffffffffffffffffffffffffffffffffffff16815260200190815260200160002060020160009054906101000a900473ffffffffffffffffffffffffffffffffffffffff1673ffffffffffffffffffffffffffffffffffffffff163373ffffffffffffffffffffffffffffffffffffffff1614806114a05750600360009054906101000a900460ff16155b6114a957600080fd5b6114b1610c19565b156114f1576040517f08c379a00000000000000000000000000000000000000000000000000000000081526004016114e890612922565b60405180910390fd5b60003390506000341161150357600080fd5b8073ffffffffffffffffffffffffffffffffffffffff168273ffffffffffffffffffffffffffffffffffffffff16141561153c57600080fd5b61154582611bfb565b61154e57600080fd5b60006040518060a001604052808581526020013481526020014281526020018373ffffffffffffffffffffffffffffffffffffffff1681526020018473ffffffffffffffffffffffffffffffffffffffff168152509050600681908060018154018082558091505060019003906000526020600020906005020160009091909190915060008201518160000190805190602001906115ed929190611fba565b50602082015181600101556040820151816002015560608201518160030160006101000a81548173ffffffffffffffffffffffffffffffffffffffff021916908373ffffffffffffffffffffffffffffffffffffffff16021790555060808201518160040160006101000a81548173ffffffffffffffffffffffffffffffffffffffff021916908373ffffffffffffffffffffffffffffffffffffffff160217905550505034600760008573ffffffffffffffffffffffffffffffffffffffff1673ffffffffffffffffffffffffffffffffffffffff16815260200190815260200160002060008282546116e191906129a5565b925050819055506116f181611c95565b8173ffffffffffffffffffffffffffffffffffffffff167f9d1bcf0ff0f343cd9c63d8f1eb8a81b7884dc4151cb4eb64d0281f7ecd6975488434604051611739929190612a44565b60405180910390a250505050565b600080600060016000600260008154811061176557611764612a6d565b5b9060005260206000200160009054906101000a900473ffffffffffffffffffffffffffffffffffffffff1673ffffffffffffffffffffffffffffffffffffffff1673ffffffffffffffffffffffffffffffffffffffff168152602001908152602001600020600301549050600080600190505b60028054905081101561190f5761186f83600160006002858154811061180157611800612a6d565b5b9060005260206000200160009054906101000a900473ffffffffffffffffffffffffffffffffffffffff1673ffffffffffffffffffffffffffffffffffffffff1673ffffffffffffffffffffffffffffffffffffffff16815260200190815260200160002060030154611d5a565b83146118fc57600160006002838154811061188d5761188c612a6d565b5b9060005260206000200160009054906101000a900473ffffffffffffffffffffffffffffffffffffffff1673ffffffffffffffffffffffffffffffffffffffff1673ffffffffffffffffffffffffffffffffffffffff1681526020019081526020016000206003015492508091505b8080611907906129fb565b9150506117d8565b5081819350935050509091565b6002818154811061192c57600080fd5b906000526020600020016000915054906101000a900473ffffffffffffffffffffffffffffffffffffffff1681565b6000600160008373ffffffffffffffffffffffffffffffffffffffff1673ffffffffffffffffffffffffffffffffffffffff168152602001908152602001600020600301549050919050565b6000806005600084815260200190815260200160002090506000805b8260050180549050811015611a8f57600115158360060160008560050184815481106119f2576119f1612a6d565b5b9060005260206000200160009054906101000a900473ffffffffffffffffffffffffffffffffffffffff1673ffffffffffffffffffffffffffffffffffffffff1673ffffffffffffffffffffffffffffffffffffffff16815260200190815260200160002060009054906101000a900460ff1615151415611a7c578180611a78906129fb565b9250505b8080611a87906129fb565b9150506119c3565b508092505050919050565b611aa5816001611d74565b50565b611ab3816000611d74565b50565b600080600090505b8251811015611b0b57611aea838281518110611add57611adc612a6d565b5b6020026020010151611bfb565b611af8576000915050611b11565b8080611b03906129fb565b915050611abe565b50600190505b919050565b60008060005b8351811015611bef57600091506000848281518110611b3e57611b3d612a6d565b5b6020026020010151905060005b8551811015611bda57858181518110611b6757611b66612a6d565b5b602002602001015173ffffffffffffffffffffffffffffffffffffffff168273ffffffffffffffffffffffffffffffffffffffff161415611bb1578380611bad906129fb565b9450505b6002841415611bc7576000945050505050611bf6565b8080611bd2906129fb565b915050611b4b565b50508080611be7906129fb565b915050611b1c565b5060019150505b919050565b6000600160008373ffffffffffffffffffffffffffffffffffffffff1673ffffffffffffffffffffffffffffffffffffffff16815260200190815260200160002060020160009054906101000a900473ffffffffffffffffffffffffffffffffffffffff1673ffffffffffffffffffffffffffffffffffffffff168273ffffffffffffffffffffffffffffffffffffffff16149050919050565b806020015160016000836080015173ffffffffffffffffffffffffffffffffffffffff1673ffffffffffffffffffffffffffffffffffffffff1681526020019081526020016000206003016000828254611cef9190612a9c565b92505081905550806020015160016000836060015173ffffffffffffffffffffffffffffffffffffffff1673ffffffffffffffffffffffffffffffffffffffff1681526020019081526020016000206003016000828254611d509190612b30565b9250508190555050565b600081831215611d6a5781611d6c565b825b905092915050565b6000611d7f836119a7565b905060008111611d8e57600080fd5b60006005600085815260200190815260200160002090506000828260010154611db79190612bf3565b90506000826001015490508415611de15781611dd290612c24565b915080611dde90612c24565b90505b80600160008560040160009054906101000a900473ffffffffffffffffffffffffffffffffffffffff1673ffffffffffffffffffffffffffffffffffffffff1673ffffffffffffffffffffffffffffffffffffffff1681526020019081526020016000206003016000828254611e579190612b30565b9250508190555060005b8360050180549050811015611fb157836006016000856005018381548110611e8c57611e8b612a6d565b5b9060005260206000200160009054906101000a900473ffffffffffffffffffffffffffffffffffffffff1673ffffffffffffffffffffffffffffffffffffffff1673ffffffffffffffffffffffffffffffffffffffff16815260200190815260200160002060009054906101000a900460ff1615611f9e578260016000866005018481548110611f1f57611f1e612a6d565b5b9060005260206000200160009054906101000a900473ffffffffffffffffffffffffffffffffffffffff1673ffffffffffffffffffffffffffffffffffffffff1673ffffffffffffffffffffffffffffffffffffffff1681526020019081526020016000206003016000828254611f969190612a9c565b925050819055505b8080611fa9906129fb565b915050611e61565b50505050505050565b828054611fc69061285e565b90600052602060002090601f016020900481019282611fe8576000855561202f565b82601f1061200157805160ff191683800117855561202f565b8280016001018555821561202f579182015b8281111561202e578251825591602001919060010190612013565b5b50905061203c91906120ca565b5090565b8280548282559060005260206000209081019282156120b9579160200282015b828111156120b85782518260006101000a81548173ffffffffffffffffffffffffffffffffffffffff021916908373ffffffffffffffffffffffffffffffffffffffff16021790555091602001919060010190612060565b5b5090506120c691906120ca565b5090565b5b808211156120e35760008160009055506001016120cb565b5090565b6000604051905090565b600080fd5b600080fd5b600073ffffffffffffffffffffffffffffffffffffffff82169050919050565b6000612126826120fb565b9050919050565b6121368161211b565b811461214157600080fd5b50565b6000813590506121538161212d565b92915050565b60006020828403121561216f5761216e6120f1565b5b600061217d84828501612144565b91505092915050565b6000819050919050565b61219981612186565b82525050565b600081519050919050565b600082825260208201905092915050565b60005b838110156121d95780820151818401526020810190506121be565b838111156121e8576000848401525b50505050565b6000601f19601f8301169050919050565b600061220a8261219f565b61221481856121aa565b93506122248185602086016121bb565b61222d816121ee565b840191505092915050565b6122418161211b565b82525050565b6000819050919050565b61225a81612247565b82525050565b60006080820190506122756000830187612190565b818103602083015261228781866121ff565b90506122966040830185612238565b6122a36060830184612251565b95945050505050565b6122b581612186565b81146122c057600080fd5b50565b6000813590506122d2816122ac565b92915050565b600080604083850312156122ef576122ee6120f1565b5b60006122fd858286016122c3565b925050602061230e85828601612144565b9150509250929050565b60008115159050919050565b61232d81612318565b82525050565b60006020820190506123486000830184612324565b92915050565b600080fd5b600080fd5b7f4e487b7100000000000000000000000000000000000000000000000000000000600052604160045260246000fd5b612390826121ee565b810181811067ffffffffffffffff821117156123af576123ae612358565b5b80604052505050565b60006123c26120e7565b90506123ce8282612387565b919050565b600067ffffffffffffffff8211156123ee576123ed612358565b5b6123f7826121ee565b9050602081019050919050565b82818337600083830152505050565b6000612426612421846123d3565b6123b8565b90508281526020810184848401111561244257612441612353565b5b61244d848285612404565b509392505050565b600082601f83011261246a5761246961234e565b5b813561247a848260208601612413565b91505092915050565b6000806040838503121561249a576124996120f1565b5b600083013567ffffffffffffffff8111156124b8576124b76120f6565b5b6124c485828601612455565b92505060206124d585828601612144565b9150509250929050565b6124e881612318565b81146124f357600080fd5b50565b600081359050612505816124df565b92915050565b60008060408385031215612522576125216120f1565b5b6000612530858286016122c3565b9250506020612541858286016124f6565b9150509250929050565b60006020820190506125606000830184612190565b92915050565b60006020828403121561257c5761257b6120f1565b5b600061258a848285016122c3565b91505092915050565b600060a08201905081810360008301526125ad81886121ff565b90506125bc6020830187612190565b6125c96040830186612190565b6125d66060830185612238565b6125e36080830184612238565b9695505050505050565b600060a082019050818103600083015261260781886121ff565b90506126166020830187612190565b6126236040830186612190565b6126306060830185612190565b61263d6080830184612238565b9695505050505050565b6000602082019050818103600083015261266181846121ff565b905092915050565b600067ffffffffffffffff82111561268457612683612358565b5b602082029050602081019050919050565b600080fd5b60006126ad6126a884612669565b6123b8565b905080838252602082019050602084028301858111156126d0576126cf612695565b5b835b818110156126f957806126e58882612144565b8452602084019350506020810190506126d2565b5050509392505050565b600082601f8301126127185761271761234e565b5b813561272884826020860161269a565b91505092915050565b6000806000806080858703121561274b5761274a6120f1565b5b600085013567ffffffffffffffff811115612769576127686120f6565b5b61277587828801612455565b9450506020612786878288016122c3565b9350506040612797878288016122c3565b925050606085013567ffffffffffffffff8111156127b8576127b76120f6565b5b6127c487828801612703565b91505092959194509250565b60006040820190506127e56000830185612251565b6127f26020830184612190565b9392505050565b600060208201905061280e6000830184612238565b92915050565b60006020820190506128296000830184612251565b92915050565b7f4e487b7100000000000000000000000000000000000000000000000000000000600052602260045260246000fd5b6000600282049050600182168061287657607f821691505b6020821081141561288a5761288961282f565b5b50919050565b600081905092915050565b50565b60006128ab600083612890565b91506128b68261289b565b600082019050919050565b60006128cc8261289e565b9150819050919050565b7f5061757361626c653a2070617573656400000000000000000000000000000000600082015250565b600061290c6010836121aa565b9150612917826128d6565b602082019050919050565b6000602082019050818103600083015261293b816128ff565b9050919050565b7f4e487b7100000000000000000000000000000000000000000000000000000000600052601160045260246000fd5b600061297c82612186565b915061298783612186565b92508282101561299a57612999612942565b5b828203905092915050565b60006129b082612186565b91506129bb83612186565b9250827fffffffffffffffffffffffffffffffffffffffffffffffffffffffffffffffff038211156129f0576129ef612942565b5b828201905092915050565b6000612a0682612186565b91507fffffffffffffffffffffffffffffffffffffffffffffffffffffffffffffffff821415612a3957612a38612942565b5b600182019050919050565b6000604082019050612a596000830185612238565b612a666020830184612190565b9392505050565b7f4e487b7100000000000000000000000000000000000000000000000000000000600052603260045260246000fd5b6000612aa782612247565b9150612ab283612247565b9250827f800000000000000000000000000000000000000000000000000000000000000001821260008412151615612aed57612aec612942565b5b827f7fffffffffffffffffffffffffffffffffffffffffffffffffffffffffffffff018213600084121615612b2557612b24612942565b5b828203905092915050565b6000612b3b82612247565b9150612b4683612247565b9250817f7fffffffffffffffffffffffffffffffffffffffffffffffffffffffffffffff03831360008312151615612b8157612b80612942565b5b817f8000000000000000000000000000000000000000000000000000000000000000038312600083121615612bb957612bb8612942565b5b828201905092915050565b7f4e487b7100000000000000000000000000000000000000000000000000000000600052601260045260246000fd5b6000612bfe82612186565b9150612c0983612186565b925082612c1957612c18612bc4565b5b828204905092915050565b6000612c2f82612247565b91507f8000000000000000000000000000000000000000000000000000000000000000821415612c6257612c61612942565b5b81600003905091905056fea2646970667358221220e28206760398c00a915aebe3962f3ae1b1abf6add381069bbce09715453eb22264736f6c63430008090033a26469706673582212208031506b5f0b12b554c8495491d6358ecc99de471715523fb6cbc37ab0b5509d64736f6c63430008090033",
  "immutableReferences": {},
  "source": "// SPDX-License-Identifier: MIT\npragma solidity ^0.8.0;\n\nimport \"./ExpenseGroup.sol\";\n\ncontract ExpenseGroupFactory {\n    ExpenseGroup[] public expenseGroups;\n    uint256 disabledCount;\n\n    event ExpenseGroupCreated(\n        address indexed _expenseGroupAddress,\n        string indexed _name\n    );\n\n    function createExpenseGroup(string memory _name) external {\n        ExpenseGroup expenseGroup = new ExpenseGroup(msg.sender,_name);\n        expenseGroups.push(expenseGroup);\n        emit ExpenseGroupCreated(address(expenseGroup), _name);\n    }\n\n    function getExpenseGroups()\n        external\n        view\n        returns (ExpenseGroup[] memory)\n    {\n        return expenseGroups;\n    }\n}\n",
  "sourcePath": "/Users/andybn/projects/blockchain-developer-bootcamp-final-project/contracts/ExpenseGroupFactory.sol",
  "compiler": {
    "name": "solc",
    "version": "0.8.9+commit.e5eed63a.Emscripten.clang"
  },
  "schemaVersion": "3.4.3",
  "updatedAt": "2021-10-09T15:49:42.943Z",
  "devdoc": {
    "kind": "dev",
    "methods": {},
    "version": 1
  },
  "userdoc": {
    "kind": "user",
    "methods": {},
    "version": 1
  }
}