{
  "contractName": "ExpenseGroup",
  "abi": [
    {
      "inputs": [
        {
          "internalType": "address",
          "name": "_owner",
          "type": "address"
        },
        {
          "internalType": "string",
          "name": "_ownerName",
          "type": "string"
        },
        {
          "internalType": "string",
          "name": "_title",
          "type": "string"
        }
      ],
      "stateMutability": "nonpayable",
      "type": "constructor"
    },
    {
      "anonymous": false,
      "inputs": [
        {
          "indexed": true,
          "internalType": "uint256",
          "name": "_expenseId",
          "type": "uint256"
        }
      ],
      "name": "ExpenseAdded",
      "type": "event"
    },
    {
      "anonymous": false,
      "inputs": [
        {
          "indexed": true,
          "internalType": "uint256",
          "name": "_expenseId",
          "type": "uint256"
        },
        {
          "indexed": false,
          "internalType": "bool",
          "name": "_approved",
          "type": "bool"
        }
      ],
      "name": "ExpenseApproved",
      "type": "event"
    },
    {
      "anonymous": false,
      "inputs": [
        {
          "indexed": true,
          "internalType": "uint256",
          "name": "_memberId",
          "type": "uint256"
        }
      ],
      "name": "MemberAdded",
      "type": "event"
    },
    {
      "anonymous": false,
      "inputs": [
        {
          "indexed": false,
          "internalType": "address",
          "name": "account",
          "type": "address"
        }
      ],
      "name": "Paused",
      "type": "event"
    },
    {
      "anonymous": false,
      "inputs": [
        {
          "indexed": true,
          "internalType": "address",
          "name": "_payer",
          "type": "address"
        },
        {
          "indexed": false,
          "internalType": "address",
          "name": "_payee",
          "type": "address"
        },
        {
          "indexed": false,
          "internalType": "uint256",
          "name": "_amount",
          "type": "uint256"
        }
      ],
      "name": "PaymentAdded",
      "type": "event"
    },
    {
      "anonymous": false,
      "inputs": [
        {
          "indexed": false,
          "internalType": "address",
          "name": "account",
          "type": "address"
        }
      ],
      "name": "Unpaused",
      "type": "event"
    },
    {
      "anonymous": false,
      "inputs": [
        {
          "indexed": true,
          "internalType": "address",
          "name": "_member",
          "type": "address"
        },
        {
          "indexed": false,
          "internalType": "uint256",
          "name": "_amount",
          "type": "uint256"
        }
      ],
      "name": "Withdrawal",
      "type": "event"
    },
    {
      "inputs": [
        {
          "internalType": "uint256",
          "name": "",
          "type": "uint256"
        }
      ],
      "name": "expenses",
      "outputs": [
        {
          "internalType": "string",
          "name": "name",
          "type": "string"
        },
        {
          "internalType": "uint256",
          "name": "amount",
          "type": "uint256"
        },
        {
          "internalType": "uint256",
          "name": "valueDate",
          "type": "uint256"
        },
        {
          "internalType": "uint256",
          "name": "creationDate",
          "type": "uint256"
        },
        {
          "internalType": "address",
          "name": "payer",
          "type": "address"
        }
      ],
      "stateMutability": "view",
      "type": "function",
      "constant": true
    },
    {
      "inputs": [],
      "name": "isContractInstanceCreated",
      "outputs": [
        {
          "internalType": "bool",
          "name": "",
          "type": "bool"
        }
      ],
      "stateMutability": "view",
      "type": "function",
      "constant": true
    },
    {
      "inputs": [
        {
          "internalType": "uint256",
          "name": "",
          "type": "uint256"
        }
      ],
      "name": "memberAddresses",
      "outputs": [
        {
          "internalType": "address",
          "name": "",
          "type": "address"
        }
      ],
      "stateMutability": "view",
      "type": "function",
      "constant": true
    },
    {
      "inputs": [
        {
          "internalType": "address",
          "name": "",
          "type": "address"
        }
      ],
      "name": "members",
      "outputs": [
        {
          "internalType": "uint256",
          "name": "identifier",
          "type": "uint256"
        },
        {
          "internalType": "string",
          "name": "name",
          "type": "string"
        },
        {
          "internalType": "address",
          "name": "memberAddress",
          "type": "address"
        },
        {
          "internalType": "int256",
          "name": "balance",
          "type": "int256"
        }
      ],
      "stateMutability": "view",
      "type": "function",
      "constant": true
    },
    {
      "inputs": [],
      "name": "numExpenses",
      "outputs": [
        {
          "internalType": "uint256",
          "name": "",
          "type": "uint256"
        }
      ],
      "stateMutability": "view",
      "type": "function",
      "constant": true
    },
    {
      "inputs": [],
      "name": "paused",
      "outputs": [
        {
          "internalType": "bool",
          "name": "",
          "type": "bool"
        }
      ],
      "stateMutability": "view",
      "type": "function",
      "constant": true
    },
    {
      "inputs": [
        {
          "internalType": "uint256",
          "name": "",
          "type": "uint256"
        }
      ],
      "name": "payments",
      "outputs": [
        {
          "internalType": "string",
          "name": "title",
          "type": "string"
        },
        {
          "internalType": "uint256",
          "name": "amount",
          "type": "uint256"
        },
        {
          "internalType": "uint256",
          "name": "valueDate",
          "type": "uint256"
        },
        {
          "internalType": "address",
          "name": "payer",
          "type": "address"
        },
        {
          "internalType": "address",
          "name": "payee",
          "type": "address"
        }
      ],
      "stateMutability": "view",
      "type": "function",
      "constant": true
    },
    {
      "inputs": [],
      "name": "title",
      "outputs": [
        {
          "internalType": "string",
          "name": "",
          "type": "string"
        }
      ],
      "stateMutability": "view",
      "type": "function",
      "constant": true
    },
    {
      "inputs": [
        {
          "internalType": "address",
          "name": "",
          "type": "address"
        }
      ],
      "name": "withdrawals",
      "outputs": [
        {
          "internalType": "uint256",
          "name": "",
          "type": "uint256"
        }
      ],
      "stateMutability": "view",
      "type": "function",
      "constant": true
    },
    {
      "inputs": [
        {
          "internalType": "string",
          "name": "_name",
          "type": "string"
        },
        {
          "internalType": "address",
          "name": "_memberAddress",
          "type": "address"
        }
      ],
      "name": "addMember",
      "outputs": [],
      "stateMutability": "nonpayable",
      "type": "function"
    },
    {
      "inputs": [],
      "name": "getMemberCount",
      "outputs": [
        {
          "internalType": "uint256",
          "name": "",
          "type": "uint256"
        }
      ],
      "stateMutability": "view",
      "type": "function",
      "constant": true
    },
    {
      "inputs": [
        {
          "internalType": "uint256",
          "name": "expenseId",
          "type": "uint256"
        }
      ],
      "name": "getPayees",
      "outputs": [
        {
          "internalType": "address[]",
          "name": "",
          "type": "address[]"
        }
      ],
      "stateMutability": "view",
      "type": "function",
      "constant": true
    },
    {
      "inputs": [
        {
          "internalType": "string",
          "name": "_title",
          "type": "string"
        },
        {
          "internalType": "uint256",
          "name": "_amount",
          "type": "uint256"
        },
        {
          "internalType": "uint256",
          "name": "_valueDate",
          "type": "uint256"
        },
        {
          "internalType": "address[]",
          "name": "_payees",
          "type": "address[]"
        }
      ],
      "name": "addExpense",
      "outputs": [],
      "stateMutability": "nonpayable",
      "type": "function"
    },
    {
      "inputs": [
        {
          "internalType": "uint256",
          "name": "_expenseId",
          "type": "uint256"
        },
        {
          "internalType": "bool",
          "name": "_approved",
          "type": "bool"
        }
      ],
      "name": "approve",
      "outputs": [],
      "stateMutability": "nonpayable",
      "type": "function"
    },
    {
      "inputs": [
        {
          "internalType": "string",
          "name": "_title",
          "type": "string"
        },
        {
          "internalType": "address",
          "name": "_payee",
          "type": "address"
        }
      ],
      "name": "addPayment",
      "outputs": [],
      "stateMutability": "payable",
      "type": "function",
      "payable": true
    },
    {
      "inputs": [],
      "name": "withdraw",
      "outputs": [],
      "stateMutability": "nonpayable",
      "type": "function"
    },
    {
      "inputs": [],
      "name": "getMaxBalance",
      "outputs": [
        {
          "internalType": "int256",
          "name": "",
          "type": "int256"
        },
        {
          "internalType": "uint256",
          "name": "",
          "type": "uint256"
        }
      ],
      "stateMutability": "view",
      "type": "function",
      "constant": true
    },
    {
      "inputs": [
        {
          "internalType": "address",
          "name": "_memberAddress",
          "type": "address"
        }
      ],
      "name": "getWithdrawal",
      "outputs": [
        {
          "internalType": "uint256",
          "name": "",
          "type": "uint256"
        }
      ],
      "stateMutability": "view",
      "type": "function",
      "constant": true
    },
    {
      "inputs": [
        {
          "internalType": "uint256",
          "name": "_expenseId",
          "type": "uint256"
        },
        {
          "internalType": "address",
          "name": "_memberAddress",
          "type": "address"
        }
      ],
      "name": "getApproval",
      "outputs": [
        {
          "internalType": "bool",
          "name": "",
          "type": "bool"
        }
      ],
      "stateMutability": "view",
      "type": "function",
      "constant": true
    },
    {
      "inputs": [
        {
          "internalType": "uint256",
          "name": "_expenseId",
          "type": "uint256"
        }
      ],
      "name": "getNumberOfApprovals",
      "outputs": [
        {
          "internalType": "uint256",
          "name": "",
          "type": "uint256"
        }
      ],
      "stateMutability": "view",
      "type": "function",
      "constant": true
    },
    {
      "inputs": [
        {
          "internalType": "address",
          "name": "_memberAddress",
          "type": "address"
        }
      ],
      "name": "getBalance",
      "outputs": [
        {
          "internalType": "int256",
          "name": "",
          "type": "int256"
        }
      ],
      "stateMutability": "view",
      "type": "function",
      "constant": true
    },
    {
      "inputs": [
        {
          "internalType": "address",
          "name": "_memberAddress",
          "type": "address"
        }
      ],
      "name": "getMemberName",
      "outputs": [
        {
          "internalType": "string",
          "name": "",
          "type": "string"
        }
      ],
      "stateMutability": "view",
      "type": "function",
      "constant": true
    }
  ],
  "bytecode": "0x60806040526000600460006101000a81548160ff0219169083151502179055503480156200002c57600080fd5b50604051620038a6380380620038a683398181016040528101906200005291906200072a565b60008060006101000a81548160ff0219169083151502179055506200007e8284620000bb60201b60201c565b80600190805190602001906200009692919062000478565b506001600460006101000a81548160ff02191690831515021790555050505062000920565b600260003373ffffffffffffffffffffffffffffffffffffffff1673ffffffffffffffffffffffffffffffffffffffff16815260200190815260200160002060020160009054906101000a900473ffffffffffffffffffffffffffffffffffffffff1673ffffffffffffffffffffffffffffffffffffffff163373ffffffffffffffffffffffffffffffffffffffff161480620001655750600460009054906101000a900460ff16155b6200016f57600080fd5b6200017f6200046260201b60201c565b15620001c2576040517f08c379a0000000000000000000000000000000000000000000000000000000008152600401620001b99062000825565b60405180910390fd5b600260008273ffffffffffffffffffffffffffffffffffffffff1673ffffffffffffffffffffffffffffffffffffffff16815260200190815260200160002060020160009054906101000a900473ffffffffffffffffffffffffffffffffffffffff1673ffffffffffffffffffffffffffffffffffffffff168173ffffffffffffffffffffffffffffffffffffffff161415806200026d5750600460009054906101000a900460ff16155b6200027757600080fd5b600073ffffffffffffffffffffffffffffffffffffffff168173ffffffffffffffffffffffffffffffffffffffff161415620002b257600080fd5b60006040518060800160405280600081526020018481526020018373ffffffffffffffffffffffffffffffffffffffff168152602001600081525090506003829080600181540180825580915050600190039060005260206000200160009091909190916101000a81548173ffffffffffffffffffffffffffffffffffffffff021916908373ffffffffffffffffffffffffffffffffffffffff160217905550600160038054905062000366919062000880565b81600001818152505080600260008473ffffffffffffffffffffffffffffffffffffffff1673ffffffffffffffffffffffffffffffffffffffff168152602001908152602001600020600082015181600001556020820151816001019080519060200190620003d792919062000478565b5060408201518160020160006101000a81548173ffffffffffffffffffffffffffffffffffffffff021916908373ffffffffffffffffffffffffffffffffffffffff1602179055506060820151816003015590505080600001517f663edc42a721f7c73209441ed31f141cef6912283c680024547d950559c5559160405160405180910390a2505050565b60008060009054906101000a900460ff16905090565b8280546200048690620008ea565b90600052602060002090601f016020900481019282620004aa5760008555620004f6565b82601f10620004c557805160ff1916838001178555620004f6565b82800160010185558215620004f6579182015b82811115620004f5578251825591602001919060010190620004d8565b5b50905062000505919062000509565b5090565b5b80821115620005245760008160009055506001016200050a565b5090565b6000604051905090565b600080fd5b600080fd5b600073ffffffffffffffffffffffffffffffffffffffff82169050919050565b600062000569826200053c565b9050919050565b6200057b816200055c565b81146200058757600080fd5b50565b6000815190506200059b8162000570565b92915050565b600080fd5b600080fd5b6000601f19601f8301169050919050565b7f4e487b7100000000000000000000000000000000000000000000000000000000600052604160045260246000fd5b620005f682620005ab565b810181811067ffffffffffffffff82111715620006185762000617620005bc565b5b80604052505050565b60006200062d62000528565b90506200063b8282620005eb565b919050565b600067ffffffffffffffff8211156200065e576200065d620005bc565b5b6200066982620005ab565b9050602081019050919050565b60005b838110156200069657808201518184015260208101905062000679565b83811115620006a6576000848401525b50505050565b6000620006c3620006bd8462000640565b62000621565b905082815260208101848484011115620006e257620006e1620005a6565b5b620006ef84828562000676565b509392505050565b600082601f8301126200070f576200070e620005a1565b5b815162000721848260208601620006ac565b91505092915050565b60008060006060848603121562000746576200074562000532565b5b600062000756868287016200058a565b935050602084015167ffffffffffffffff8111156200077a576200077962000537565b5b6200078886828701620006f7565b925050604084015167ffffffffffffffff811115620007ac57620007ab62000537565b5b620007ba86828701620006f7565b9150509250925092565b600082825260208201905092915050565b7f5061757361626c653a2070617573656400000000000000000000000000000000600082015250565b60006200080d601083620007c4565b91506200081a82620007d5565b602082019050919050565b600060208201905081810360008301526200084081620007fe565b9050919050565b6000819050919050565b7f4e487b7100000000000000000000000000000000000000000000000000000000600052601160045260246000fd5b60006200088d8262000847565b91506200089a8362000847565b925082821015620008b057620008af62000851565b5b828203905092915050565b7f4e487b7100000000000000000000000000000000000000000000000000000000600052602260045260246000fd5b600060028204905060018216806200090357607f821691505b602082108114156200091a5762000919620008bb565b5b50919050565b612f7680620009306000396000f3fe6080604052600436106101355760003560e01c80638f081ece116100ab578063b4d95e711161006f578063b4d95e711461046d578063bc35008814610496578063c3e1888e146104b2578063cc4e6299146104de578063f8b2cb4f1461051b578063ff419aa21461055857610135565b80638f081ece1461035c578063997072f71461038757806399f62bab146103b2578063af4afe0a146103ef578063aff4b8491461043057610135565b80635b8f3d14116100fd5780635b8f3d14146102225780635c975abb1461024d5780636c02c75c14610278578063747442d3146102b55780637a9262a2146102de57806387d817891461031b57610135565b806308ae4b0c1461013a57806328c847931461017a5780633ccfd60b146101b757806345e39705146101ce5780634a79d50c146101f7575b600080fd5b34801561014657600080fd5b50610161600480360381019061015c919061234c565b610595565b6040516101719493929190612453565b60405180910390f35b34801561018657600080fd5b506101a1600480360381019061019c91906124cb565b61066d565b6040516101ae9190612526565b60405180910390f35b3480156101c357600080fd5b506101cc6106d8565b005b3480156101da57600080fd5b506101f560048036038101906101f09190612676565b610927565b005b34801561020357600080fd5b5061020c610cba565b60405161021991906126d2565b60405180910390f35b34801561022e57600080fd5b50610237610d48565b6040516102449190612526565b60405180910390f35b34801561025957600080fd5b50610262610d5b565b60405161026f9190612526565b60405180910390f35b34801561028457600080fd5b5061029f600480360381019061029a91906126f4565b610d71565b6040516102ac91906127df565b60405180910390f35b3480156102c157600080fd5b506102dc60048036038101906102d7919061282d565b610e15565b005b3480156102ea57600080fd5b506103056004803603810190610300919061234c565b611079565b604051610312919061286d565b60405180910390f35b34801561032757600080fd5b50610342600480360381019061033d91906126f4565b611091565b604051610353959493929190612888565b60405180910390f35b34801561036857600080fd5b5061037161119f565b60405161037e919061286d565b60405180910390f35b34801561039357600080fd5b5061039c6111a5565b6040516103a9919061286d565b60405180910390f35b3480156103be57600080fd5b506103d960048036038101906103d4919061234c565b6111b2565b6040516103e6919061286d565b60405180910390f35b3480156103fb57600080fd5b50610416600480360381019061041191906126f4565b6111fb565b6040516104279594939291906128e2565b60405180910390f35b34801561043c57600080fd5b506104576004803603810190610452919061234c565b6112d9565b60405161046491906126d2565b60405180910390f35b34801561047957600080fd5b50610494600480360381019061048f9190612a04565b6113ad565b005b6104b060048036038101906104ab9190612676565b6115ea565b005b3480156104be57600080fd5b506104c761193a565b6040516104d5929190612aa3565b60405180910390f35b3480156104ea57600080fd5b50610505600480360381019061050091906126f4565b611b0f565b6040516105129190612acc565b60405180910390f35b34801561052757600080fd5b50610542600480360381019061053d919061234c565b611b4e565b60405161054f9190612ae7565b60405180910390f35b34801561056457600080fd5b5061057f600480360381019061057a91906126f4565b611b9a565b60405161058c919061286d565b60405180910390f35b60026020528060005260406000206000915090508060000154908060010180546105be90612b31565b80601f01602080910402602001604051908101604052809291908181526020018280546105ea90612b31565b80156106375780601f1061060c57610100808354040283529160200191610637565b820191906000526020600020905b81548152906001019060200180831161061a57829003601f168201915b5050505050908060020160009054906101000a900473ffffffffffffffffffffffffffffffffffffffff16908060030154905084565b60006006600084815260200190815260200160002060060160008373ffffffffffffffffffffffffffffffffffffffff1673ffffffffffffffffffffffffffffffffffffffff16815260200190815260200160002060009054906101000a900460ff16905092915050565b600260003373ffffffffffffffffffffffffffffffffffffffff1673ffffffffffffffffffffffffffffffffffffffff16815260200190815260200160002060020160009054906101000a900473ffffffffffffffffffffffffffffffffffffffff1673ffffffffffffffffffffffffffffffffffffffff163373ffffffffffffffffffffffffffffffffffffffff1614806107815750600460009054906101000a900460ff16155b61078a57600080fd5b6000600860003373ffffffffffffffffffffffffffffffffffffffff1673ffffffffffffffffffffffffffffffffffffffff16815260200190815260200160002054116107d657600080fd5b6000600860003373ffffffffffffffffffffffffffffffffffffffff1673ffffffffffffffffffffffffffffffffffffffff1681526020019081526020016000205490506000600860003373ffffffffffffffffffffffffffffffffffffffff1673ffffffffffffffffffffffffffffffffffffffff1681526020019081526020016000208190555060003373ffffffffffffffffffffffffffffffffffffffff168260405161088590612b94565b60006040518083038185875af1925050503d80600081146108c2576040519150601f19603f3d011682016040523d82523d6000602084013e6108c7565b606091505b50509050806108d557600080fd5b3373ffffffffffffffffffffffffffffffffffffffff167f7fcf532c15f0a6db0bd6d0e038bea71d30d808c7d98cb3bf7268a95bf5081b658360405161091b919061286d565b60405180910390a25050565b600260003373ffffffffffffffffffffffffffffffffffffffff1673ffffffffffffffffffffffffffffffffffffffff16815260200190815260200160002060020160009054906101000a900473ffffffffffffffffffffffffffffffffffffffff1673ffffffffffffffffffffffffffffffffffffffff163373ffffffffffffffffffffffffffffffffffffffff1614806109d05750600460009054906101000a900460ff16155b6109d957600080fd5b6109e1610d5b565b15610a21576040517f08c379a0000000000000000000000000000000000000000000000000000000008152600401610a1890612bf5565b60405180910390fd5b600260008273ffffffffffffffffffffffffffffffffffffffff1673ffffffffffffffffffffffffffffffffffffffff16815260200190815260200160002060020160009054906101000a900473ffffffffffffffffffffffffffffffffffffffff1673ffffffffffffffffffffffffffffffffffffffff168173ffffffffffffffffffffffffffffffffffffffff16141580610acb5750600460009054906101000a900460ff16155b610ad457600080fd5b600073ffffffffffffffffffffffffffffffffffffffff168173ffffffffffffffffffffffffffffffffffffffff161415610b0e57600080fd5b60006040518060800160405280600081526020018481526020018373ffffffffffffffffffffffffffffffffffffffff168152602001600081525090506003829080600181540180825580915050600190039060005260206000200160009091909190916101000a81548173ffffffffffffffffffffffffffffffffffffffff021916908373ffffffffffffffffffffffffffffffffffffffff1602179055506001600380549050610bc09190612c44565b81600001818152505080600260008473ffffffffffffffffffffffffffffffffffffffff1673ffffffffffffffffffffffffffffffffffffffff168152602001908152602001600020600082015181600001556020820151816001019080519060200190610c2f9291906121ad565b5060408201518160020160006101000a81548173ffffffffffffffffffffffffffffffffffffffff021916908373ffffffffffffffffffffffffffffffffffffffff1602179055506060820151816003015590505080600001517f663edc42a721f7c73209441ed31f141cef6912283c680024547d950559c5559160405160405180910390a2505050565b60018054610cc790612b31565b80601f0160208091040260200160405190810160405280929190818152602001828054610cf390612b31565b8015610d405780601f10610d1557610100808354040283529160200191610d40565b820191906000526020600020905b815481529060010190602001808311610d2357829003601f168201915b505050505081565b600460009054906101000a900460ff1681565b60008060009054906101000a900460ff16905090565b606060066000838152602001908152602001600020600501805480602002602001604051908101604052809291908181526020018280548015610e0957602002820191906000526020600020905b8160009054906101000a900473ffffffffffffffffffffffffffffffffffffffff1673ffffffffffffffffffffffffffffffffffffffff1681526020019060010190808311610dbf575b50505050509050919050565b600260003373ffffffffffffffffffffffffffffffffffffffff1673ffffffffffffffffffffffffffffffffffffffff16815260200190815260200160002060020160009054906101000a900473ffffffffffffffffffffffffffffffffffffffff1673ffffffffffffffffffffffffffffffffffffffff163373ffffffffffffffffffffffffffffffffffffffff161480610ebe5750600460009054906101000a900460ff16155b610ec757600080fd5b610ecf610d5b565b15610f0f576040517f08c379a0000000000000000000000000000000000000000000000000000000008152600401610f0690612bf5565b60405180910390fd5b60006006600084815260200190815260200160002090506224ea008160030154610f399190612c78565b4210610f4457600080fd5b8115158160060160003373ffffffffffffffffffffffffffffffffffffffff1673ffffffffffffffffffffffffffffffffffffffff16815260200190815260200160002060009054906101000a900460ff1615151415610fa357600080fd5b6000610fae84611b9a565b905060008114610fc257610fc184611c8d565b5b828260060160003373ffffffffffffffffffffffffffffffffffffffff1673ffffffffffffffffffffffffffffffffffffffff16815260200190815260200160002060006101000a81548160ff021916908315150217905550600061102685611b9a565b90506000811461103a5761103985611c9b565b5b847f23c19de93ce378d27f3b34f74ae236838987d9179c902bca3cdc3bb93bd731448560405161106a9190612526565b60405180910390a25050505050565b60086020528060005260406000206000915090505481565b600781815481106110a157600080fd5b90600052602060002090600502016000915090508060000180546110c490612b31565b80601f01602080910402602001604051908101604052809291908181526020018280546110f090612b31565b801561113d5780601f106111125761010080835404028352916020019161113d565b820191906000526020600020905b81548152906001019060200180831161112057829003601f168201915b5050505050908060010154908060020154908060030160009054906101000a900473ffffffffffffffffffffffffffffffffffffffff16908060040160009054906101000a900473ffffffffffffffffffffffffffffffffffffffff16905085565b60055481565b6000600380549050905090565b6000600860008373ffffffffffffffffffffffffffffffffffffffff1673ffffffffffffffffffffffffffffffffffffffff168152602001908152602001600020549050919050565b600660205280600052604060002060009150905080600001805461121e90612b31565b80601f016020809104026020016040519081016040528092919081815260200182805461124a90612b31565b80156112975780601f1061126c57610100808354040283529160200191611297565b820191906000526020600020905b81548152906001019060200180831161127a57829003601f168201915b5050505050908060010154908060020154908060030154908060040160009054906101000a900473ffffffffffffffffffffffffffffffffffffffff16905085565b6060600260008373ffffffffffffffffffffffffffffffffffffffff1673ffffffffffffffffffffffffffffffffffffffff168152602001908152602001600020600101805461132890612b31565b80601f016020809104026020016040519081016040528092919081815260200182805461135490612b31565b80156113a15780601f10611376576101008083540402835291602001916113a1565b820191906000526020600020905b81548152906001019060200180831161138457829003601f168201915b50505050509050919050565b600260003373ffffffffffffffffffffffffffffffffffffffff1673ffffffffffffffffffffffffffffffffffffffff16815260200190815260200160002060020160009054906101000a900473ffffffffffffffffffffffffffffffffffffffff1673ffffffffffffffffffffffffffffffffffffffff163373ffffffffffffffffffffffffffffffffffffffff1614806114565750600460009054906101000a900460ff16155b61145f57600080fd5b611467610d5b565b156114a7576040517f08c379a000000000000000000000000000000000000000000000000000000000815260040161149e90612bf5565b60405180910390fd5b600083116114b457600080fd5b600081511180156114ca5750601460ff16815111155b6114d357600080fd5b6114dc81611ca9565b6114e557600080fd5b6114ee81611d09565b6114f757600080fd5b6000600660006005600081548092919061151090612cce565b91905055815260200190815260200160002090508481600001908051906020019061153c9291906121ad565b50838160010181905550828160020181905550338160040160006101000a81548173ffffffffffffffffffffffffffffffffffffffff021916908373ffffffffffffffffffffffffffffffffffffffff160217905550428160030181905550818160050190805190602001906115b3929190612233565b506005547f0196a834ab6362d8b08696adb04296039cef5ac7132808904aa83f47bf7f4e5e60405160405180910390a25050505050565b600260003373ffffffffffffffffffffffffffffffffffffffff1673ffffffffffffffffffffffffffffffffffffffff16815260200190815260200160002060020160009054906101000a900473ffffffffffffffffffffffffffffffffffffffff1673ffffffffffffffffffffffffffffffffffffffff163373ffffffffffffffffffffffffffffffffffffffff1614806116935750600460009054906101000a900460ff16155b61169c57600080fd5b6116a4610d5b565b156116e4576040517f08c379a00000000000000000000000000000000000000000000000000000000081526004016116db90612bf5565b60405180910390fd5b6000339050600034116116f657600080fd5b8073ffffffffffffffffffffffffffffffffffffffff168273ffffffffffffffffffffffffffffffffffffffff16141561172f57600080fd5b61173882611dee565b61174157600080fd5b60006040518060a001604052808581526020013481526020014281526020018373ffffffffffffffffffffffffffffffffffffffff1681526020018473ffffffffffffffffffffffffffffffffffffffff168152509050600781908060018154018082558091505060019003906000526020600020906005020160009091909190915060008201518160000190805190602001906117e09291906121ad565b50602082015181600101556040820151816002015560608201518160030160006101000a81548173ffffffffffffffffffffffffffffffffffffffff021916908373ffffffffffffffffffffffffffffffffffffffff16021790555060808201518160040160006101000a81548173ffffffffffffffffffffffffffffffffffffffff021916908373ffffffffffffffffffffffffffffffffffffffff160217905550505034600860008573ffffffffffffffffffffffffffffffffffffffff1673ffffffffffffffffffffffffffffffffffffffff16815260200190815260200160002060008282546118d49190612c78565b925050819055506118e481611e88565b8173ffffffffffffffffffffffffffffffffffffffff167f9d1bcf0ff0f343cd9c63d8f1eb8a81b7884dc4151cb4eb64d0281f7ecd697548843460405161192c929190612d17565b60405180910390a250505050565b600080600060026000600360008154811061195857611957612d40565b5b9060005260206000200160009054906101000a900473ffffffffffffffffffffffffffffffffffffffff1673ffffffffffffffffffffffffffffffffffffffff1673ffffffffffffffffffffffffffffffffffffffff168152602001908152602001600020600301549050600080600190505b600380549050811015611b0257611a628360026000600385815481106119f4576119f3612d40565b5b9060005260206000200160009054906101000a900473ffffffffffffffffffffffffffffffffffffffff1673ffffffffffffffffffffffffffffffffffffffff1673ffffffffffffffffffffffffffffffffffffffff16815260200190815260200160002060030154611f4d565b8314611aef576002600060038381548110611a8057611a7f612d40565b5b9060005260206000200160009054906101000a900473ffffffffffffffffffffffffffffffffffffffff1673ffffffffffffffffffffffffffffffffffffffff1673ffffffffffffffffffffffffffffffffffffffff1681526020019081526020016000206003015492508091505b8080611afa90612cce565b9150506119cb565b5081819350935050509091565b60038181548110611b1f57600080fd5b906000526020600020016000915054906101000a900473ffffffffffffffffffffffffffffffffffffffff1681565b6000600260008373ffffffffffffffffffffffffffffffffffffffff1673ffffffffffffffffffffffffffffffffffffffff168152602001908152602001600020600301549050919050565b6000806006600084815260200190815260200160002090506000805b8260050180549050811015611c825760011515836006016000856005018481548110611be557611be4612d40565b5b9060005260206000200160009054906101000a900473ffffffffffffffffffffffffffffffffffffffff1673ffffffffffffffffffffffffffffffffffffffff1673ffffffffffffffffffffffffffffffffffffffff16815260200190815260200160002060009054906101000a900460ff1615151415611c6f578180611c6b90612cce565b9250505b8080611c7a90612cce565b915050611bb6565b508092505050919050565b611c98816001611f67565b50565b611ca6816000611f67565b50565b600080600090505b8251811015611cfe57611cdd838281518110611cd057611ccf612d40565b5b6020026020010151611dee565b611ceb576000915050611d04565b8080611cf690612cce565b915050611cb1565b50600190505b919050565b60008060005b8351811015611de257600091506000848281518110611d3157611d30612d40565b5b6020026020010151905060005b8551811015611dcd57858181518110611d5a57611d59612d40565b5b602002602001015173ffffffffffffffffffffffffffffffffffffffff168273ffffffffffffffffffffffffffffffffffffffff161415611da4578380611da090612cce565b9450505b6002841415611dba576000945050505050611de9565b8080611dc590612cce565b915050611d3e565b50508080611dda90612cce565b915050611d0f565b5060019150505b919050565b6000600260008373ffffffffffffffffffffffffffffffffffffffff1673ffffffffffffffffffffffffffffffffffffffff16815260200190815260200160002060020160009054906101000a900473ffffffffffffffffffffffffffffffffffffffff1673ffffffffffffffffffffffffffffffffffffffff168273ffffffffffffffffffffffffffffffffffffffff16149050919050565b806020015160026000836080015173ffffffffffffffffffffffffffffffffffffffff1673ffffffffffffffffffffffffffffffffffffffff1681526020019081526020016000206003016000828254611ee29190612d6f565b92505081905550806020015160026000836060015173ffffffffffffffffffffffffffffffffffffffff1673ffffffffffffffffffffffffffffffffffffffff1681526020019081526020016000206003016000828254611f439190612e03565b9250508190555050565b600081831215611f5d5781611f5f565b825b905092915050565b6000611f7283611b9a565b905060008111611f8157600080fd5b60006006600085815260200190815260200160002090506000828260010154611faa9190612ec6565b90506000826001015490508415611fd45781611fc590612ef7565b915080611fd190612ef7565b90505b80600260008560040160009054906101000a900473ffffffffffffffffffffffffffffffffffffffff1673ffffffffffffffffffffffffffffffffffffffff1673ffffffffffffffffffffffffffffffffffffffff168152602001908152602001600020600301600082825461204a9190612e03565b9250508190555060005b83600501805490508110156121a45783600601600085600501838154811061207f5761207e612d40565b5b9060005260206000200160009054906101000a900473ffffffffffffffffffffffffffffffffffffffff1673ffffffffffffffffffffffffffffffffffffffff1673ffffffffffffffffffffffffffffffffffffffff16815260200190815260200160002060009054906101000a900460ff161561219157826002600086600501848154811061211257612111612d40565b5b9060005260206000200160009054906101000a900473ffffffffffffffffffffffffffffffffffffffff1673ffffffffffffffffffffffffffffffffffffffff1673ffffffffffffffffffffffffffffffffffffffff16815260200190815260200160002060030160008282546121899190612d6f565b925050819055505b808061219c90612cce565b915050612054565b50505050505050565b8280546121b990612b31565b90600052602060002090601f0160209004810192826121db5760008555612222565b82601f106121f457805160ff1916838001178555612222565b82800160010185558215612222579182015b82811115612221578251825591602001919060010190612206565b5b50905061222f91906122bd565b5090565b8280548282559060005260206000209081019282156122ac579160200282015b828111156122ab5782518260006101000a81548173ffffffffffffffffffffffffffffffffffffffff021916908373ffffffffffffffffffffffffffffffffffffffff16021790555091602001919060010190612253565b5b5090506122b991906122bd565b5090565b5b808211156122d65760008160009055506001016122be565b5090565b6000604051905090565b600080fd5b600080fd5b600073ffffffffffffffffffffffffffffffffffffffff82169050919050565b6000612319826122ee565b9050919050565b6123298161230e565b811461233457600080fd5b50565b60008135905061234681612320565b92915050565b600060208284031215612362576123616122e4565b5b600061237084828501612337565b91505092915050565b6000819050919050565b61238c81612379565b82525050565b600081519050919050565b600082825260208201905092915050565b60005b838110156123cc5780820151818401526020810190506123b1565b838111156123db576000848401525b50505050565b6000601f19601f8301169050919050565b60006123fd82612392565b612407818561239d565b93506124178185602086016123ae565b612420816123e1565b840191505092915050565b6124348161230e565b82525050565b6000819050919050565b61244d8161243a565b82525050565b60006080820190506124686000830187612383565b818103602083015261247a81866123f2565b9050612489604083018561242b565b6124966060830184612444565b95945050505050565b6124a881612379565b81146124b357600080fd5b50565b6000813590506124c58161249f565b92915050565b600080604083850312156124e2576124e16122e4565b5b60006124f0858286016124b6565b925050602061250185828601612337565b9150509250929050565b60008115159050919050565b6125208161250b565b82525050565b600060208201905061253b6000830184612517565b92915050565b600080fd5b600080fd5b7f4e487b7100000000000000000000000000000000000000000000000000000000600052604160045260246000fd5b612583826123e1565b810181811067ffffffffffffffff821117156125a2576125a161254b565b5b80604052505050565b60006125b56122da565b90506125c1828261257a565b919050565b600067ffffffffffffffff8211156125e1576125e061254b565b5b6125ea826123e1565b9050602081019050919050565b82818337600083830152505050565b6000612619612614846125c6565b6125ab565b90508281526020810184848401111561263557612634612546565b5b6126408482856125f7565b509392505050565b600082601f83011261265d5761265c612541565b5b813561266d848260208601612606565b91505092915050565b6000806040838503121561268d5761268c6122e4565b5b600083013567ffffffffffffffff8111156126ab576126aa6122e9565b5b6126b785828601612648565b92505060206126c885828601612337565b9150509250929050565b600060208201905081810360008301526126ec81846123f2565b905092915050565b60006020828403121561270a576127096122e4565b5b6000612718848285016124b6565b91505092915050565b600081519050919050565b600082825260208201905092915050565b6000819050602082019050919050565b6127568161230e565b82525050565b6000612768838361274d565b60208301905092915050565b6000602082019050919050565b600061278c82612721565b612796818561272c565b93506127a18361273d565b8060005b838110156127d25781516127b9888261275c565b97506127c483612774565b9250506001810190506127a5565b5085935050505092915050565b600060208201905081810360008301526127f98184612781565b905092915050565b61280a8161250b565b811461281557600080fd5b50565b60008135905061282781612801565b92915050565b60008060408385031215612844576128436122e4565b5b6000612852858286016124b6565b925050602061286385828601612818565b9150509250929050565b60006020820190506128826000830184612383565b92915050565b600060a08201905081810360008301526128a281886123f2565b90506128b16020830187612383565b6128be6040830186612383565b6128cb606083018561242b565b6128d8608083018461242b565b9695505050505050565b600060a08201905081810360008301526128fc81886123f2565b905061290b6020830187612383565b6129186040830186612383565b6129256060830185612383565b612932608083018461242b565b9695505050505050565b600067ffffffffffffffff8211156129575761295661254b565b5b602082029050602081019050919050565b600080fd5b600061298061297b8461293c565b6125ab565b905080838252602082019050602084028301858111156129a3576129a2612968565b5b835b818110156129cc57806129b88882612337565b8452602084019350506020810190506129a5565b5050509392505050565b600082601f8301126129eb576129ea612541565b5b81356129fb84826020860161296d565b91505092915050565b60008060008060808587031215612a1e57612a1d6122e4565b5b600085013567ffffffffffffffff811115612a3c57612a3b6122e9565b5b612a4887828801612648565b9450506020612a59878288016124b6565b9350506040612a6a878288016124b6565b925050606085013567ffffffffffffffff811115612a8b57612a8a6122e9565b5b612a97878288016129d6565b91505092959194509250565b6000604082019050612ab86000830185612444565b612ac56020830184612383565b9392505050565b6000602082019050612ae1600083018461242b565b92915050565b6000602082019050612afc6000830184612444565b92915050565b7f4e487b7100000000000000000000000000000000000000000000000000000000600052602260045260246000fd5b60006002820490506001821680612b4957607f821691505b60208210811415612b5d57612b5c612b02565b5b50919050565b600081905092915050565b50565b6000612b7e600083612b63565b9150612b8982612b6e565b600082019050919050565b6000612b9f82612b71565b9150819050919050565b7f5061757361626c653a2070617573656400000000000000000000000000000000600082015250565b6000612bdf60108361239d565b9150612bea82612ba9565b602082019050919050565b60006020820190508181036000830152612c0e81612bd2565b9050919050565b7f4e487b7100000000000000000000000000000000000000000000000000000000600052601160045260246000fd5b6000612c4f82612379565b9150612c5a83612379565b925082821015612c6d57612c6c612c15565b5b828203905092915050565b6000612c8382612379565b9150612c8e83612379565b9250827fffffffffffffffffffffffffffffffffffffffffffffffffffffffffffffffff03821115612cc357612cc2612c15565b5b828201905092915050565b6000612cd982612379565b91507fffffffffffffffffffffffffffffffffffffffffffffffffffffffffffffffff821415612d0c57612d0b612c15565b5b600182019050919050565b6000604082019050612d2c600083018561242b565b612d396020830184612383565b9392505050565b7f4e487b7100000000000000000000000000000000000000000000000000000000600052603260045260246000fd5b6000612d7a8261243a565b9150612d858361243a565b9250827f800000000000000000000000000000000000000000000000000000000000000001821260008412151615612dc057612dbf612c15565b5b827f7fffffffffffffffffffffffffffffffffffffffffffffffffffffffffffffff018213600084121615612df857612df7612c15565b5b828203905092915050565b6000612e0e8261243a565b9150612e198361243a565b9250817f7fffffffffffffffffffffffffffffffffffffffffffffffffffffffffffffff03831360008312151615612e5457612e53612c15565b5b817f8000000000000000000000000000000000000000000000000000000000000000038312600083121615612e8c57612e8b612c15565b5b828201905092915050565b7f4e487b7100000000000000000000000000000000000000000000000000000000600052601260045260246000fd5b6000612ed182612379565b9150612edc83612379565b925082612eec57612eeb612e97565b5b828204905092915050565b6000612f028261243a565b91507f8000000000000000000000000000000000000000000000000000000000000000821415612f3557612f34612c15565b5b81600003905091905056fea26469706673582212204436e2231ee07d9e88923b61293695260ee4a4f65af51055601daeaf8e443e4a64736f6c63430008090033",
  "immutableReferences": {},
  "source": "// SPDX-License-Identifier: MIT\npragma solidity ^0.8.0;\nimport \"@openzeppelin/contracts/security/Pausable.sol\";\n\n/// @title ExpenseGroup smart contract allows to share and settle a group of expenses and track debts and credits.\n/// @author Andrs Buenestado\ncontract ExpenseGroup is Pausable {\n    \n    /**\n    Max number of payees for a expense (Restriction to avoid high gas costs)\n    */\n    uint8 constant MAX_PAYEES = 20;\n\n    /**\n    Member is a person or company which is part of current expense group.\n     */\n    struct Member {\n        uint256 identifier;\n        string name;\n        address memberAddress;\n        int256 balance;\n    }\n\n    /**\n    Expense is a cost incurred which needs to be paid back.\n    It has an impact on the balance for payer / payees only when a payee gives its approval.\n     */\n    struct Expense {\n        string name;\n        uint256 amount;\n        uint256 valueDate;\n        uint256 creationDate;\n        address payer;\n        address[] payees;\n        mapping(address => bool) approvals;\n    }\n\n    /**\n    Payment is money transfer from one member to another.\n    It can be use to settle a debt or a credit.\n     */\n    struct Payment {\n        string title;\n        uint256 amount;\n        uint256 valueDate;\n        address payer;\n        address payee;\n    }\n\n    string public title;\n\n    /// Users of current expense group\n    mapping(address => Member) public members;\n    \n    // Addresses of all the members\n    address[] public memberAddresses;\n\n    /// Allow the creation of the first member when the contract instance is created.\n    bool public isContractInstanceCreated = false;\n\n    /// A mapping of expense identifier and expense.\n    uint256 public numExpenses;\n    mapping(uint256 => Expense) public expenses;\n\n    Payment[] public payments;\n\n    /// A mapping of all the available withdrawals per address.\n    mapping(address => uint256) public withdrawals;\n\n    /// Restricted to a member (or first constant instantiation)\n    modifier onlyMember() {\n        require(\n            msg.sender == members[msg.sender].memberAddress ||\n                !isContractInstanceCreated\n        );\n        _;\n    }\n\n    /// @notice Constructor. The creator of the smart contract will be the first member.\n    /// @param _owner address of the first member.\n    /// @param _ownerName Yhe name of the first member.\n    /// @param _title ExpenseGroup title \n    constructor(address _owner, string memory _ownerName, string memory _title) {\n        addMember(_ownerName, _owner);\n        title = _title;\n        isContractInstanceCreated = true;\n    }\n\n    /// @notice Event triggered when a new member is added\n    /// @param _memberId the identifier of the member.\n    event MemberAdded(uint256 indexed _memberId);\n\n    /// @notice Event triggered when a new expense is added\n    /// @param _expenseId the identifier of the expense.\n    event ExpenseAdded(uint256 indexed _expenseId);\n    \n    /// @notice Event triggered when an existing expense is approved\n    /// @param _expenseId the identifier of the expense.\n    /// @param _approved approval (true) or disapproval (false)\n    event ExpenseApproved(uint256 indexed _expenseId, bool _approved);\n    \n    /// @notice Event triggered when a payment is made\n    /// @param _payer payer address.\n    /// @param _payee payee address\n    /// @param _amount amount paid\n    event PaymentAdded(address indexed _payer, address _payee, uint256 _amount);\n    \n    /// @notice Event triggered when a withdrawal is made    \n    /// @param _member member address.\n    /// @param _amount withdrawn amount    \n    event Withdrawal(address indexed _member, uint256 _amount);\n\n    /// @notice Adds a member. Only registered member can add new members.\n    /// @param _name the name or alias of the member.\n    /// @param _memberAddress the address of the member.\n    function addMember(string memory _name, address _memberAddress)\n        public\n        onlyMember\n        whenNotPaused\n    {\n        require(\n            _memberAddress != members[_memberAddress].memberAddress ||\n                !isContractInstanceCreated\n        );\n\n        require(_memberAddress != address(0));\n\n        Member memory member = Member({\n            identifier: 0,\n            name: _name,\n            memberAddress: _memberAddress,\n            balance: 0\n        });\n\n        memberAddresses.push(_memberAddress);\n        member.identifier = memberAddresses.length - 1;\n        members[_memberAddress] = member;\n\n        emit MemberAdded(member.identifier);\n    }\n\n    /// @notice Returns the current number of members\n    function getMemberCount() public view returns (uint256)  {\n        return memberAddresses.length;\n    }\n\n    /// @notice Returns the payees for a expense\n    function getPayees(uint256 expenseId) public view returns(address[] memory)  {\n        return expenses[expenseId].payees;\n    }\n\n    /// @notice Add an expense as payer. By default, the payer is the creator of the expense.\n    /// @dev The number of payees are limited to a fixed number to avoid gas limit using loop.\n    /// @param _title the title of the expense.\n    /// @param _amount the amount of the expense. Must be superior to zero.\n    /// @param _valueDate the value date of the expense.\n    /// @param _payees the list of payee of the expense. The payer can be part of the payees.\n    function addExpense(\n        string memory _title,\n        uint256 _amount,\n        uint256 _valueDate,\n        address[] memory _payees\n    ) public onlyMember whenNotPaused {\n        require(_amount > 0);\n        require(_payees.length > 0 && _payees.length <= MAX_PAYEES);\n        require(_areAllMembers(_payees));\n        require(_areAllAddressesUnique(_payees));\n\n        /// NOTE: Expense contains a mapping 'approvals' and data location needs to be storage.\n        Expense storage expense = expenses[numExpenses++];\n\n        expense.name = _title;\n        expense.amount = _amount;\n        expense.valueDate = _valueDate;\n        expense.payer = msg.sender;\n        expense.creationDate = block.timestamp;\n        expense.payees = _payees;\n\n        emit ExpenseAdded(numExpenses);\n    }\n\n    /// @notice Set member's approval for an expense. Each member has 4 weeks to set its approval.\n    /// @param _expenseId the identifier of the expense.\n    /// @param _approved the approval of the member : true of false.\n    function approve(uint256 _expenseId, bool _approved)\n        public\n        onlyMember\n        whenNotPaused\n    {\n        Expense storage expense = expenses[_expenseId];\n        require(block.timestamp < expense.creationDate + 4 weeks);\n        require(expense.approvals[msg.sender] != _approved);\n\n        uint256 numberOfApprovalsBefore = getNumberOfApprovals(_expenseId);\n\n        /// If the number of approvals before the call is not 0, we revert the balance to the previous state without the expense.\n        if (numberOfApprovalsBefore != 0) {\n            _removeFromBalance(_expenseId);\n        }\n\n        /// Update the number of approvals\n        expense.approvals[msg.sender] = _approved;\n\n        uint256 numberOfApprovalsAfter = getNumberOfApprovals(_expenseId);\n\n        /// If the number of approvals after is not 0, we syncrohonize the balance.\n        if (numberOfApprovalsAfter != 0) {\n            _addToBalance(_expenseId);\n        }\n\n        emit ExpenseApproved(_expenseId, _approved);\n    }\n\n    /// @notice Create a Payment. Use this payable function send money to the smart contract.\n    /// @param _title the title of the payment\n    /// @param _payee the payee of the payment\n    function addPayment(string memory _title, address _payee)\n        public\n        payable\n        onlyMember\n        whenNotPaused\n    {\n        address _payer = msg.sender;\n        require(msg.value > 0);\n        require(_payee != _payer);\n        require(_isMember(_payee));\n\n        Payment memory payment = Payment({\n            title: _title,\n            amount: msg.value,\n            valueDate: block.timestamp,\n            payer: _payer,\n            payee: _payee\n        });\n\n        payments.push(payment);\n        withdrawals[_payee] += msg.value;\n        _synchronizeBalanceAfterPayment(payment);\n\n        emit PaymentAdded(_payer, _payee, msg.value);\n    }\n\n    /// @notice Allow each user to withdraw its money from the smart contract\n    function withdraw() public onlyMember {\n        require(withdrawals[msg.sender] > 0);\n        uint256 amount = withdrawals[msg.sender];\n        withdrawals[msg.sender] = 0;\n\n        (bool success, ) = msg.sender.call{value: amount}(\"\");\n        require(success);\n\n        emit Withdrawal(msg.sender, amount);\n    }\n\n    /// @notice Get the max of all balances.\n    /// @return (max, index) where max is the max of all the balance and index is the index of the member.\n    function getMaxBalance() public view returns (int256, uint256) {\n        int256 max = members[memberAddresses[0]].balance;\n        uint256 index = 0;\n        for (uint256 i = 1; i < memberAddresses.length; i++) {\n            if (max != _getMax(max, members[memberAddresses[i]].balance)) {\n                max = members[memberAddresses[i]].balance;\n                index = i;\n            }\n        }\n        return (max, index);\n    }\n\n    /// @notice Get withdrawal per address\n    /// @return the available withdrawal for the member address\n    function getWithdrawal(address _memberAddress)\n        public\n        view\n        returns (uint256)\n    {\n        return withdrawals[_memberAddress];\n    }\n\n    /// @notice Get approval depending on the expense identifier and address of the member.\n    /// @param _expenseId the index of the expense\n    /// @param _memberAddress address of the payee\n    /// @return true if payee gave is approval, else false\n    function getApproval(uint256 _expenseId, address _memberAddress)\n        public\n        view\n        returns (bool)\n    {\n        return expenses[_expenseId].approvals[_memberAddress];\n    }\n\n    /// @notice Get the total number of approvals for a given expense.\n    /// @param _expenseId the index of the expense\n    /// @return the number of approvals\n    function getNumberOfApprovals(uint256 _expenseId)\n        public\n        view\n        returns (uint256)\n    {\n        Expense storage expense = expenses[_expenseId];\n        uint256 numberOfApprovals = 0;\n        for (uint256 i = 0; i < expense.payees.length; i++) {\n            if (expense.approvals[expense.payees[i]] == true) {\n                numberOfApprovals++;\n            }\n        }\n        return numberOfApprovals;\n    }\n\n    /// @notice Get the balance of a member.\n    /// @param _memberAddress the address of the member\n    /// @return the balance of the member\n    function getBalance(address _memberAddress) public view returns (int256) {\n        return members[_memberAddress].balance;\n    }\n\n    /// @notice Get the name of a member.\n    /// @param _memberAddress the address of the member\n    /// @return the name of the member\n    function getMemberName(address _memberAddress)\n        public\n        view\n        returns (string memory)\n    {\n        return members[_memberAddress].name;\n    }\n\n    /// @notice Check if there is duplicate inside array.\n    /// @param _list the list of address to check\n    /// @return true if there is duplicate, false otherwise\n    function _areAllAddressesUnique(address[] memory _list)\n        internal\n        pure\n        returns (bool)\n    {\n        uint256 counter;\n        for (uint256 i = 0; i < _list.length; i++) {\n            counter = 0;\n            address addr = _list[i];\n            for (uint256 j = 0; j < _list.length; j++) {\n                if (addr == _list[j]) {\n                    counter++;\n                }\n                if (counter == 2) {\n                    return false;\n                }\n            }\n        }\n\n        return true;\n    }\n\n    /// @notice Check if each address of the list is registered as member.\n    /// @param _list the list of address to check\n    /// @return true if all the list is registred as member, false otherwise\n    function _areAllMembers(address[] memory _list)\n        internal\n        view\n        returns (bool)\n    {\n        for (uint256 i = 0; i < _list.length; i++) {\n            if (!_isMember(_list[i])) {\n                return false;\n            }\n        }\n        return true;\n    }\n\n    /// @notice Check if each address of the list is registered as amember.\n    /// @param _memberAddress the address to check\n    /// @return true if all the list is registred as member, false otherwise\n    function _isMember(address _memberAddress) internal view returns (bool) {\n        return (_memberAddress == members[_memberAddress].memberAddress);\n    }\n\n    /// @notice Add the expense amount to the balance if there is some approval\n    /// @dev This function must be use if there is at list one approval in the expense\n    /// @param expenseId the index of the expense\n    function _addToBalance(uint256 expenseId) internal {\n        _calculateBalance(expenseId, false);\n    }\n\n    /// @notice Remove the expense amount from the balance if there is no approval\n    /// @dev This function must not be use if there is zero approval\n    /// @param expenseId the index of the expense\n    function _removeFromBalance(uint256 expenseId) internal {\n        _calculateBalance(expenseId, true);\n    }\n\n    /// @notice Calculate the balance after each approval / unapproval.\n    /// @param _expenseId the index of the expense\n    /// @param _isRemoved indicate if the expense must be reverted or synchronized\n    function _calculateBalance(uint256 _expenseId, bool _isRemoved) internal {\n        uint256 contributors = getNumberOfApprovals(_expenseId);\n        require(contributors > 0);\n        Expense storage expense = expenses[_expenseId];\n        int256 _portion = int256(expense.amount / contributors);\n        int256 _amount = int256(expense.amount);\n\n        if (_isRemoved) {\n            _portion = -(_portion);\n            _amount = -(_amount);\n        }\n\n        members[expense.payer].balance += _amount;\n        for (uint256 i = 0; i < expense.payees.length; i++) {\n            if (expense.approvals[expense.payees[i]]) {\n                members[expense.payees[i]].balance -= _portion;\n            }\n        }\n    }\n\n    /// @notice Calculate the state of the balance after each new payement.\n    /// @param payment which will alter balance\n    function _synchronizeBalanceAfterPayment(Payment memory payment) internal {\n        members[payment.payee].balance -= int256(payment.amount);\n        members[payment.payer].balance += int256(payment.amount);\n    }\n\n    function _getMax(int256 a, int256 b) internal pure returns (int256) {\n        return a >= b ? a : b;\n    }\n\n    function _getMin(int256 a, int256 b) internal pure returns (int256) {\n        return a < b ? a : b;\n    }\n}\n",
  "sourcePath": "/Users/andybn/projects/blockchain-developer-bootcamp-final-project/contracts/ExpenseGroup.sol",
  "compiler": {
    "name": "solc",
    "version": "0.8.9+commit.e5eed63a.Emscripten.clang"
  },
  "schemaVersion": "3.4.3",
  "updatedAt": "2021-10-25T08:55:29.373Z",
  "networkType": "ethereum",
  "devdoc": {
    "author": "Andrs Buenestado",
    "events": {
      "ExpenseAdded(uint256)": {
        "params": {
          "_expenseId": "the identifier of the expense."
        }
      },
      "ExpenseApproved(uint256,bool)": {
        "params": {
          "_approved": "approval (true) or disapproval (false)",
          "_expenseId": "the identifier of the expense."
        }
      },
      "MemberAdded(uint256)": {
        "params": {
          "_memberId": "the identifier of the member."
        }
      },
      "PaymentAdded(address,address,uint256)": {
        "params": {
          "_amount": "amount paid",
          "_payee": "payee address",
          "_payer": "payer address."
        }
      },
      "Withdrawal(address,uint256)": {
        "params": {
          "_amount": "withdrawn amount    ",
          "_member": "member address."
        }
      }
    },
    "kind": "dev",
    "methods": {
      "addExpense(string,uint256,uint256,address[])": {
        "details": "The number of payees are limited to a fixed number to avoid gas limit using loop.",
        "params": {
          "_amount": "the amount of the expense. Must be superior to zero.",
          "_payees": "the list of payee of the expense. The payer can be part of the payees.",
          "_title": "the title of the expense.",
          "_valueDate": "the value date of the expense."
        }
      },
      "addMember(string,address)": {
        "params": {
          "_memberAddress": "the address of the member.",
          "_name": "the name or alias of the member."
        }
      },
      "addPayment(string,address)": {
        "params": {
          "_payee": "the payee of the payment",
          "_title": "the title of the payment"
        }
      },
      "approve(uint256,bool)": {
        "params": {
          "_approved": "the approval of the member : true of false.",
          "_expenseId": "the identifier of the expense."
        }
      },
      "constructor": {
        "params": {
          "_owner": "address of the first member.",
          "_ownerName": "Yhe name of the first member.",
          "_title": "ExpenseGroup title "
        }
      },
      "getApproval(uint256,address)": {
        "params": {
          "_expenseId": "the index of the expense",
          "_memberAddress": "address of the payee"
        },
        "returns": {
          "_0": "true if payee gave is approval, else false"
        }
      },
      "getBalance(address)": {
        "params": {
          "_memberAddress": "the address of the member"
        },
        "returns": {
          "_0": "the balance of the member"
        }
      },
      "getMaxBalance()": {
        "returns": {
          "_0": "(max, index) where max is the max of all the balance and index is the index of the member."
        }
      },
      "getMemberName(address)": {
        "params": {
          "_memberAddress": "the address of the member"
        },
        "returns": {
          "_0": "the name of the member"
        }
      },
      "getNumberOfApprovals(uint256)": {
        "params": {
          "_expenseId": "the index of the expense"
        },
        "returns": {
          "_0": "the number of approvals"
        }
      },
      "getWithdrawal(address)": {
        "returns": {
          "_0": "the available withdrawal for the member address"
        }
      },
      "paused()": {
        "details": "Returns true if the contract is paused, and false otherwise."
      }
    },
    "title": "ExpenseGroup smart contract allows to share and settle a group of expenses and track debts and credits.",
    "version": 1
  },
  "userdoc": {
    "events": {
      "ExpenseAdded(uint256)": {
        "notice": "Event triggered when a new expense is added"
      },
      "ExpenseApproved(uint256,bool)": {
        "notice": "Event triggered when an existing expense is approved"
      },
      "MemberAdded(uint256)": {
        "notice": "Event triggered when a new member is added"
      },
      "PaymentAdded(address,address,uint256)": {
        "notice": "Event triggered when a payment is made"
      },
      "Withdrawal(address,uint256)": {
        "notice": "Event triggered when a withdrawal is made    "
      }
    },
    "kind": "user",
    "methods": {
      "addExpense(string,uint256,uint256,address[])": {
        "notice": "Add an expense as payer. By default, the payer is the creator of the expense."
      },
      "addMember(string,address)": {
        "notice": "Adds a member. Only registered member can add new members."
      },
      "addPayment(string,address)": {
        "notice": "Create a Payment. Use this payable function send money to the smart contract."
      },
      "approve(uint256,bool)": {
        "notice": "Set member's approval for an expense. Each member has 4 weeks to set its approval."
      },
      "constructor": {
        "notice": "Constructor. The creator of the smart contract will be the first member."
      },
      "getApproval(uint256,address)": {
        "notice": "Get approval depending on the expense identifier and address of the member."
      },
      "getBalance(address)": {
        "notice": "Get the balance of a member."
      },
      "getMaxBalance()": {
        "notice": "Get the max of all balances."
      },
      "getMemberCount()": {
        "notice": "Returns the current number of members"
      },
      "getMemberName(address)": {
        "notice": "Get the name of a member."
      },
      "getNumberOfApprovals(uint256)": {
        "notice": "Get the total number of approvals for a given expense."
      },
      "getPayees(uint256)": {
        "notice": "Returns the payees for a expense"
      },
      "getWithdrawal(address)": {
        "notice": "Get withdrawal per address"
      },
      "isContractInstanceCreated()": {
        "notice": "Allow the creation of the first member when the contract instance is created."
      },
      "members(address)": {
        "notice": "Users of current expense group"
      },
      "numExpenses()": {
        "notice": "A mapping of expense identifier and expense."
      },
      "withdraw()": {
        "notice": "Allow each user to withdraw its money from the smart contract"
      },
      "withdrawals(address)": {
        "notice": "A mapping of all the available withdrawals per address."
      }
    },
    "version": 1
  }
}