{
  "contractName": "ExpenseGroup",
  "abi": [
    {
      "inputs": [
        {
          "internalType": "address",
          "name": "_owner",
          "type": "address"
        },
        {
          "internalType": "string",
          "name": "_name",
          "type": "string"
        }
      ],
      "stateMutability": "nonpayable",
      "type": "constructor"
    },
    {
      "anonymous": false,
      "inputs": [
        {
          "indexed": false,
          "internalType": "address",
          "name": "account",
          "type": "address"
        }
      ],
      "name": "Paused",
      "type": "event"
    },
    {
      "anonymous": false,
      "inputs": [
        {
          "indexed": false,
          "internalType": "address",
          "name": "account",
          "type": "address"
        }
      ],
      "name": "Unpaused",
      "type": "event"
    },
    {
      "inputs": [
        {
          "internalType": "uint256",
          "name": "",
          "type": "uint256"
        }
      ],
      "name": "expenses",
      "outputs": [
        {
          "internalType": "string",
          "name": "name",
          "type": "string"
        },
        {
          "internalType": "uint256",
          "name": "amount",
          "type": "uint256"
        },
        {
          "internalType": "uint256",
          "name": "valueDate",
          "type": "uint256"
        },
        {
          "internalType": "uint256",
          "name": "creationDate",
          "type": "uint256"
        },
        {
          "internalType": "address",
          "name": "payer",
          "type": "address"
        }
      ],
      "stateMutability": "view",
      "type": "function",
      "constant": true
    },
    {
      "inputs": [],
      "name": "isContractInstanceCreated",
      "outputs": [
        {
          "internalType": "bool",
          "name": "",
          "type": "bool"
        }
      ],
      "stateMutability": "view",
      "type": "function",
      "constant": true
    },
    {
      "inputs": [
        {
          "internalType": "uint256",
          "name": "",
          "type": "uint256"
        }
      ],
      "name": "memberAddresses",
      "outputs": [
        {
          "internalType": "address",
          "name": "",
          "type": "address"
        }
      ],
      "stateMutability": "view",
      "type": "function",
      "constant": true
    },
    {
      "inputs": [
        {
          "internalType": "address",
          "name": "",
          "type": "address"
        }
      ],
      "name": "members",
      "outputs": [
        {
          "internalType": "uint256",
          "name": "identifier",
          "type": "uint256"
        },
        {
          "internalType": "string",
          "name": "name",
          "type": "string"
        },
        {
          "internalType": "address",
          "name": "memberAddress",
          "type": "address"
        },
        {
          "internalType": "int256",
          "name": "balance",
          "type": "int256"
        }
      ],
      "stateMutability": "view",
      "type": "function",
      "constant": true
    },
    {
      "inputs": [],
      "name": "numExpenses",
      "outputs": [
        {
          "internalType": "uint256",
          "name": "",
          "type": "uint256"
        }
      ],
      "stateMutability": "view",
      "type": "function",
      "constant": true
    },
    {
      "inputs": [],
      "name": "paused",
      "outputs": [
        {
          "internalType": "bool",
          "name": "",
          "type": "bool"
        }
      ],
      "stateMutability": "view",
      "type": "function",
      "constant": true
    },
    {
      "inputs": [
        {
          "internalType": "uint256",
          "name": "",
          "type": "uint256"
        }
      ],
      "name": "payments",
      "outputs": [
        {
          "internalType": "string",
          "name": "title",
          "type": "string"
        },
        {
          "internalType": "uint256",
          "name": "amount",
          "type": "uint256"
        },
        {
          "internalType": "uint256",
          "name": "valueDate",
          "type": "uint256"
        },
        {
          "internalType": "address",
          "name": "payer",
          "type": "address"
        },
        {
          "internalType": "address",
          "name": "payee",
          "type": "address"
        }
      ],
      "stateMutability": "view",
      "type": "function",
      "constant": true
    },
    {
      "inputs": [
        {
          "internalType": "address",
          "name": "",
          "type": "address"
        }
      ],
      "name": "withdrawals",
      "outputs": [
        {
          "internalType": "uint256",
          "name": "",
          "type": "uint256"
        }
      ],
      "stateMutability": "view",
      "type": "function",
      "constant": true
    },
    {
      "inputs": [
        {
          "internalType": "string",
          "name": "_name",
          "type": "string"
        },
        {
          "internalType": "address",
          "name": "_memberAddress",
          "type": "address"
        }
      ],
      "name": "addMember",
      "outputs": [],
      "stateMutability": "nonpayable",
      "type": "function"
    },
    {
      "inputs": [
        {
          "internalType": "string",
          "name": "_title",
          "type": "string"
        },
        {
          "internalType": "uint256",
          "name": "_amount",
          "type": "uint256"
        },
        {
          "internalType": "uint256",
          "name": "_valueDate",
          "type": "uint256"
        },
        {
          "internalType": "address[]",
          "name": "_payees",
          "type": "address[]"
        }
      ],
      "name": "addExpense",
      "outputs": [],
      "stateMutability": "nonpayable",
      "type": "function"
    },
    {
      "inputs": [
        {
          "internalType": "uint256",
          "name": "_expenseId",
          "type": "uint256"
        },
        {
          "internalType": "bool",
          "name": "_approved",
          "type": "bool"
        }
      ],
      "name": "approve",
      "outputs": [],
      "stateMutability": "nonpayable",
      "type": "function"
    },
    {
      "inputs": [
        {
          "internalType": "string",
          "name": "_title",
          "type": "string"
        },
        {
          "internalType": "address",
          "name": "_payee",
          "type": "address"
        }
      ],
      "name": "addPayment",
      "outputs": [],
      "stateMutability": "payable",
      "type": "function",
      "payable": true
    },
    {
      "inputs": [],
      "name": "withdraw",
      "outputs": [],
      "stateMutability": "nonpayable",
      "type": "function"
    },
    {
      "inputs": [],
      "name": "getMaxBalance",
      "outputs": [
        {
          "internalType": "int256",
          "name": "",
          "type": "int256"
        },
        {
          "internalType": "uint256",
          "name": "",
          "type": "uint256"
        }
      ],
      "stateMutability": "view",
      "type": "function",
      "constant": true
    },
    {
      "inputs": [
        {
          "internalType": "address",
          "name": "_memberAddress",
          "type": "address"
        }
      ],
      "name": "getWithdrawal",
      "outputs": [
        {
          "internalType": "uint256",
          "name": "",
          "type": "uint256"
        }
      ],
      "stateMutability": "view",
      "type": "function",
      "constant": true
    },
    {
      "inputs": [
        {
          "internalType": "uint256",
          "name": "_expenseId",
          "type": "uint256"
        },
        {
          "internalType": "address",
          "name": "_memberAddress",
          "type": "address"
        }
      ],
      "name": "getApproval",
      "outputs": [
        {
          "internalType": "bool",
          "name": "",
          "type": "bool"
        }
      ],
      "stateMutability": "view",
      "type": "function",
      "constant": true
    },
    {
      "inputs": [
        {
          "internalType": "uint256",
          "name": "_expenseId",
          "type": "uint256"
        }
      ],
      "name": "getNumberOfApprovals",
      "outputs": [
        {
          "internalType": "uint256",
          "name": "",
          "type": "uint256"
        }
      ],
      "stateMutability": "view",
      "type": "function",
      "constant": true
    },
    {
      "inputs": [
        {
          "internalType": "address",
          "name": "_memberAddress",
          "type": "address"
        }
      ],
      "name": "getBalance",
      "outputs": [
        {
          "internalType": "int256",
          "name": "",
          "type": "int256"
        }
      ],
      "stateMutability": "view",
      "type": "function",
      "constant": true
    },
    {
      "inputs": [
        {
          "internalType": "address",
          "name": "_memberAddress",
          "type": "address"
        }
      ],
      "name": "getMemberName",
      "outputs": [
        {
          "internalType": "string",
          "name": "",
          "type": "string"
        }
      ],
      "stateMutability": "view",
      "type": "function",
      "constant": true
    }
  ],
  "bytecode": "0x60806040526000600360006101000a81548160ff0219169083151502179055503480156200002c57600080fd5b5060405162003406380380620034068339818101604052810190620000529190620006df565b60008060006101000a81548160ff0219169083151502179055506200007e8183620000a160201b60201c565b6001600360006101000a81548160ff0219169083151502179055505050620008a1565b600160003373ffffffffffffffffffffffffffffffffffffffff1673ffffffffffffffffffffffffffffffffffffffff16815260200190815260200160002060020160009054906101000a900473ffffffffffffffffffffffffffffffffffffffff1673ffffffffffffffffffffffffffffffffffffffff163373ffffffffffffffffffffffffffffffffffffffff1614806200014b5750600360009054906101000a900460ff16155b6200015557600080fd5b620001656200041760201b60201c565b15620001a8576040517f08c379a00000000000000000000000000000000000000000000000000000000081526004016200019f90620007a6565b60405180910390fd5b600160008273ffffffffffffffffffffffffffffffffffffffff1673ffffffffffffffffffffffffffffffffffffffff16815260200190815260200160002060020160009054906101000a900473ffffffffffffffffffffffffffffffffffffffff1673ffffffffffffffffffffffffffffffffffffffff168173ffffffffffffffffffffffffffffffffffffffff16141580620002535750600360009054906101000a900460ff16155b6200025d57600080fd5b600073ffffffffffffffffffffffffffffffffffffffff168173ffffffffffffffffffffffffffffffffffffffff1614156200029857600080fd5b60006040518060800160405280600081526020018481526020018373ffffffffffffffffffffffffffffffffffffffff168152602001600081525090506002829080600181540180825580915050600190039060005260206000200160009091909190916101000a81548173ffffffffffffffffffffffffffffffffffffffff021916908373ffffffffffffffffffffffffffffffffffffffff16021790555060016002805490506200034c919062000801565b81600001818152505080600160008473ffffffffffffffffffffffffffffffffffffffff1673ffffffffffffffffffffffffffffffffffffffff168152602001908152602001600020600082015181600001556020820151816001019080519060200190620003bd9291906200042d565b5060408201518160020160006101000a81548173ffffffffffffffffffffffffffffffffffffffff021916908373ffffffffffffffffffffffffffffffffffffffff16021790555060608201518160030155905050505050565b60008060009054906101000a900460ff16905090565b8280546200043b906200086b565b90600052602060002090601f0160209004810192826200045f5760008555620004ab565b82601f106200047a57805160ff1916838001178555620004ab565b82800160010185558215620004ab579182015b82811115620004aa5782518255916020019190600101906200048d565b5b509050620004ba9190620004be565b5090565b5b80821115620004d9576000816000905550600101620004bf565b5090565b6000604051905090565b600080fd5b600080fd5b600073ffffffffffffffffffffffffffffffffffffffff82169050919050565b60006200051e82620004f1565b9050919050565b620005308162000511565b81146200053c57600080fd5b50565b600081519050620005508162000525565b92915050565b600080fd5b600080fd5b6000601f19601f8301169050919050565b7f4e487b7100000000000000000000000000000000000000000000000000000000600052604160045260246000fd5b620005ab8262000560565b810181811067ffffffffffffffff82111715620005cd57620005cc62000571565b5b80604052505050565b6000620005e2620004dd565b9050620005f08282620005a0565b919050565b600067ffffffffffffffff82111562000613576200061262000571565b5b6200061e8262000560565b9050602081019050919050565b60005b838110156200064b5780820151818401526020810190506200062e565b838111156200065b576000848401525b50505050565b6000620006786200067284620005f5565b620005d6565b9050828152602081018484840111156200069757620006966200055b565b5b620006a48482856200062b565b509392505050565b600082601f830112620006c457620006c362000556565b5b8151620006d684826020860162000661565b91505092915050565b60008060408385031215620006f957620006f8620004e7565b5b600062000709858286016200053f565b925050602083015167ffffffffffffffff8111156200072d576200072c620004ec565b5b6200073b85828601620006ac565b9150509250929050565b600082825260208201905092915050565b7f5061757361626c653a2070617573656400000000000000000000000000000000600082015250565b60006200078e60108362000745565b91506200079b8262000756565b602082019050919050565b60006020820190508181036000830152620007c1816200077f565b9050919050565b6000819050919050565b7f4e487b7100000000000000000000000000000000000000000000000000000000600052601160045260246000fd5b60006200080e82620007c8565b91506200081b83620007c8565b925082821015620008315762000830620007d2565b5b828203905092915050565b7f4e487b7100000000000000000000000000000000000000000000000000000000600052602260045260246000fd5b600060028204905060018216806200088457607f821691505b602082108114156200089b576200089a6200083c565b5b50919050565b612b5580620008b16000396000f3fe6080604052600436106101145760003560e01c80638f081ece116100a0578063bc35008811610064578063bc350088146103e2578063c3e1888e146103fe578063cc4e62991461042a578063f8b2cb4f14610467578063ff419aa2146104a457610114565b80638f081ece146102d357806399f62bab146102fe578063af4afe0a1461033b578063aff4b8491461037c578063b4d95e71146103b957610114565b80635b8f3d14116100e75780635b8f3d14146101d65780635c975abb14610201578063747442d31461022c5780637a9262a21461025557806387d817891461029257610114565b806308ae4b0c1461011957806328c84793146101595780633ccfd60b1461019657806345e39705146101ad575b600080fd5b34801561012557600080fd5b50610140600480360381019061013b9190612034565b6104e1565b604051610150949392919061213b565b60405180910390f35b34801561016557600080fd5b50610180600480360381019061017b91906121b3565b6105b9565b60405161018d919061220e565b60405180910390f35b3480156101a257600080fd5b506101ab610624565b005b3480156101b957600080fd5b506101d460048036038101906101cf919061235e565b610825565b005b3480156101e257600080fd5b506101eb610b87565b6040516101f8919061220e565b60405180910390f35b34801561020d57600080fd5b50610216610b9a565b604051610223919061220e565b60405180910390f35b34801561023857600080fd5b50610253600480360381019061024e91906123e6565b610bb0565b005b34801561026157600080fd5b5061027c60048036038101906102779190612034565b610ddc565b6040516102899190612426565b60405180910390f35b34801561029e57600080fd5b506102b960048036038101906102b49190612441565b610df4565b6040516102ca95949392919061246e565b60405180910390f35b3480156102df57600080fd5b506102e8610f02565b6040516102f59190612426565b60405180910390f35b34801561030a57600080fd5b5061032560048036038101906103209190612034565b610f08565b6040516103329190612426565b60405180910390f35b34801561034757600080fd5b50610362600480360381019061035d9190612441565b610f51565b6040516103739594939291906124c8565b60405180910390f35b34801561038857600080fd5b506103a3600480360381019061039e9190612034565b61102f565b6040516103b09190612522565b60405180910390f35b3480156103c557600080fd5b506103e060048036038101906103db919061260c565b611103565b005b6103fc60048036038101906103f7919061235e565b611311565b005b34801561040a57600080fd5b50610413611611565b6040516104219291906126ab565b60405180910390f35b34801561043657600080fd5b50610451600480360381019061044c9190612441565b6117e6565b60405161045e91906126d4565b60405180910390f35b34801561047357600080fd5b5061048e60048036038101906104899190612034565b611825565b60405161049b91906126ef565b60405180910390f35b3480156104b057600080fd5b506104cb60048036038101906104c69190612441565b611871565b6040516104d89190612426565b60405180910390f35b600160205280600052604060002060009150905080600001549080600101805461050a90612739565b80601f016020809104026020016040519081016040528092919081815260200182805461053690612739565b80156105835780601f1061055857610100808354040283529160200191610583565b820191906000526020600020905b81548152906001019060200180831161056657829003601f168201915b5050505050908060020160009054906101000a900473ffffffffffffffffffffffffffffffffffffffff16908060030154905084565b60006005600084815260200190815260200160002060060160008373ffffffffffffffffffffffffffffffffffffffff1673ffffffffffffffffffffffffffffffffffffffff16815260200190815260200160002060009054906101000a900460ff16905092915050565b600160003373ffffffffffffffffffffffffffffffffffffffff1673ffffffffffffffffffffffffffffffffffffffff16815260200190815260200160002060020160009054906101000a900473ffffffffffffffffffffffffffffffffffffffff1673ffffffffffffffffffffffffffffffffffffffff163373ffffffffffffffffffffffffffffffffffffffff1614806106cd5750600360009054906101000a900460ff16155b6106d657600080fd5b6000600760003373ffffffffffffffffffffffffffffffffffffffff1673ffffffffffffffffffffffffffffffffffffffff168152602001908152602001600020541161072257600080fd5b6000600760003373ffffffffffffffffffffffffffffffffffffffff1673ffffffffffffffffffffffffffffffffffffffff1681526020019081526020016000205490506000600760003373ffffffffffffffffffffffffffffffffffffffff1673ffffffffffffffffffffffffffffffffffffffff1681526020019081526020016000208190555060003373ffffffffffffffffffffffffffffffffffffffff16826040516107d19061279c565b60006040518083038185875af1925050503d806000811461080e576040519150601f19603f3d011682016040523d82523d6000602084013e610813565b606091505b505090508061082157600080fd5b5050565b600160003373ffffffffffffffffffffffffffffffffffffffff1673ffffffffffffffffffffffffffffffffffffffff16815260200190815260200160002060020160009054906101000a900473ffffffffffffffffffffffffffffffffffffffff1673ffffffffffffffffffffffffffffffffffffffff163373ffffffffffffffffffffffffffffffffffffffff1614806108ce5750600360009054906101000a900460ff16155b6108d757600080fd5b6108df610b9a565b1561091f576040517f08c379a0000000000000000000000000000000000000000000000000000000008152600401610916906127fd565b60405180910390fd5b600160008273ffffffffffffffffffffffffffffffffffffffff1673ffffffffffffffffffffffffffffffffffffffff16815260200190815260200160002060020160009054906101000a900473ffffffffffffffffffffffffffffffffffffffff1673ffffffffffffffffffffffffffffffffffffffff168173ffffffffffffffffffffffffffffffffffffffff161415806109c95750600360009054906101000a900460ff16155b6109d257600080fd5b600073ffffffffffffffffffffffffffffffffffffffff168173ffffffffffffffffffffffffffffffffffffffff161415610a0c57600080fd5b60006040518060800160405280600081526020018481526020018373ffffffffffffffffffffffffffffffffffffffff168152602001600081525090506002829080600181540180825580915050600190039060005260206000200160009091909190916101000a81548173ffffffffffffffffffffffffffffffffffffffff021916908373ffffffffffffffffffffffffffffffffffffffff1602179055506001600280549050610abe919061284c565b81600001818152505080600160008473ffffffffffffffffffffffffffffffffffffffff1673ffffffffffffffffffffffffffffffffffffffff168152602001908152602001600020600082015181600001556020820151816001019080519060200190610b2d929190611e95565b5060408201518160020160006101000a81548173ffffffffffffffffffffffffffffffffffffffff021916908373ffffffffffffffffffffffffffffffffffffffff16021790555060608201518160030155905050505050565b600360009054906101000a900460ff1681565b60008060009054906101000a900460ff16905090565b600160003373ffffffffffffffffffffffffffffffffffffffff1673ffffffffffffffffffffffffffffffffffffffff16815260200190815260200160002060020160009054906101000a900473ffffffffffffffffffffffffffffffffffffffff1673ffffffffffffffffffffffffffffffffffffffff163373ffffffffffffffffffffffffffffffffffffffff161480610c595750600360009054906101000a900460ff16155b610c6257600080fd5b610c6a610b9a565b15610caa576040517f08c379a0000000000000000000000000000000000000000000000000000000008152600401610ca1906127fd565b60405180910390fd5b60006005600084815260200190815260200160002090506224ea008160030154610cd49190612880565b4210610cdf57600080fd5b8115158160060160003373ffffffffffffffffffffffffffffffffffffffff1673ffffffffffffffffffffffffffffffffffffffff16815260200190815260200160002060009054906101000a900460ff1615151415610d3e57600080fd5b6000610d4984611871565b905060008114610d5d57610d5c84611964565b5b828260060160003373ffffffffffffffffffffffffffffffffffffffff1673ffffffffffffffffffffffffffffffffffffffff16815260200190815260200160002060006101000a81548160ff0219169083151502179055506000610dc185611871565b905060008114610dd557610dd485611972565b5b5050505050565b60076020528060005260406000206000915090505481565b60068181548110610e0457600080fd5b9060005260206000209060050201600091509050806000018054610e2790612739565b80601f0160208091040260200160405190810160405280929190818152602001828054610e5390612739565b8015610ea05780601f10610e7557610100808354040283529160200191610ea0565b820191906000526020600020905b815481529060010190602001808311610e8357829003601f168201915b5050505050908060010154908060020154908060030160009054906101000a900473ffffffffffffffffffffffffffffffffffffffff16908060040160009054906101000a900473ffffffffffffffffffffffffffffffffffffffff16905085565b60045481565b6000600760008373ffffffffffffffffffffffffffffffffffffffff1673ffffffffffffffffffffffffffffffffffffffff168152602001908152602001600020549050919050565b6005602052806000526040600020600091509050806000018054610f7490612739565b80601f0160208091040260200160405190810160405280929190818152602001828054610fa090612739565b8015610fed5780601f10610fc257610100808354040283529160200191610fed565b820191906000526020600020905b815481529060010190602001808311610fd057829003601f168201915b5050505050908060010154908060020154908060030154908060040160009054906101000a900473ffffffffffffffffffffffffffffffffffffffff16905085565b6060600160008373ffffffffffffffffffffffffffffffffffffffff1673ffffffffffffffffffffffffffffffffffffffff168152602001908152602001600020600101805461107e90612739565b80601f01602080910402602001604051908101604052809291908181526020018280546110aa90612739565b80156110f75780601f106110cc576101008083540402835291602001916110f7565b820191906000526020600020905b8154815290600101906020018083116110da57829003601f168201915b50505050509050919050565b600160003373ffffffffffffffffffffffffffffffffffffffff1673ffffffffffffffffffffffffffffffffffffffff16815260200190815260200160002060020160009054906101000a900473ffffffffffffffffffffffffffffffffffffffff1673ffffffffffffffffffffffffffffffffffffffff163373ffffffffffffffffffffffffffffffffffffffff1614806111ac5750600360009054906101000a900460ff16155b6111b557600080fd5b6111bd610b9a565b156111fd576040517f08c379a00000000000000000000000000000000000000000000000000000000081526004016111f4906127fd565b60405180910390fd5b6000831161120a57600080fd5b600081511180156112205750600a60ff16815111155b61122957600080fd5b61123281611980565b61123b57600080fd5b611244816119e0565b61124d57600080fd5b60006005600060046000815480929190611266906128d6565b919050558152602001908152602001600020905084816000019080519060200190611292929190611e95565b50838160010181905550828160020181905550338160040160006101000a81548173ffffffffffffffffffffffffffffffffffffffff021916908373ffffffffffffffffffffffffffffffffffffffff16021790555042816003018190555081816005019080519060200190611309929190611f1b565b505050505050565b600160003373ffffffffffffffffffffffffffffffffffffffff1673ffffffffffffffffffffffffffffffffffffffff16815260200190815260200160002060020160009054906101000a900473ffffffffffffffffffffffffffffffffffffffff1673ffffffffffffffffffffffffffffffffffffffff163373ffffffffffffffffffffffffffffffffffffffff1614806113ba5750600360009054906101000a900460ff16155b6113c357600080fd5b6113cb610b9a565b1561140b576040517f08c379a0000000000000000000000000000000000000000000000000000000008152600401611402906127fd565b60405180910390fd5b60003390506000341161141d57600080fd5b8073ffffffffffffffffffffffffffffffffffffffff168273ffffffffffffffffffffffffffffffffffffffff16141561145657600080fd5b61145f82611ac5565b61146857600080fd5b60006040518060a001604052808581526020013481526020014281526020018373ffffffffffffffffffffffffffffffffffffffff1681526020018473ffffffffffffffffffffffffffffffffffffffff16815250905060068190806001815401808255809150506001900390600052602060002090600502016000909190919091506000820151816000019080519060200190611507929190611e95565b50602082015181600101556040820151816002015560608201518160030160006101000a81548173ffffffffffffffffffffffffffffffffffffffff021916908373ffffffffffffffffffffffffffffffffffffffff16021790555060808201518160040160006101000a81548173ffffffffffffffffffffffffffffffffffffffff021916908373ffffffffffffffffffffffffffffffffffffffff160217905550505034600760008573ffffffffffffffffffffffffffffffffffffffff1673ffffffffffffffffffffffffffffffffffffffff16815260200190815260200160002060008282546115fb9190612880565b9250508190555061160b81611b70565b50505050565b600080600060016000600260008154811061162f5761162e61291f565b5b9060005260206000200160009054906101000a900473ffffffffffffffffffffffffffffffffffffffff1673ffffffffffffffffffffffffffffffffffffffff1673ffffffffffffffffffffffffffffffffffffffff168152602001908152602001600020600301549050600080600190505b6002805490508110156117d9576117398360016000600285815481106116cb576116ca61291f565b5b9060005260206000200160009054906101000a900473ffffffffffffffffffffffffffffffffffffffff1673ffffffffffffffffffffffffffffffffffffffff1673ffffffffffffffffffffffffffffffffffffffff16815260200190815260200160002060030154611c35565b83146117c65760016000600283815481106117575761175661291f565b5b9060005260206000200160009054906101000a900473ffffffffffffffffffffffffffffffffffffffff1673ffffffffffffffffffffffffffffffffffffffff1673ffffffffffffffffffffffffffffffffffffffff1681526020019081526020016000206003015492508091505b80806117d1906128d6565b9150506116a2565b5081819350935050509091565b600281815481106117f657600080fd5b906000526020600020016000915054906101000a900473ffffffffffffffffffffffffffffffffffffffff1681565b6000600160008373ffffffffffffffffffffffffffffffffffffffff1673ffffffffffffffffffffffffffffffffffffffff168152602001908152602001600020600301549050919050565b6000806005600084815260200190815260200160002090506000805b826005018054905081101561195957600115158360060160008560050184815481106118bc576118bb61291f565b5b9060005260206000200160009054906101000a900473ffffffffffffffffffffffffffffffffffffffff1673ffffffffffffffffffffffffffffffffffffffff1673ffffffffffffffffffffffffffffffffffffffff16815260200190815260200160002060009054906101000a900460ff1615151415611946578180611942906128d6565b9250505b8080611951906128d6565b91505061188d565b508092505050919050565b61196f816001611c4f565b50565b61197d816000611c4f565b50565b600080600090505b82518110156119d5576119b48382815181106119a7576119a661291f565b5b6020026020010151611ac5565b6119c25760009150506119db565b80806119cd906128d6565b915050611988565b50600190505b919050565b60008060005b8351811015611ab957600091506000848281518110611a0857611a0761291f565b5b6020026020010151905060005b8551811015611aa457858181518110611a3157611a3061291f565b5b602002602001015173ffffffffffffffffffffffffffffffffffffffff168273ffffffffffffffffffffffffffffffffffffffff161415611a7b578380611a77906128d6565b9450505b6002841415611a91576000945050505050611ac0565b8080611a9c906128d6565b915050611a15565b50508080611ab1906128d6565b9150506119e6565b5060019150505b919050565b6000600160008373ffffffffffffffffffffffffffffffffffffffff1673ffffffffffffffffffffffffffffffffffffffff16815260200190815260200160002060020160009054906101000a900473ffffffffffffffffffffffffffffffffffffffff1673ffffffffffffffffffffffffffffffffffffffff168273ffffffffffffffffffffffffffffffffffffffff161415611b665760019050611b6b565b600090505b919050565b806020015160016000836080015173ffffffffffffffffffffffffffffffffffffffff1673ffffffffffffffffffffffffffffffffffffffff1681526020019081526020016000206003016000828254611bca919061294e565b92505081905550806020015160016000836060015173ffffffffffffffffffffffffffffffffffffffff1673ffffffffffffffffffffffffffffffffffffffff1681526020019081526020016000206003016000828254611c2b91906129e2565b9250508190555050565b600081831215611c455781611c47565b825b905092915050565b6000611c5a83611871565b905060008111611c6957600080fd5b60006005600085815260200190815260200160002090506000828260010154611c929190612aa5565b90506000826001015490508415611cbc5781611cad90612ad6565b915080611cb990612ad6565b90505b80600160008560040160009054906101000a900473ffffffffffffffffffffffffffffffffffffffff1673ffffffffffffffffffffffffffffffffffffffff1673ffffffffffffffffffffffffffffffffffffffff1681526020019081526020016000206003016000828254611d3291906129e2565b9250508190555060005b8360050180549050811015611e8c57836006016000856005018381548110611d6757611d6661291f565b5b9060005260206000200160009054906101000a900473ffffffffffffffffffffffffffffffffffffffff1673ffffffffffffffffffffffffffffffffffffffff1673ffffffffffffffffffffffffffffffffffffffff16815260200190815260200160002060009054906101000a900460ff1615611e79578260016000866005018481548110611dfa57611df961291f565b5b9060005260206000200160009054906101000a900473ffffffffffffffffffffffffffffffffffffffff1673ffffffffffffffffffffffffffffffffffffffff1673ffffffffffffffffffffffffffffffffffffffff1681526020019081526020016000206003016000828254611e71919061294e565b925050819055505b8080611e84906128d6565b915050611d3c565b50505050505050565b828054611ea190612739565b90600052602060002090601f016020900481019282611ec35760008555611f0a565b82601f10611edc57805160ff1916838001178555611f0a565b82800160010185558215611f0a579182015b82811115611f09578251825591602001919060010190611eee565b5b509050611f179190611fa5565b5090565b828054828255906000526020600020908101928215611f94579160200282015b82811115611f935782518260006101000a81548173ffffffffffffffffffffffffffffffffffffffff021916908373ffffffffffffffffffffffffffffffffffffffff16021790555091602001919060010190611f3b565b5b509050611fa19190611fa5565b5090565b5b80821115611fbe576000816000905550600101611fa6565b5090565b6000604051905090565b600080fd5b600080fd5b600073ffffffffffffffffffffffffffffffffffffffff82169050919050565b600061200182611fd6565b9050919050565b61201181611ff6565b811461201c57600080fd5b50565b60008135905061202e81612008565b92915050565b60006020828403121561204a57612049611fcc565b5b60006120588482850161201f565b91505092915050565b6000819050919050565b61207481612061565b82525050565b600081519050919050565b600082825260208201905092915050565b60005b838110156120b4578082015181840152602081019050612099565b838111156120c3576000848401525b50505050565b6000601f19601f8301169050919050565b60006120e58261207a565b6120ef8185612085565b93506120ff818560208601612096565b612108816120c9565b840191505092915050565b61211c81611ff6565b82525050565b6000819050919050565b61213581612122565b82525050565b6000608082019050612150600083018761206b565b818103602083015261216281866120da565b90506121716040830185612113565b61217e606083018461212c565b95945050505050565b61219081612061565b811461219b57600080fd5b50565b6000813590506121ad81612187565b92915050565b600080604083850312156121ca576121c9611fcc565b5b60006121d88582860161219e565b92505060206121e98582860161201f565b9150509250929050565b60008115159050919050565b612208816121f3565b82525050565b600060208201905061222360008301846121ff565b92915050565b600080fd5b600080fd5b7f4e487b7100000000000000000000000000000000000000000000000000000000600052604160045260246000fd5b61226b826120c9565b810181811067ffffffffffffffff8211171561228a57612289612233565b5b80604052505050565b600061229d611fc2565b90506122a98282612262565b919050565b600067ffffffffffffffff8211156122c9576122c8612233565b5b6122d2826120c9565b9050602081019050919050565b82818337600083830152505050565b60006123016122fc846122ae565b612293565b90508281526020810184848401111561231d5761231c61222e565b5b6123288482856122df565b509392505050565b600082601f83011261234557612344612229565b5b81356123558482602086016122ee565b91505092915050565b6000806040838503121561237557612374611fcc565b5b600083013567ffffffffffffffff81111561239357612392611fd1565b5b61239f85828601612330565b92505060206123b08582860161201f565b9150509250929050565b6123c3816121f3565b81146123ce57600080fd5b50565b6000813590506123e0816123ba565b92915050565b600080604083850312156123fd576123fc611fcc565b5b600061240b8582860161219e565b925050602061241c858286016123d1565b9150509250929050565b600060208201905061243b600083018461206b565b92915050565b60006020828403121561245757612456611fcc565b5b60006124658482850161219e565b91505092915050565b600060a082019050818103600083015261248881886120da565b9050612497602083018761206b565b6124a4604083018661206b565b6124b16060830185612113565b6124be6080830184612113565b9695505050505050565b600060a08201905081810360008301526124e281886120da565b90506124f1602083018761206b565b6124fe604083018661206b565b61250b606083018561206b565b6125186080830184612113565b9695505050505050565b6000602082019050818103600083015261253c81846120da565b905092915050565b600067ffffffffffffffff82111561255f5761255e612233565b5b602082029050602081019050919050565b600080fd5b600061258861258384612544565b612293565b905080838252602082019050602084028301858111156125ab576125aa612570565b5b835b818110156125d457806125c0888261201f565b8452602084019350506020810190506125ad565b5050509392505050565b600082601f8301126125f3576125f2612229565b5b8135612603848260208601612575565b91505092915050565b6000806000806080858703121561262657612625611fcc565b5b600085013567ffffffffffffffff81111561264457612643611fd1565b5b61265087828801612330565b94505060206126618782880161219e565b93505060406126728782880161219e565b925050606085013567ffffffffffffffff81111561269357612692611fd1565b5b61269f878288016125de565b91505092959194509250565b60006040820190506126c0600083018561212c565b6126cd602083018461206b565b9392505050565b60006020820190506126e96000830184612113565b92915050565b6000602082019050612704600083018461212c565b92915050565b7f4e487b7100000000000000000000000000000000000000000000000000000000600052602260045260246000fd5b6000600282049050600182168061275157607f821691505b602082108114156127655761276461270a565b5b50919050565b600081905092915050565b50565b600061278660008361276b565b915061279182612776565b600082019050919050565b60006127a782612779565b9150819050919050565b7f5061757361626c653a2070617573656400000000000000000000000000000000600082015250565b60006127e7601083612085565b91506127f2826127b1565b602082019050919050565b60006020820190508181036000830152612816816127da565b9050919050565b7f4e487b7100000000000000000000000000000000000000000000000000000000600052601160045260246000fd5b600061285782612061565b915061286283612061565b9250828210156128755761287461281d565b5b828203905092915050565b600061288b82612061565b915061289683612061565b9250827fffffffffffffffffffffffffffffffffffffffffffffffffffffffffffffffff038211156128cb576128ca61281d565b5b828201905092915050565b60006128e182612061565b91507fffffffffffffffffffffffffffffffffffffffffffffffffffffffffffffffff8214156129145761291361281d565b5b600182019050919050565b7f4e487b7100000000000000000000000000000000000000000000000000000000600052603260045260246000fd5b600061295982612122565b915061296483612122565b9250827f80000000000000000000000000000000000000000000000000000000000000000182126000841215161561299f5761299e61281d565b5b827f7fffffffffffffffffffffffffffffffffffffffffffffffffffffffffffffff0182136000841216156129d7576129d661281d565b5b828203905092915050565b60006129ed82612122565b91506129f883612122565b9250817f7fffffffffffffffffffffffffffffffffffffffffffffffffffffffffffffff03831360008312151615612a3357612a3261281d565b5b817f8000000000000000000000000000000000000000000000000000000000000000038312600083121615612a6b57612a6a61281d565b5b828201905092915050565b7f4e487b7100000000000000000000000000000000000000000000000000000000600052601260045260246000fd5b6000612ab082612061565b9150612abb83612061565b925082612acb57612aca612a76565b5b828204905092915050565b6000612ae182612122565b91507f8000000000000000000000000000000000000000000000000000000000000000821415612b1457612b1361281d565b5b81600003905091905056fea26469706673582212202544b494d970c3bbbde1dcb3e827d1da9ee460221a13349df8946319ef79c83364736f6c63430008090033",
  "immutableReferences": {},
  "source": "// SPDX-License-Identifier: MIT\npragma solidity ^0.8.4;\nimport \"@openzeppelin/contracts/security/Pausable.sol\";\n\n/// @title ExpenseGroup smart contract allows to share and settle a group of expenses and track debts and credits.\n/// @author Andrs Buenestado\ncontract ExpenseGroup is Pausable {\n    /**\n    Max number of payees for a expense (Restriction to avoid high gas costs)\n    */\n    uint8 constant MAX_PAYEES = 10;\n\n    /**\n    Member is a person or company which is part of current expense group.\n     */\n    struct Member {\n        uint256 identifier;\n        string name;\n        address memberAddress;\n        int256 balance;\n    }\n\n    /**\n    Expense is a cost incurred which needs to be paid back.\n    It has an impact on the balance for payer / payees only when a payee gives its approval.\n     */\n    struct Expense {\n        string name;\n        uint256 amount;\n        uint256 valueDate;\n        uint256 creationDate;\n        address payer;\n        address[] payees;\n        mapping(address => bool) approvals;\n    }\n\n    /**\n    Payment is money transfer from one member to another.\n    It can be use to settle a debt or a credit.\n     */\n    struct Payment {\n        string title;\n        uint256 amount;\n        uint256 valueDate;\n        address payer;\n        address payee;\n    }\n\n    mapping(address => Member) public members;\n\n    address[] public memberAddresses;\n\n    /// Allow the creation of the first member when the contract instance is created.\n    bool public isContractInstanceCreated = false;\n\n    /// A mapping of expense identifier and expense.\n    uint256 public numExpenses;\n    mapping(uint256 => Expense) public expenses;\n\n    Payment[] public payments;\n\n    // A mapping of all the available withdrawals per address.\n    mapping(address => uint256) public withdrawals;\n\n    modifier onlyMember() {\n        require(\n            msg.sender == members[msg.sender].memberAddress ||\n                !isContractInstanceCreated\n        );\n        _;\n    }\n\n    /// @notice Constructor. The creator of the smart contract will be the first member.\n    /// @param _name the name of the first member.\n    constructor(address _owner, string memory _name) {\n        addMember(_name, _owner);\n        isContractInstanceCreated = true;\n    }\n\n    /// @notice Adds a member. Only registered member can add new members.\n    /// @param _name the name or alias of the member.\n    /// @param _memberAddress the address of the member.\n    function addMember(string memory _name, address _memberAddress)\n        public\n        onlyMember\n        whenNotPaused\n    {\n        require(\n            _memberAddress != members[_memberAddress].memberAddress ||\n                !isContractInstanceCreated\n        );\n\n        require(_memberAddress != address(0));\n\n        Member memory member = Member({\n            identifier: 0,\n            name: _name,\n            memberAddress: _memberAddress,\n            balance: 0\n        });\n\n        memberAddresses.push(_memberAddress);\n        member.identifier = memberAddresses.length - 1;\n        members[_memberAddress] = member;\n    }\n\n    /// @notice Add an expense as payer. By default, the payer is the creator of the expense.\n    /// @dev The number of payees are limited to a fixed number to avoid gas limit using loop.\n    /// @param _title the title of the expense.\n    /// @param _amount the amount of the expense. Must be superior to zero.\n    /// @param _valueDate the value date of the expense.\n    /// @param _payees the list of payee of the expense. The payer can be part of the payees.\n    function addExpense(\n        string memory _title,\n        uint256 _amount,\n        uint256 _valueDate,\n        address[] memory _payees\n    ) public onlyMember whenNotPaused {\n        require(_amount > 0);\n        require(_payees.length > 0 && _payees.length <= MAX_PAYEES);\n        require(_areAllMembers(_payees));\n        require(_areAllAddressesUnique(_payees));\n\n        /// NOTE: Expense contains a mapping 'approvals' and data location needs to be storage.\n        Expense storage expense = expenses[numExpenses++];\n\n        expense.name = _title;\n        expense.amount = _amount;\n        expense.valueDate = _valueDate;\n        expense.payer = msg.sender;\n        expense.creationDate = block.timestamp;\n        expense.payees = _payees;\n    }\n\n    /// @notice Set member's approval for an expense. Each member has 4 weeks to set its approval.\n    /// @param _expenseId the identifier of the expense.\n    /// @param _approved the approval of the member : true of false.\n    function approve(uint256 _expenseId, bool _approved)\n        public\n        onlyMember\n        whenNotPaused\n    {\n        Expense storage expense = expenses[_expenseId];\n        require(block.timestamp < expense.creationDate + 4 weeks);\n        require(expense.approvals[msg.sender] != _approved);\n\n        uint256 numberOfApprovalsBefore = getNumberOfApprovals(_expenseId);\n\n        /// If the number of approvals before the call is not 0, we revert the balance to the previous state without the expense.\n        if (numberOfApprovalsBefore != 0) {\n            _removeFromBalance(_expenseId);\n        }\n\n        /// Update the number of approvals\n        expense.approvals[msg.sender] = _approved;\n\n        uint256 numberOfApprovalsAfter = getNumberOfApprovals(_expenseId);\n\n        /// If the number of approvals after is not 0, we syncrohonize the balance.\n        if (numberOfApprovalsAfter != 0) {\n            _addToBalance(_expenseId);\n        }\n    }\n\n    /// @notice Create a Payment. Use this payable function send money to the smart contract.\n    /// @param _title the title of the payment\n    /// @param _payee the payee of the payment\n    function addPayment(string memory _title, address _payee)\n        public\n        payable\n        onlyMember\n        whenNotPaused\n    {\n        address _payer = msg.sender;\n        require(msg.value > 0);\n        require(_payee != _payer);\n        require(_isMember(_payee));\n\n        Payment memory payment = Payment({\n            title: _title,\n            amount: msg.value,\n            valueDate: block.timestamp,\n            payer: _payer,\n            payee: _payee\n        });\n\n        payments.push(payment);\n        withdrawals[_payee] += msg.value;\n        _synchronizeBalanceAfterPayment(payment);\n    }\n\n    /// @notice Allow each user to withdraw its money from the smart contract\n    function withdraw() public onlyMember {\n        require(withdrawals[msg.sender] > 0);\n        uint256 amount = withdrawals[msg.sender];\n        withdrawals[msg.sender] = 0;\n\n        (bool success, ) = msg.sender.call{value: amount}(\"\");\n\n        require(success);\n    }\n\n    /// @notice Get the max of all balances.\n    /// @return (max, index) where max is the max of all the balance and index is the index of the member.\n    function getMaxBalance() public view returns (int256, uint256) {\n        int256 max = members[memberAddresses[0]].balance;\n        uint256 index = 0;\n        for (uint256 i = 1; i < memberAddresses.length; i++) {\n            if (max != _getMax(max, members[memberAddresses[i]].balance)) {\n                max = members[memberAddresses[i]].balance;\n                index = i;\n            }\n        }\n        return (max, index);\n    }\n\n    /// @notice Get withdrawal per address\n    /// @return the available withdrawal for the member address\n    function getWithdrawal(address _memberAddress)\n        public\n        view\n        returns (uint256)\n    {\n        return withdrawals[_memberAddress];\n    }\n\n    /// @notice Get approval depending on the expense identifier and address of the member.\n    /// @param _expenseId the index of the expense\n    /// @param _memberAddress address of the payee\n    /// @return true if payee gave is approval, else false\n    function getApproval(uint256 _expenseId, address _memberAddress)\n        public\n        view\n        returns (bool)\n    {\n        return expenses[_expenseId].approvals[_memberAddress];\n    }\n\n    /// @notice Get the total number of approvals for a given expense.\n    /// @param _expenseId the index of the expense\n    /// @return the number of approvals\n    function getNumberOfApprovals(uint256 _expenseId)\n        public\n        view\n        returns (uint256)\n    {\n        Expense storage expense = expenses[_expenseId];\n        uint256 numberOfApprovals = 0;\n        for (uint256 i = 0; i < expense.payees.length; i++) {\n            if (expense.approvals[expense.payees[i]] == true) {\n                numberOfApprovals++;\n            }\n        }\n        return numberOfApprovals;\n    }\n\n    /// @notice Get the balance of a member.\n    /// @param _memberAddress the address of the member\n    /// @return the balance of the member\n    function getBalance(address _memberAddress) public view returns (int256) {\n        return members[_memberAddress].balance;\n    }\n\n    /// @notice Get the name of a member.\n    /// @param _memberAddress the address of the member\n    /// @return the name of the member\n    function getMemberName(address _memberAddress)\n        public\n        view\n        returns (string memory)\n    {\n        return members[_memberAddress].name;\n    }\n\n    /// @notice Check if there is duplicate inside array.\n    /// @param _list the list of address to check\n    /// @return true if there is duplicate, false otherwise\n    function _areAllAddressesUnique(address[] memory _list)\n        internal\n        pure\n        returns (bool)\n    {\n        uint256 counter;\n        for (uint256 i = 0; i < _list.length; i++) {\n            counter = 0;\n            address addr = _list[i];\n            for (uint256 j = 0; j < _list.length; j++) {\n                if (addr == _list[j]) {\n                    counter++;\n                }\n                if (counter == 2) {\n                    return false;\n                }\n            }\n        }\n\n        return true;\n    }\n\n    /// @notice Check if each address of the list is registered as member.\n    /// @param _list the list of address to check\n    /// @return true if all the list is registred as member, false otherwise\n    function _areAllMembers(address[] memory _list)\n        internal\n        view\n        returns (bool)\n    {\n        for (uint256 i = 0; i < _list.length; i++) {\n            if (!_isMember(_list[i])) {\n                return false;\n            }\n        }\n        return true;\n    }\n\n    /// @notice Check if each address of the list is registered as amember.\n    /// @param _memberAddress the address to check\n    /// @return true if all the list is registred as member, false otherwise\n    function _isMember(address _memberAddress) internal view returns (bool) {\n        if (_memberAddress == members[_memberAddress].memberAddress) {\n            return true;\n        } else {\n            return false;\n        }\n    }\n\n    /// @notice Add the expense amount to the balance if there is some approval\n    /// @dev This function must be use if there is at list one approval in the expense\n    /// @param expenseId the index of the expense\n    function _addToBalance(uint256 expenseId) internal {\n        _calculateBalance(expenseId, false);\n    }\n\n    /// @notice Remove the expense amount from the balance if there is no approval\n    /// @dev This function must not be use if there is zero approval\n    /// @param expenseId the index of the expense\n    function _removeFromBalance(uint256 expenseId) internal {\n        _calculateBalance(expenseId, true);\n    }\n\n    /// @notice Calculate the balance after each approval / unapproval.\n    /// @param _expenseId the index of the expense\n    /// @param _isRemoved indicate if the expense must be reverted or synchronized\n    function _calculateBalance(uint256 _expenseId, bool _isRemoved) internal {\n        uint256 contributors = getNumberOfApprovals(_expenseId);\n        require(contributors > 0);\n        Expense storage expense = expenses[_expenseId];\n        int256 _portion = int256(expense.amount / contributors);\n        int256 _amount = int256(expense.amount);\n\n        if (_isRemoved) {\n            _portion = -(_portion);\n            _amount = -(_amount);\n        }\n\n        members[expense.payer].balance += _amount;\n        for (uint256 i = 0; i < expense.payees.length; i++) {\n            if (expense.approvals[expense.payees[i]]) {\n                members[expense.payees[i]].balance -= _portion;\n            }\n        }\n    }\n\n    /// @notice Calculate the state of the balance after each new payement.\n    /// @param payment which will alter balance\n    function _synchronizeBalanceAfterPayment(Payment memory payment) internal {\n        members[payment.payee].balance -= int256(payment.amount);\n        members[payment.payer].balance += int256(payment.amount);\n    }\n\n    function _getMax(int256 a, int256 b) internal pure returns (int256) {\n        return a >= b ? a : b;\n    }\n\n    function _getMin(int256 a, int256 b) internal pure returns (int256) {\n        return a < b ? a : b;\n    }\n}\n",
  "sourcePath": "/Users/andybn/projects/blockchain-developer-bootcamp-final-project/contracts/ExpenseGroup.sol",
  "compiler": {
    "name": "solc",
    "version": "0.8.9+commit.e5eed63a.Emscripten.clang"
  },
  "schemaVersion": "3.4.3",
  "updatedAt": "2021-10-09T15:03:47.203Z",
  "networkType": "ethereum",
  "devdoc": {
    "author": "Andrs Buenestado",
    "kind": "dev",
    "methods": {
      "addExpense(string,uint256,uint256,address[])": {
        "details": "The number of payees are limited to a fixed number to avoid gas limit using loop.",
        "params": {
          "_amount": "the amount of the expense. Must be superior to zero.",
          "_payees": "the list of payee of the expense. The payer can be part of the payees.",
          "_title": "the title of the expense.",
          "_valueDate": "the value date of the expense."
        }
      },
      "addMember(string,address)": {
        "params": {
          "_memberAddress": "the address of the member.",
          "_name": "the name or alias of the member."
        }
      },
      "addPayment(string,address)": {
        "params": {
          "_payee": "the payee of the payment",
          "_title": "the title of the payment"
        }
      },
      "approve(uint256,bool)": {
        "params": {
          "_approved": "the approval of the member : true of false.",
          "_expenseId": "the identifier of the expense."
        }
      },
      "constructor": {
        "params": {
          "_name": "the name of the first member."
        }
      },
      "getApproval(uint256,address)": {
        "params": {
          "_expenseId": "the index of the expense",
          "_memberAddress": "address of the payee"
        },
        "returns": {
          "_0": "true if payee gave is approval, else false"
        }
      },
      "getBalance(address)": {
        "params": {
          "_memberAddress": "the address of the member"
        },
        "returns": {
          "_0": "the balance of the member"
        }
      },
      "getMaxBalance()": {
        "returns": {
          "_0": "(max, index) where max is the max of all the balance and index is the index of the member."
        }
      },
      "getMemberName(address)": {
        "params": {
          "_memberAddress": "the address of the member"
        },
        "returns": {
          "_0": "the name of the member"
        }
      },
      "getNumberOfApprovals(uint256)": {
        "params": {
          "_expenseId": "the index of the expense"
        },
        "returns": {
          "_0": "the number of approvals"
        }
      },
      "getWithdrawal(address)": {
        "returns": {
          "_0": "the available withdrawal for the member address"
        }
      },
      "paused()": {
        "details": "Returns true if the contract is paused, and false otherwise."
      }
    },
    "title": "ExpenseGroup smart contract allows to share and settle a group of expenses and track debts and credits.",
    "version": 1
  },
  "userdoc": {
    "kind": "user",
    "methods": {
      "addExpense(string,uint256,uint256,address[])": {
        "notice": "Add an expense as payer. By default, the payer is the creator of the expense."
      },
      "addMember(string,address)": {
        "notice": "Adds a member. Only registered member can add new members."
      },
      "addPayment(string,address)": {
        "notice": "Create a Payment. Use this payable function send money to the smart contract."
      },
      "approve(uint256,bool)": {
        "notice": "Set member's approval for an expense. Each member has 4 weeks to set its approval."
      },
      "constructor": {
        "notice": "Constructor. The creator of the smart contract will be the first member."
      },
      "getApproval(uint256,address)": {
        "notice": "Get approval depending on the expense identifier and address of the member."
      },
      "getBalance(address)": {
        "notice": "Get the balance of a member."
      },
      "getMaxBalance()": {
        "notice": "Get the max of all balances."
      },
      "getMemberName(address)": {
        "notice": "Get the name of a member."
      },
      "getNumberOfApprovals(uint256)": {
        "notice": "Get the total number of approvals for a given expense."
      },
      "getWithdrawal(address)": {
        "notice": "Get withdrawal per address"
      },
      "isContractInstanceCreated()": {
        "notice": "Allow the creation of the first member when the contract instance is created."
      },
      "numExpenses()": {
        "notice": "A mapping of expense identifier and expense."
      },
      "withdraw()": {
        "notice": "Allow each user to withdraw its money from the smart contract"
      }
    },
    "version": 1
  }
}