{
  "contractName": "ExpenseGroup",
  "abi": [
    {
      "inputs": [
        {
          "internalType": "address",
          "name": "_owner",
          "type": "address"
        },
        {
          "internalType": "string",
          "name": "_ownerName",
          "type": "string"
        },
        {
          "internalType": "string",
          "name": "_title",
          "type": "string"
        }
      ],
      "stateMutability": "nonpayable",
      "type": "constructor"
    },
    {
      "anonymous": false,
      "inputs": [
        {
          "indexed": true,
          "internalType": "uint256",
          "name": "_expenseId",
          "type": "uint256"
        }
      ],
      "name": "ExpenseAdded",
      "type": "event"
    },
    {
      "anonymous": false,
      "inputs": [
        {
          "indexed": true,
          "internalType": "uint256",
          "name": "_expenseId",
          "type": "uint256"
        },
        {
          "indexed": false,
          "internalType": "bool",
          "name": "_approved",
          "type": "bool"
        }
      ],
      "name": "ExpenseApproved",
      "type": "event"
    },
    {
      "anonymous": false,
      "inputs": [
        {
          "indexed": true,
          "internalType": "uint256",
          "name": "_memberId",
          "type": "uint256"
        }
      ],
      "name": "MemberAdded",
      "type": "event"
    },
    {
      "anonymous": false,
      "inputs": [
        {
          "indexed": false,
          "internalType": "address",
          "name": "account",
          "type": "address"
        }
      ],
      "name": "Paused",
      "type": "event"
    },
    {
      "anonymous": false,
      "inputs": [
        {
          "indexed": true,
          "internalType": "address",
          "name": "_payer",
          "type": "address"
        },
        {
          "indexed": false,
          "internalType": "address",
          "name": "_payee",
          "type": "address"
        },
        {
          "indexed": false,
          "internalType": "uint256",
          "name": "_amount",
          "type": "uint256"
        }
      ],
      "name": "PaymentAdded",
      "type": "event"
    },
    {
      "anonymous": false,
      "inputs": [
        {
          "indexed": false,
          "internalType": "address",
          "name": "account",
          "type": "address"
        }
      ],
      "name": "Unpaused",
      "type": "event"
    },
    {
      "anonymous": false,
      "inputs": [
        {
          "indexed": true,
          "internalType": "address",
          "name": "_member",
          "type": "address"
        },
        {
          "indexed": false,
          "internalType": "uint256",
          "name": "_amount",
          "type": "uint256"
        }
      ],
      "name": "Withdrawal",
      "type": "event"
    },
    {
      "inputs": [
        {
          "internalType": "uint256",
          "name": "",
          "type": "uint256"
        }
      ],
      "name": "expenses",
      "outputs": [
        {
          "internalType": "string",
          "name": "name",
          "type": "string"
        },
        {
          "internalType": "uint256",
          "name": "amount",
          "type": "uint256"
        },
        {
          "internalType": "uint256",
          "name": "valueDate",
          "type": "uint256"
        },
        {
          "internalType": "uint256",
          "name": "creationDate",
          "type": "uint256"
        },
        {
          "internalType": "address",
          "name": "payer",
          "type": "address"
        }
      ],
      "stateMutability": "view",
      "type": "function",
      "constant": true
    },
    {
      "inputs": [],
      "name": "isContractInstanceCreated",
      "outputs": [
        {
          "internalType": "bool",
          "name": "",
          "type": "bool"
        }
      ],
      "stateMutability": "view",
      "type": "function",
      "constant": true
    },
    {
      "inputs": [
        {
          "internalType": "uint256",
          "name": "",
          "type": "uint256"
        }
      ],
      "name": "memberAddresses",
      "outputs": [
        {
          "internalType": "address",
          "name": "",
          "type": "address"
        }
      ],
      "stateMutability": "view",
      "type": "function",
      "constant": true
    },
    {
      "inputs": [
        {
          "internalType": "address",
          "name": "",
          "type": "address"
        }
      ],
      "name": "members",
      "outputs": [
        {
          "internalType": "uint256",
          "name": "identifier",
          "type": "uint256"
        },
        {
          "internalType": "string",
          "name": "name",
          "type": "string"
        },
        {
          "internalType": "address",
          "name": "memberAddress",
          "type": "address"
        },
        {
          "internalType": "int256",
          "name": "balance",
          "type": "int256"
        }
      ],
      "stateMutability": "view",
      "type": "function",
      "constant": true
    },
    {
      "inputs": [],
      "name": "numExpenses",
      "outputs": [
        {
          "internalType": "uint256",
          "name": "",
          "type": "uint256"
        }
      ],
      "stateMutability": "view",
      "type": "function",
      "constant": true
    },
    {
      "inputs": [],
      "name": "paused",
      "outputs": [
        {
          "internalType": "bool",
          "name": "",
          "type": "bool"
        }
      ],
      "stateMutability": "view",
      "type": "function",
      "constant": true
    },
    {
      "inputs": [
        {
          "internalType": "uint256",
          "name": "",
          "type": "uint256"
        }
      ],
      "name": "payments",
      "outputs": [
        {
          "internalType": "string",
          "name": "title",
          "type": "string"
        },
        {
          "internalType": "uint256",
          "name": "amount",
          "type": "uint256"
        },
        {
          "internalType": "uint256",
          "name": "valueDate",
          "type": "uint256"
        },
        {
          "internalType": "address",
          "name": "payer",
          "type": "address"
        },
        {
          "internalType": "address",
          "name": "payee",
          "type": "address"
        }
      ],
      "stateMutability": "view",
      "type": "function",
      "constant": true
    },
    {
      "inputs": [],
      "name": "title",
      "outputs": [
        {
          "internalType": "string",
          "name": "",
          "type": "string"
        }
      ],
      "stateMutability": "view",
      "type": "function",
      "constant": true
    },
    {
      "inputs": [
        {
          "internalType": "address",
          "name": "",
          "type": "address"
        }
      ],
      "name": "withdrawals",
      "outputs": [
        {
          "internalType": "uint256",
          "name": "",
          "type": "uint256"
        }
      ],
      "stateMutability": "view",
      "type": "function",
      "constant": true
    },
    {
      "inputs": [
        {
          "internalType": "string",
          "name": "_name",
          "type": "string"
        },
        {
          "internalType": "address",
          "name": "_memberAddress",
          "type": "address"
        }
      ],
      "name": "addMember",
      "outputs": [],
      "stateMutability": "nonpayable",
      "type": "function"
    },
    {
      "inputs": [],
      "name": "getMemberCount",
      "outputs": [
        {
          "internalType": "uint256",
          "name": "",
          "type": "uint256"
        }
      ],
      "stateMutability": "view",
      "type": "function",
      "constant": true
    },
    {
      "inputs": [
        {
          "internalType": "string",
          "name": "_title",
          "type": "string"
        },
        {
          "internalType": "uint256",
          "name": "_amount",
          "type": "uint256"
        },
        {
          "internalType": "uint256",
          "name": "_valueDate",
          "type": "uint256"
        },
        {
          "internalType": "address[]",
          "name": "_payees",
          "type": "address[]"
        }
      ],
      "name": "addExpense",
      "outputs": [],
      "stateMutability": "nonpayable",
      "type": "function"
    },
    {
      "inputs": [
        {
          "internalType": "uint256",
          "name": "_expenseId",
          "type": "uint256"
        },
        {
          "internalType": "bool",
          "name": "_approved",
          "type": "bool"
        }
      ],
      "name": "approve",
      "outputs": [],
      "stateMutability": "nonpayable",
      "type": "function"
    },
    {
      "inputs": [
        {
          "internalType": "string",
          "name": "_title",
          "type": "string"
        },
        {
          "internalType": "address",
          "name": "_payee",
          "type": "address"
        }
      ],
      "name": "addPayment",
      "outputs": [],
      "stateMutability": "payable",
      "type": "function",
      "payable": true
    },
    {
      "inputs": [],
      "name": "withdraw",
      "outputs": [],
      "stateMutability": "nonpayable",
      "type": "function"
    },
    {
      "inputs": [],
      "name": "getMaxBalance",
      "outputs": [
        {
          "internalType": "int256",
          "name": "",
          "type": "int256"
        },
        {
          "internalType": "uint256",
          "name": "",
          "type": "uint256"
        }
      ],
      "stateMutability": "view",
      "type": "function",
      "constant": true
    },
    {
      "inputs": [
        {
          "internalType": "address",
          "name": "_memberAddress",
          "type": "address"
        }
      ],
      "name": "getWithdrawal",
      "outputs": [
        {
          "internalType": "uint256",
          "name": "",
          "type": "uint256"
        }
      ],
      "stateMutability": "view",
      "type": "function",
      "constant": true
    },
    {
      "inputs": [
        {
          "internalType": "uint256",
          "name": "_expenseId",
          "type": "uint256"
        },
        {
          "internalType": "address",
          "name": "_memberAddress",
          "type": "address"
        }
      ],
      "name": "getApproval",
      "outputs": [
        {
          "internalType": "bool",
          "name": "",
          "type": "bool"
        }
      ],
      "stateMutability": "view",
      "type": "function",
      "constant": true
    },
    {
      "inputs": [
        {
          "internalType": "uint256",
          "name": "_expenseId",
          "type": "uint256"
        }
      ],
      "name": "getNumberOfApprovals",
      "outputs": [
        {
          "internalType": "uint256",
          "name": "",
          "type": "uint256"
        }
      ],
      "stateMutability": "view",
      "type": "function",
      "constant": true
    },
    {
      "inputs": [
        {
          "internalType": "address",
          "name": "_memberAddress",
          "type": "address"
        }
      ],
      "name": "getBalance",
      "outputs": [
        {
          "internalType": "int256",
          "name": "",
          "type": "int256"
        }
      ],
      "stateMutability": "view",
      "type": "function",
      "constant": true
    },
    {
      "inputs": [
        {
          "internalType": "address",
          "name": "_memberAddress",
          "type": "address"
        }
      ],
      "name": "getMemberName",
      "outputs": [
        {
          "internalType": "string",
          "name": "",
          "type": "string"
        }
      ],
      "stateMutability": "view",
      "type": "function",
      "constant": true
    }
  ],
  "bytecode": "0x60806040526000600460006101000a81548160ff0219169083151502179055503480156200002c57600080fd5b50604051620036da380380620036da83398181016040528101906200005291906200072a565b60008060006101000a81548160ff0219169083151502179055506200007e8284620000bb60201b60201c565b80600190805190602001906200009692919062000478565b506001600460006101000a81548160ff02191690831515021790555050505062000920565b600260003373ffffffffffffffffffffffffffffffffffffffff1673ffffffffffffffffffffffffffffffffffffffff16815260200190815260200160002060020160009054906101000a900473ffffffffffffffffffffffffffffffffffffffff1673ffffffffffffffffffffffffffffffffffffffff163373ffffffffffffffffffffffffffffffffffffffff161480620001655750600460009054906101000a900460ff16155b6200016f57600080fd5b6200017f6200046260201b60201c565b15620001c2576040517f08c379a0000000000000000000000000000000000000000000000000000000008152600401620001b99062000825565b60405180910390fd5b600260008273ffffffffffffffffffffffffffffffffffffffff1673ffffffffffffffffffffffffffffffffffffffff16815260200190815260200160002060020160009054906101000a900473ffffffffffffffffffffffffffffffffffffffff1673ffffffffffffffffffffffffffffffffffffffff168173ffffffffffffffffffffffffffffffffffffffff161415806200026d5750600460009054906101000a900460ff16155b6200027757600080fd5b600073ffffffffffffffffffffffffffffffffffffffff168173ffffffffffffffffffffffffffffffffffffffff161415620002b257600080fd5b60006040518060800160405280600081526020018481526020018373ffffffffffffffffffffffffffffffffffffffff168152602001600081525090506003829080600181540180825580915050600190039060005260206000200160009091909190916101000a81548173ffffffffffffffffffffffffffffffffffffffff021916908373ffffffffffffffffffffffffffffffffffffffff160217905550600160038054905062000366919062000880565b81600001818152505080600260008473ffffffffffffffffffffffffffffffffffffffff1673ffffffffffffffffffffffffffffffffffffffff168152602001908152602001600020600082015181600001556020820151816001019080519060200190620003d792919062000478565b5060408201518160020160006101000a81548173ffffffffffffffffffffffffffffffffffffffff021916908373ffffffffffffffffffffffffffffffffffffffff1602179055506060820151816003015590505080600001517f663edc42a721f7c73209441ed31f141cef6912283c680024547d950559c5559160405160405180910390a2505050565b60008060009054906101000a900460ff16905090565b8280546200048690620008ea565b90600052602060002090601f016020900481019282620004aa5760008555620004f6565b82601f10620004c557805160ff1916838001178555620004f6565b82800160010185558215620004f6579182015b82811115620004f5578251825591602001919060010190620004d8565b5b50905062000505919062000509565b5090565b5b80821115620005245760008160009055506001016200050a565b5090565b6000604051905090565b600080fd5b600080fd5b600073ffffffffffffffffffffffffffffffffffffffff82169050919050565b600062000569826200053c565b9050919050565b6200057b816200055c565b81146200058757600080fd5b50565b6000815190506200059b8162000570565b92915050565b600080fd5b600080fd5b6000601f19601f8301169050919050565b7f4e487b7100000000000000000000000000000000000000000000000000000000600052604160045260246000fd5b620005f682620005ab565b810181811067ffffffffffffffff82111715620006185762000617620005bc565b5b80604052505050565b60006200062d62000528565b90506200063b8282620005eb565b919050565b600067ffffffffffffffff8211156200065e576200065d620005bc565b5b6200066982620005ab565b9050602081019050919050565b60005b838110156200069657808201518184015260208101905062000679565b83811115620006a6576000848401525b50505050565b6000620006c3620006bd8462000640565b62000621565b905082815260208101848484011115620006e257620006e1620005a6565b5b620006ef84828562000676565b509392505050565b600082601f8301126200070f576200070e620005a1565b5b815162000721848260208601620006ac565b91505092915050565b60008060006060848603121562000746576200074562000532565b5b600062000756868287016200058a565b935050602084015167ffffffffffffffff8111156200077a576200077962000537565b5b6200078886828701620006f7565b925050604084015167ffffffffffffffff811115620007ac57620007ab62000537565b5b620007ba86828701620006f7565b9150509250925092565b600082825260208201905092915050565b7f5061757361626c653a2070617573656400000000000000000000000000000000600082015250565b60006200080d601083620007c4565b91506200081a82620007d5565b602082019050919050565b600060208201905081810360008301526200084081620007fe565b9050919050565b6000819050919050565b7f4e487b7100000000000000000000000000000000000000000000000000000000600052601160045260246000fd5b60006200088d8262000847565b91506200089a8362000847565b925082821015620008b057620008af62000851565b5b828203905092915050565b7f4e487b7100000000000000000000000000000000000000000000000000000000600052602260045260246000fd5b600060028204905060018216806200090357607f821691505b602082108114156200091a5762000919620008bb565b5b50919050565b612daa80620009306000396000f3fe60806040526004361061012a5760003560e01c80638f081ece116100ab578063b4d95e711161006f578063b4d95e7114610425578063bc3500881461044e578063c3e1888e1461046a578063cc4e629914610496578063f8b2cb4f146104d3578063ff419aa2146105105761012a565b80638f081ece14610314578063997072f71461033f57806399f62bab1461036a578063af4afe0a146103a7578063aff4b849146103e85761012a565b80635b8f3d14116100f25780635b8f3d14146102175780635c975abb14610242578063747442d31461026d5780637a9262a21461029657806387d81789146102d35761012a565b806308ae4b0c1461012f57806328c847931461016f5780633ccfd60b146101ac57806345e39705146101c35780634a79d50c146101ec575b600080fd5b34801561013b57600080fd5b5061015660048036038101906101519190612260565b61054d565b6040516101669493929190612367565b60405180910390f35b34801561017b57600080fd5b50610196600480360381019061019191906123df565b610625565b6040516101a3919061243a565b60405180910390f35b3480156101b857600080fd5b506101c1610690565b005b3480156101cf57600080fd5b506101ea60048036038101906101e5919061258a565b6108df565b005b3480156101f857600080fd5b50610201610c72565b60405161020e91906125e6565b60405180910390f35b34801561022357600080fd5b5061022c610d00565b604051610239919061243a565b60405180910390f35b34801561024e57600080fd5b50610257610d13565b604051610264919061243a565b60405180910390f35b34801561027957600080fd5b50610294600480360381019061028f9190612634565b610d29565b005b3480156102a257600080fd5b506102bd60048036038101906102b89190612260565b610f8d565b6040516102ca9190612674565b60405180910390f35b3480156102df57600080fd5b506102fa60048036038101906102f5919061268f565b610fa5565b60405161030b9594939291906126bc565b60405180910390f35b34801561032057600080fd5b506103296110b3565b6040516103369190612674565b60405180910390f35b34801561034b57600080fd5b506103546110b9565b6040516103619190612674565b60405180910390f35b34801561037657600080fd5b50610391600480360381019061038c9190612260565b6110c6565b60405161039e9190612674565b60405180910390f35b3480156103b357600080fd5b506103ce60048036038101906103c9919061268f565b61110f565b6040516103df959493929190612716565b60405180910390f35b3480156103f457600080fd5b5061040f600480360381019061040a9190612260565b6111ed565b60405161041c91906125e6565b60405180910390f35b34801561043157600080fd5b5061044c60048036038101906104479190612838565b6112c1565b005b6104686004803603810190610463919061258a565b6114fe565b005b34801561047657600080fd5b5061047f61184e565b60405161048d9291906128d7565b60405180910390f35b3480156104a257600080fd5b506104bd60048036038101906104b8919061268f565b611a23565b6040516104ca9190612900565b60405180910390f35b3480156104df57600080fd5b506104fa60048036038101906104f59190612260565b611a62565b604051610507919061291b565b60405180910390f35b34801561051c57600080fd5b506105376004803603810190610532919061268f565b611aae565b6040516105449190612674565b60405180910390f35b600260205280600052604060002060009150905080600001549080600101805461057690612965565b80601f01602080910402602001604051908101604052809291908181526020018280546105a290612965565b80156105ef5780601f106105c4576101008083540402835291602001916105ef565b820191906000526020600020905b8154815290600101906020018083116105d257829003601f168201915b5050505050908060020160009054906101000a900473ffffffffffffffffffffffffffffffffffffffff16908060030154905084565b60006006600084815260200190815260200160002060060160008373ffffffffffffffffffffffffffffffffffffffff1673ffffffffffffffffffffffffffffffffffffffff16815260200190815260200160002060009054906101000a900460ff16905092915050565b600260003373ffffffffffffffffffffffffffffffffffffffff1673ffffffffffffffffffffffffffffffffffffffff16815260200190815260200160002060020160009054906101000a900473ffffffffffffffffffffffffffffffffffffffff1673ffffffffffffffffffffffffffffffffffffffff163373ffffffffffffffffffffffffffffffffffffffff1614806107395750600460009054906101000a900460ff16155b61074257600080fd5b6000600860003373ffffffffffffffffffffffffffffffffffffffff1673ffffffffffffffffffffffffffffffffffffffff168152602001908152602001600020541161078e57600080fd5b6000600860003373ffffffffffffffffffffffffffffffffffffffff1673ffffffffffffffffffffffffffffffffffffffff1681526020019081526020016000205490506000600860003373ffffffffffffffffffffffffffffffffffffffff1673ffffffffffffffffffffffffffffffffffffffff1681526020019081526020016000208190555060003373ffffffffffffffffffffffffffffffffffffffff168260405161083d906129c8565b60006040518083038185875af1925050503d806000811461087a576040519150601f19603f3d011682016040523d82523d6000602084013e61087f565b606091505b505090508061088d57600080fd5b3373ffffffffffffffffffffffffffffffffffffffff167f7fcf532c15f0a6db0bd6d0e038bea71d30d808c7d98cb3bf7268a95bf5081b65836040516108d39190612674565b60405180910390a25050565b600260003373ffffffffffffffffffffffffffffffffffffffff1673ffffffffffffffffffffffffffffffffffffffff16815260200190815260200160002060020160009054906101000a900473ffffffffffffffffffffffffffffffffffffffff1673ffffffffffffffffffffffffffffffffffffffff163373ffffffffffffffffffffffffffffffffffffffff1614806109885750600460009054906101000a900460ff16155b61099157600080fd5b610999610d13565b156109d9576040517f08c379a00000000000000000000000000000000000000000000000000000000081526004016109d090612a29565b60405180910390fd5b600260008273ffffffffffffffffffffffffffffffffffffffff1673ffffffffffffffffffffffffffffffffffffffff16815260200190815260200160002060020160009054906101000a900473ffffffffffffffffffffffffffffffffffffffff1673ffffffffffffffffffffffffffffffffffffffff168173ffffffffffffffffffffffffffffffffffffffff16141580610a835750600460009054906101000a900460ff16155b610a8c57600080fd5b600073ffffffffffffffffffffffffffffffffffffffff168173ffffffffffffffffffffffffffffffffffffffff161415610ac657600080fd5b60006040518060800160405280600081526020018481526020018373ffffffffffffffffffffffffffffffffffffffff168152602001600081525090506003829080600181540180825580915050600190039060005260206000200160009091909190916101000a81548173ffffffffffffffffffffffffffffffffffffffff021916908373ffffffffffffffffffffffffffffffffffffffff1602179055506001600380549050610b789190612a78565b81600001818152505080600260008473ffffffffffffffffffffffffffffffffffffffff1673ffffffffffffffffffffffffffffffffffffffff168152602001908152602001600020600082015181600001556020820151816001019080519060200190610be79291906120c1565b5060408201518160020160006101000a81548173ffffffffffffffffffffffffffffffffffffffff021916908373ffffffffffffffffffffffffffffffffffffffff1602179055506060820151816003015590505080600001517f663edc42a721f7c73209441ed31f141cef6912283c680024547d950559c5559160405160405180910390a2505050565b60018054610c7f90612965565b80601f0160208091040260200160405190810160405280929190818152602001828054610cab90612965565b8015610cf85780601f10610ccd57610100808354040283529160200191610cf8565b820191906000526020600020905b815481529060010190602001808311610cdb57829003601f168201915b505050505081565b600460009054906101000a900460ff1681565b60008060009054906101000a900460ff16905090565b600260003373ffffffffffffffffffffffffffffffffffffffff1673ffffffffffffffffffffffffffffffffffffffff16815260200190815260200160002060020160009054906101000a900473ffffffffffffffffffffffffffffffffffffffff1673ffffffffffffffffffffffffffffffffffffffff163373ffffffffffffffffffffffffffffffffffffffff161480610dd25750600460009054906101000a900460ff16155b610ddb57600080fd5b610de3610d13565b15610e23576040517f08c379a0000000000000000000000000000000000000000000000000000000008152600401610e1a90612a29565b60405180910390fd5b60006006600084815260200190815260200160002090506224ea008160030154610e4d9190612aac565b4210610e5857600080fd5b8115158160060160003373ffffffffffffffffffffffffffffffffffffffff1673ffffffffffffffffffffffffffffffffffffffff16815260200190815260200160002060009054906101000a900460ff1615151415610eb757600080fd5b6000610ec284611aae565b905060008114610ed657610ed584611ba1565b5b828260060160003373ffffffffffffffffffffffffffffffffffffffff1673ffffffffffffffffffffffffffffffffffffffff16815260200190815260200160002060006101000a81548160ff0219169083151502179055506000610f3a85611aae565b905060008114610f4e57610f4d85611baf565b5b847f23c19de93ce378d27f3b34f74ae236838987d9179c902bca3cdc3bb93bd7314485604051610f7e919061243a565b60405180910390a25050505050565b60086020528060005260406000206000915090505481565b60078181548110610fb557600080fd5b9060005260206000209060050201600091509050806000018054610fd890612965565b80601f016020809104026020016040519081016040528092919081815260200182805461100490612965565b80156110515780601f1061102657610100808354040283529160200191611051565b820191906000526020600020905b81548152906001019060200180831161103457829003601f168201915b5050505050908060010154908060020154908060030160009054906101000a900473ffffffffffffffffffffffffffffffffffffffff16908060040160009054906101000a900473ffffffffffffffffffffffffffffffffffffffff16905085565b60055481565b6000600380549050905090565b6000600860008373ffffffffffffffffffffffffffffffffffffffff1673ffffffffffffffffffffffffffffffffffffffff168152602001908152602001600020549050919050565b600660205280600052604060002060009150905080600001805461113290612965565b80601f016020809104026020016040519081016040528092919081815260200182805461115e90612965565b80156111ab5780601f10611180576101008083540402835291602001916111ab565b820191906000526020600020905b81548152906001019060200180831161118e57829003601f168201915b5050505050908060010154908060020154908060030154908060040160009054906101000a900473ffffffffffffffffffffffffffffffffffffffff16905085565b6060600260008373ffffffffffffffffffffffffffffffffffffffff1673ffffffffffffffffffffffffffffffffffffffff168152602001908152602001600020600101805461123c90612965565b80601f016020809104026020016040519081016040528092919081815260200182805461126890612965565b80156112b55780601f1061128a576101008083540402835291602001916112b5565b820191906000526020600020905b81548152906001019060200180831161129857829003601f168201915b50505050509050919050565b600260003373ffffffffffffffffffffffffffffffffffffffff1673ffffffffffffffffffffffffffffffffffffffff16815260200190815260200160002060020160009054906101000a900473ffffffffffffffffffffffffffffffffffffffff1673ffffffffffffffffffffffffffffffffffffffff163373ffffffffffffffffffffffffffffffffffffffff16148061136a5750600460009054906101000a900460ff16155b61137357600080fd5b61137b610d13565b156113bb576040517f08c379a00000000000000000000000000000000000000000000000000000000081526004016113b290612a29565b60405180910390fd5b600083116113c857600080fd5b600081511180156113de5750601460ff16815111155b6113e757600080fd5b6113f081611bbd565b6113f957600080fd5b61140281611c1d565b61140b57600080fd5b6000600660006005600081548092919061142490612b02565b9190505581526020019081526020016000209050848160000190805190602001906114509291906120c1565b50838160010181905550828160020181905550338160040160006101000a81548173ffffffffffffffffffffffffffffffffffffffff021916908373ffffffffffffffffffffffffffffffffffffffff160217905550428160030181905550818160050190805190602001906114c7929190612147565b506005547f0196a834ab6362d8b08696adb04296039cef5ac7132808904aa83f47bf7f4e5e60405160405180910390a25050505050565b600260003373ffffffffffffffffffffffffffffffffffffffff1673ffffffffffffffffffffffffffffffffffffffff16815260200190815260200160002060020160009054906101000a900473ffffffffffffffffffffffffffffffffffffffff1673ffffffffffffffffffffffffffffffffffffffff163373ffffffffffffffffffffffffffffffffffffffff1614806115a75750600460009054906101000a900460ff16155b6115b057600080fd5b6115b8610d13565b156115f8576040517f08c379a00000000000000000000000000000000000000000000000000000000081526004016115ef90612a29565b60405180910390fd5b60003390506000341161160a57600080fd5b8073ffffffffffffffffffffffffffffffffffffffff168273ffffffffffffffffffffffffffffffffffffffff16141561164357600080fd5b61164c82611d02565b61165557600080fd5b60006040518060a001604052808581526020013481526020014281526020018373ffffffffffffffffffffffffffffffffffffffff1681526020018473ffffffffffffffffffffffffffffffffffffffff168152509050600781908060018154018082558091505060019003906000526020600020906005020160009091909190915060008201518160000190805190602001906116f49291906120c1565b50602082015181600101556040820151816002015560608201518160030160006101000a81548173ffffffffffffffffffffffffffffffffffffffff021916908373ffffffffffffffffffffffffffffffffffffffff16021790555060808201518160040160006101000a81548173ffffffffffffffffffffffffffffffffffffffff021916908373ffffffffffffffffffffffffffffffffffffffff160217905550505034600860008573ffffffffffffffffffffffffffffffffffffffff1673ffffffffffffffffffffffffffffffffffffffff16815260200190815260200160002060008282546117e89190612aac565b925050819055506117f881611d9c565b8173ffffffffffffffffffffffffffffffffffffffff167f9d1bcf0ff0f343cd9c63d8f1eb8a81b7884dc4151cb4eb64d0281f7ecd6975488434604051611840929190612b4b565b60405180910390a250505050565b600080600060026000600360008154811061186c5761186b612b74565b5b9060005260206000200160009054906101000a900473ffffffffffffffffffffffffffffffffffffffff1673ffffffffffffffffffffffffffffffffffffffff1673ffffffffffffffffffffffffffffffffffffffff168152602001908152602001600020600301549050600080600190505b600380549050811015611a165761197683600260006003858154811061190857611907612b74565b5b9060005260206000200160009054906101000a900473ffffffffffffffffffffffffffffffffffffffff1673ffffffffffffffffffffffffffffffffffffffff1673ffffffffffffffffffffffffffffffffffffffff16815260200190815260200160002060030154611e61565b8314611a0357600260006003838154811061199457611993612b74565b5b9060005260206000200160009054906101000a900473ffffffffffffffffffffffffffffffffffffffff1673ffffffffffffffffffffffffffffffffffffffff1673ffffffffffffffffffffffffffffffffffffffff1681526020019081526020016000206003015492508091505b8080611a0e90612b02565b9150506118df565b5081819350935050509091565b60038181548110611a3357600080fd5b906000526020600020016000915054906101000a900473ffffffffffffffffffffffffffffffffffffffff1681565b6000600260008373ffffffffffffffffffffffffffffffffffffffff1673ffffffffffffffffffffffffffffffffffffffff168152602001908152602001600020600301549050919050565b6000806006600084815260200190815260200160002090506000805b8260050180549050811015611b965760011515836006016000856005018481548110611af957611af8612b74565b5b9060005260206000200160009054906101000a900473ffffffffffffffffffffffffffffffffffffffff1673ffffffffffffffffffffffffffffffffffffffff1673ffffffffffffffffffffffffffffffffffffffff16815260200190815260200160002060009054906101000a900460ff1615151415611b83578180611b7f90612b02565b9250505b8080611b8e90612b02565b915050611aca565b508092505050919050565b611bac816001611e7b565b50565b611bba816000611e7b565b50565b600080600090505b8251811015611c1257611bf1838281518110611be457611be3612b74565b5b6020026020010151611d02565b611bff576000915050611c18565b8080611c0a90612b02565b915050611bc5565b50600190505b919050565b60008060005b8351811015611cf657600091506000848281518110611c4557611c44612b74565b5b6020026020010151905060005b8551811015611ce157858181518110611c6e57611c6d612b74565b5b602002602001015173ffffffffffffffffffffffffffffffffffffffff168273ffffffffffffffffffffffffffffffffffffffff161415611cb8578380611cb490612b02565b9450505b6002841415611cce576000945050505050611cfd565b8080611cd990612b02565b915050611c52565b50508080611cee90612b02565b915050611c23565b5060019150505b919050565b6000600260008373ffffffffffffffffffffffffffffffffffffffff1673ffffffffffffffffffffffffffffffffffffffff16815260200190815260200160002060020160009054906101000a900473ffffffffffffffffffffffffffffffffffffffff1673ffffffffffffffffffffffffffffffffffffffff168273ffffffffffffffffffffffffffffffffffffffff16149050919050565b806020015160026000836080015173ffffffffffffffffffffffffffffffffffffffff1673ffffffffffffffffffffffffffffffffffffffff1681526020019081526020016000206003016000828254611df69190612ba3565b92505081905550806020015160026000836060015173ffffffffffffffffffffffffffffffffffffffff1673ffffffffffffffffffffffffffffffffffffffff1681526020019081526020016000206003016000828254611e579190612c37565b9250508190555050565b600081831215611e715781611e73565b825b905092915050565b6000611e8683611aae565b905060008111611e9557600080fd5b60006006600085815260200190815260200160002090506000828260010154611ebe9190612cfa565b90506000826001015490508415611ee85781611ed990612d2b565b915080611ee590612d2b565b90505b80600260008560040160009054906101000a900473ffffffffffffffffffffffffffffffffffffffff1673ffffffffffffffffffffffffffffffffffffffff1673ffffffffffffffffffffffffffffffffffffffff1681526020019081526020016000206003016000828254611f5e9190612c37565b9250508190555060005b83600501805490508110156120b857836006016000856005018381548110611f9357611f92612b74565b5b9060005260206000200160009054906101000a900473ffffffffffffffffffffffffffffffffffffffff1673ffffffffffffffffffffffffffffffffffffffff1673ffffffffffffffffffffffffffffffffffffffff16815260200190815260200160002060009054906101000a900460ff16156120a557826002600086600501848154811061202657612025612b74565b5b9060005260206000200160009054906101000a900473ffffffffffffffffffffffffffffffffffffffff1673ffffffffffffffffffffffffffffffffffffffff1673ffffffffffffffffffffffffffffffffffffffff168152602001908152602001600020600301600082825461209d9190612ba3565b925050819055505b80806120b090612b02565b915050611f68565b50505050505050565b8280546120cd90612965565b90600052602060002090601f0160209004810192826120ef5760008555612136565b82601f1061210857805160ff1916838001178555612136565b82800160010185558215612136579182015b8281111561213557825182559160200191906001019061211a565b5b50905061214391906121d1565b5090565b8280548282559060005260206000209081019282156121c0579160200282015b828111156121bf5782518260006101000a81548173ffffffffffffffffffffffffffffffffffffffff021916908373ffffffffffffffffffffffffffffffffffffffff16021790555091602001919060010190612167565b5b5090506121cd91906121d1565b5090565b5b808211156121ea5760008160009055506001016121d2565b5090565b6000604051905090565b600080fd5b600080fd5b600073ffffffffffffffffffffffffffffffffffffffff82169050919050565b600061222d82612202565b9050919050565b61223d81612222565b811461224857600080fd5b50565b60008135905061225a81612234565b92915050565b600060208284031215612276576122756121f8565b5b60006122848482850161224b565b91505092915050565b6000819050919050565b6122a08161228d565b82525050565b600081519050919050565b600082825260208201905092915050565b60005b838110156122e05780820151818401526020810190506122c5565b838111156122ef576000848401525b50505050565b6000601f19601f8301169050919050565b6000612311826122a6565b61231b81856122b1565b935061232b8185602086016122c2565b612334816122f5565b840191505092915050565b61234881612222565b82525050565b6000819050919050565b6123618161234e565b82525050565b600060808201905061237c6000830187612297565b818103602083015261238e8186612306565b905061239d604083018561233f565b6123aa6060830184612358565b95945050505050565b6123bc8161228d565b81146123c757600080fd5b50565b6000813590506123d9816123b3565b92915050565b600080604083850312156123f6576123f56121f8565b5b6000612404858286016123ca565b92505060206124158582860161224b565b9150509250929050565b60008115159050919050565b6124348161241f565b82525050565b600060208201905061244f600083018461242b565b92915050565b600080fd5b600080fd5b7f4e487b7100000000000000000000000000000000000000000000000000000000600052604160045260246000fd5b612497826122f5565b810181811067ffffffffffffffff821117156124b6576124b561245f565b5b80604052505050565b60006124c96121ee565b90506124d5828261248e565b919050565b600067ffffffffffffffff8211156124f5576124f461245f565b5b6124fe826122f5565b9050602081019050919050565b82818337600083830152505050565b600061252d612528846124da565b6124bf565b9050828152602081018484840111156125495761254861245a565b5b61255484828561250b565b509392505050565b600082601f83011261257157612570612455565b5b813561258184826020860161251a565b91505092915050565b600080604083850312156125a1576125a06121f8565b5b600083013567ffffffffffffffff8111156125bf576125be6121fd565b5b6125cb8582860161255c565b92505060206125dc8582860161224b565b9150509250929050565b600060208201905081810360008301526126008184612306565b905092915050565b6126118161241f565b811461261c57600080fd5b50565b60008135905061262e81612608565b92915050565b6000806040838503121561264b5761264a6121f8565b5b6000612659858286016123ca565b925050602061266a8582860161261f565b9150509250929050565b60006020820190506126896000830184612297565b92915050565b6000602082840312156126a5576126a46121f8565b5b60006126b3848285016123ca565b91505092915050565b600060a08201905081810360008301526126d68188612306565b90506126e56020830187612297565b6126f26040830186612297565b6126ff606083018561233f565b61270c608083018461233f565b9695505050505050565b600060a08201905081810360008301526127308188612306565b905061273f6020830187612297565b61274c6040830186612297565b6127596060830185612297565b612766608083018461233f565b9695505050505050565b600067ffffffffffffffff82111561278b5761278a61245f565b5b602082029050602081019050919050565b600080fd5b60006127b46127af84612770565b6124bf565b905080838252602082019050602084028301858111156127d7576127d661279c565b5b835b8181101561280057806127ec888261224b565b8452602084019350506020810190506127d9565b5050509392505050565b600082601f83011261281f5761281e612455565b5b813561282f8482602086016127a1565b91505092915050565b60008060008060808587031215612852576128516121f8565b5b600085013567ffffffffffffffff8111156128705761286f6121fd565b5b61287c8782880161255c565b945050602061288d878288016123ca565b935050604061289e878288016123ca565b925050606085013567ffffffffffffffff8111156128bf576128be6121fd565b5b6128cb8782880161280a565b91505092959194509250565b60006040820190506128ec6000830185612358565b6128f96020830184612297565b9392505050565b6000602082019050612915600083018461233f565b92915050565b60006020820190506129306000830184612358565b92915050565b7f4e487b7100000000000000000000000000000000000000000000000000000000600052602260045260246000fd5b6000600282049050600182168061297d57607f821691505b6020821081141561299157612990612936565b5b50919050565b600081905092915050565b50565b60006129b2600083612997565b91506129bd826129a2565b600082019050919050565b60006129d3826129a5565b9150819050919050565b7f5061757361626c653a2070617573656400000000000000000000000000000000600082015250565b6000612a136010836122b1565b9150612a1e826129dd565b602082019050919050565b60006020820190508181036000830152612a4281612a06565b9050919050565b7f4e487b7100000000000000000000000000000000000000000000000000000000600052601160045260246000fd5b6000612a838261228d565b9150612a8e8361228d565b925082821015612aa157612aa0612a49565b5b828203905092915050565b6000612ab78261228d565b9150612ac28361228d565b9250827fffffffffffffffffffffffffffffffffffffffffffffffffffffffffffffffff03821115612af757612af6612a49565b5b828201905092915050565b6000612b0d8261228d565b91507fffffffffffffffffffffffffffffffffffffffffffffffffffffffffffffffff821415612b4057612b3f612a49565b5b600182019050919050565b6000604082019050612b60600083018561233f565b612b6d6020830184612297565b9392505050565b7f4e487b7100000000000000000000000000000000000000000000000000000000600052603260045260246000fd5b6000612bae8261234e565b9150612bb98361234e565b9250827f800000000000000000000000000000000000000000000000000000000000000001821260008412151615612bf457612bf3612a49565b5b827f7fffffffffffffffffffffffffffffffffffffffffffffffffffffffffffffff018213600084121615612c2c57612c2b612a49565b5b828203905092915050565b6000612c428261234e565b9150612c4d8361234e565b9250817f7fffffffffffffffffffffffffffffffffffffffffffffffffffffffffffffff03831360008312151615612c8857612c87612a49565b5b817f8000000000000000000000000000000000000000000000000000000000000000038312600083121615612cc057612cbf612a49565b5b828201905092915050565b7f4e487b7100000000000000000000000000000000000000000000000000000000600052601260045260246000fd5b6000612d058261228d565b9150612d108361228d565b925082612d2057612d1f612ccb565b5b828204905092915050565b6000612d368261234e565b91507f8000000000000000000000000000000000000000000000000000000000000000821415612d6957612d68612a49565b5b81600003905091905056fea26469706673582212201823014395fbccefa3a9079881f3ae5a0d60cd9fc24b0b26b7f2c2d77197ac5364736f6c63430008090033",
  "immutableReferences": {},
  "source": "// SPDX-License-Identifier: MIT\npragma solidity ^0.8.0;\nimport \"@openzeppelin/contracts/security/Pausable.sol\";\n\n/// @title ExpenseGroup smart contract allows to share and settle a group of expenses and track debts and credits.\n/// @author Andrs Buenestado\ncontract ExpenseGroup is Pausable {\n    \n    /**\n    Max number of payees for a expense (Restriction to avoid high gas costs)\n    */\n    uint8 constant MAX_PAYEES = 20;\n\n    /**\n    Member is a person or company which is part of current expense group.\n     */\n    struct Member {\n        uint256 identifier;\n        string name;\n        address memberAddress;\n        int256 balance;\n    }\n\n    /**\n    Expense is a cost incurred which needs to be paid back.\n    It has an impact on the balance for payer / payees only when a payee gives its approval.\n     */\n    struct Expense {\n        string name;\n        uint256 amount;\n        uint256 valueDate;\n        uint256 creationDate;\n        address payer;\n        address[] payees;\n        mapping(address => bool) approvals;\n    }\n\n    /**\n    Payment is money transfer from one member to another.\n    It can be use to settle a debt or a credit.\n     */\n    struct Payment {\n        string title;\n        uint256 amount;\n        uint256 valueDate;\n        address payer;\n        address payee;\n    }\n\n    string public title;\n\n    /// Users of current expense group\n    mapping(address => Member) public members;\n    \n    // Addresses of all the members\n    address[] public memberAddresses;\n\n    /// Allow the creation of the first member when the contract instance is created.\n    bool public isContractInstanceCreated = false;\n\n    /// A mapping of expense identifier and expense.\n    uint256 public numExpenses;\n    mapping(uint256 => Expense) public expenses;\n\n    Payment[] public payments;\n\n    /// A mapping of all the available withdrawals per address.\n    mapping(address => uint256) public withdrawals;\n\n    /// Restricted to a member (or first constant instantiation)\n    modifier onlyMember() {\n        require(\n            msg.sender == members[msg.sender].memberAddress ||\n                !isContractInstanceCreated\n        );\n        _;\n    }\n\n    /// @notice Constructor. The creator of the smart contract will be the first member.\n    /// @param _owner address of the first member.\n    /// @param _ownerName Yhe name of the first member.\n    /// @param _title ExpenseGroup title \n    constructor(address _owner, string memory _ownerName, string memory _title) {\n        addMember(_ownerName, _owner);\n        title = _title;\n        isContractInstanceCreated = true;\n    }\n\n    /// @notice Event triggered when a new member is added\n    /// @param _memberId the identifier of the member.\n    event MemberAdded(uint256 indexed _memberId);\n\n    /// @notice Event triggered when a new expense is added\n    /// @param _expenseId the identifier of the expense.\n    event ExpenseAdded(uint256 indexed _expenseId);\n    \n    /// @notice Event triggered when an existing expense is approved\n    /// @param _expenseId the identifier of the expense.\n    /// @param _approved approval (true) or disapproval (false)\n    event ExpenseApproved(uint256 indexed _expenseId, bool _approved);\n    \n    /// @notice Event triggered when a payment is made\n    /// @param _payer payer address.\n    /// @param _payee payee address\n    /// @param _amount amount paid\n    event PaymentAdded(address indexed _payer, address _payee, uint256 _amount);\n    \n    /// @notice Event triggered when a withdrawal is made    \n    /// @param _member member address.\n    /// @param _amount withdrawn amount    \n    event Withdrawal(address indexed _member, uint256 _amount);\n\n    /// @notice Adds a member. Only registered member can add new members.\n    /// @param _name the name or alias of the member.\n    /// @param _memberAddress the address of the member.\n    function addMember(string memory _name, address _memberAddress)\n        public\n        onlyMember\n        whenNotPaused\n    {\n        require(\n            _memberAddress != members[_memberAddress].memberAddress ||\n                !isContractInstanceCreated\n        );\n\n        require(_memberAddress != address(0));\n\n        Member memory member = Member({\n            identifier: 0,\n            name: _name,\n            memberAddress: _memberAddress,\n            balance: 0\n        });\n\n        memberAddresses.push(_memberAddress);\n        member.identifier = memberAddresses.length - 1;\n        members[_memberAddress] = member;\n\n        emit MemberAdded(member.identifier);\n    }\n\n    /// @notice Returns the current number of members\n    function getMemberCount() public view returns (uint256)  {\n        return memberAddresses.length;\n    }\n\n    /// @notice Add an expense as payer. By default, the payer is the creator of the expense.\n    /// @dev The number of payees are limited to a fixed number to avoid gas limit using loop.\n    /// @param _title the title of the expense.\n    /// @param _amount the amount of the expense. Must be superior to zero.\n    /// @param _valueDate the value date of the expense.\n    /// @param _payees the list of payee of the expense. The payer can be part of the payees.\n    function addExpense(\n        string memory _title,\n        uint256 _amount,\n        uint256 _valueDate,\n        address[] memory _payees\n    ) public onlyMember whenNotPaused {\n        require(_amount > 0);\n        require(_payees.length > 0 && _payees.length <= MAX_PAYEES);\n        require(_areAllMembers(_payees));\n        require(_areAllAddressesUnique(_payees));\n\n        /// NOTE: Expense contains a mapping 'approvals' and data location needs to be storage.\n        Expense storage expense = expenses[numExpenses++];\n\n        expense.name = _title;\n        expense.amount = _amount;\n        expense.valueDate = _valueDate;\n        expense.payer = msg.sender;\n        expense.creationDate = block.timestamp;\n        expense.payees = _payees;\n\n        emit ExpenseAdded(numExpenses);\n    }\n\n    /// @notice Set member's approval for an expense. Each member has 4 weeks to set its approval.\n    /// @param _expenseId the identifier of the expense.\n    /// @param _approved the approval of the member : true of false.\n    function approve(uint256 _expenseId, bool _approved)\n        public\n        onlyMember\n        whenNotPaused\n    {\n        Expense storage expense = expenses[_expenseId];\n        require(block.timestamp < expense.creationDate + 4 weeks);\n        require(expense.approvals[msg.sender] != _approved);\n\n        uint256 numberOfApprovalsBefore = getNumberOfApprovals(_expenseId);\n\n        /// If the number of approvals before the call is not 0, we revert the balance to the previous state without the expense.\n        if (numberOfApprovalsBefore != 0) {\n            _removeFromBalance(_expenseId);\n        }\n\n        /// Update the number of approvals\n        expense.approvals[msg.sender] = _approved;\n\n        uint256 numberOfApprovalsAfter = getNumberOfApprovals(_expenseId);\n\n        /// If the number of approvals after is not 0, we syncrohonize the balance.\n        if (numberOfApprovalsAfter != 0) {\n            _addToBalance(_expenseId);\n        }\n\n        emit ExpenseApproved(_expenseId, _approved);\n    }\n\n    /// @notice Create a Payment. Use this payable function send money to the smart contract.\n    /// @param _title the title of the payment\n    /// @param _payee the payee of the payment\n    function addPayment(string memory _title, address _payee)\n        public\n        payable\n        onlyMember\n        whenNotPaused\n    {\n        address _payer = msg.sender;\n        require(msg.value > 0);\n        require(_payee != _payer);\n        require(_isMember(_payee));\n\n        Payment memory payment = Payment({\n            title: _title,\n            amount: msg.value,\n            valueDate: block.timestamp,\n            payer: _payer,\n            payee: _payee\n        });\n\n        payments.push(payment);\n        withdrawals[_payee] += msg.value;\n        _synchronizeBalanceAfterPayment(payment);\n\n        emit PaymentAdded(_payer, _payee, msg.value);\n    }\n\n    /// @notice Allow each user to withdraw its money from the smart contract\n    function withdraw() public onlyMember {\n        require(withdrawals[msg.sender] > 0);\n        uint256 amount = withdrawals[msg.sender];\n        withdrawals[msg.sender] = 0;\n\n        (bool success, ) = msg.sender.call{value: amount}(\"\");\n        require(success);\n\n        emit Withdrawal(msg.sender, amount);\n    }\n\n    /// @notice Get the max of all balances.\n    /// @return (max, index) where max is the max of all the balance and index is the index of the member.\n    function getMaxBalance() public view returns (int256, uint256) {\n        int256 max = members[memberAddresses[0]].balance;\n        uint256 index = 0;\n        for (uint256 i = 1; i < memberAddresses.length; i++) {\n            if (max != _getMax(max, members[memberAddresses[i]].balance)) {\n                max = members[memberAddresses[i]].balance;\n                index = i;\n            }\n        }\n        return (max, index);\n    }\n\n    /// @notice Get withdrawal per address\n    /// @return the available withdrawal for the member address\n    function getWithdrawal(address _memberAddress)\n        public\n        view\n        returns (uint256)\n    {\n        return withdrawals[_memberAddress];\n    }\n\n    /// @notice Get approval depending on the expense identifier and address of the member.\n    /// @param _expenseId the index of the expense\n    /// @param _memberAddress address of the payee\n    /// @return true if payee gave is approval, else false\n    function getApproval(uint256 _expenseId, address _memberAddress)\n        public\n        view\n        returns (bool)\n    {\n        return expenses[_expenseId].approvals[_memberAddress];\n    }\n\n    /// @notice Get the total number of approvals for a given expense.\n    /// @param _expenseId the index of the expense\n    /// @return the number of approvals\n    function getNumberOfApprovals(uint256 _expenseId)\n        public\n        view\n        returns (uint256)\n    {\n        Expense storage expense = expenses[_expenseId];\n        uint256 numberOfApprovals = 0;\n        for (uint256 i = 0; i < expense.payees.length; i++) {\n            if (expense.approvals[expense.payees[i]] == true) {\n                numberOfApprovals++;\n            }\n        }\n        return numberOfApprovals;\n    }\n\n    /// @notice Get the balance of a member.\n    /// @param _memberAddress the address of the member\n    /// @return the balance of the member\n    function getBalance(address _memberAddress) public view returns (int256) {\n        return members[_memberAddress].balance;\n    }\n\n    /// @notice Get the name of a member.\n    /// @param _memberAddress the address of the member\n    /// @return the name of the member\n    function getMemberName(address _memberAddress)\n        public\n        view\n        returns (string memory)\n    {\n        return members[_memberAddress].name;\n    }\n\n    /// @notice Check if there is duplicate inside array.\n    /// @param _list the list of address to check\n    /// @return true if there is duplicate, false otherwise\n    function _areAllAddressesUnique(address[] memory _list)\n        internal\n        pure\n        returns (bool)\n    {\n        uint256 counter;\n        for (uint256 i = 0; i < _list.length; i++) {\n            counter = 0;\n            address addr = _list[i];\n            for (uint256 j = 0; j < _list.length; j++) {\n                if (addr == _list[j]) {\n                    counter++;\n                }\n                if (counter == 2) {\n                    return false;\n                }\n            }\n        }\n\n        return true;\n    }\n\n    /// @notice Check if each address of the list is registered as member.\n    /// @param _list the list of address to check\n    /// @return true if all the list is registred as member, false otherwise\n    function _areAllMembers(address[] memory _list)\n        internal\n        view\n        returns (bool)\n    {\n        for (uint256 i = 0; i < _list.length; i++) {\n            if (!_isMember(_list[i])) {\n                return false;\n            }\n        }\n        return true;\n    }\n\n    /// @notice Check if each address of the list is registered as amember.\n    /// @param _memberAddress the address to check\n    /// @return true if all the list is registred as member, false otherwise\n    function _isMember(address _memberAddress) internal view returns (bool) {\n        return (_memberAddress == members[_memberAddress].memberAddress);\n    }\n\n    /// @notice Add the expense amount to the balance if there is some approval\n    /// @dev This function must be use if there is at list one approval in the expense\n    /// @param expenseId the index of the expense\n    function _addToBalance(uint256 expenseId) internal {\n        _calculateBalance(expenseId, false);\n    }\n\n    /// @notice Remove the expense amount from the balance if there is no approval\n    /// @dev This function must not be use if there is zero approval\n    /// @param expenseId the index of the expense\n    function _removeFromBalance(uint256 expenseId) internal {\n        _calculateBalance(expenseId, true);\n    }\n\n    /// @notice Calculate the balance after each approval / unapproval.\n    /// @param _expenseId the index of the expense\n    /// @param _isRemoved indicate if the expense must be reverted or synchronized\n    function _calculateBalance(uint256 _expenseId, bool _isRemoved) internal {\n        uint256 contributors = getNumberOfApprovals(_expenseId);\n        require(contributors > 0);\n        Expense storage expense = expenses[_expenseId];\n        int256 _portion = int256(expense.amount / contributors);\n        int256 _amount = int256(expense.amount);\n\n        if (_isRemoved) {\n            _portion = -(_portion);\n            _amount = -(_amount);\n        }\n\n        members[expense.payer].balance += _amount;\n        for (uint256 i = 0; i < expense.payees.length; i++) {\n            if (expense.approvals[expense.payees[i]]) {\n                members[expense.payees[i]].balance -= _portion;\n            }\n        }\n    }\n\n    /// @notice Calculate the state of the balance after each new payement.\n    /// @param payment which will alter balance\n    function _synchronizeBalanceAfterPayment(Payment memory payment) internal {\n        members[payment.payee].balance -= int256(payment.amount);\n        members[payment.payer].balance += int256(payment.amount);\n    }\n\n    function _getMax(int256 a, int256 b) internal pure returns (int256) {\n        return a >= b ? a : b;\n    }\n\n    function _getMin(int256 a, int256 b) internal pure returns (int256) {\n        return a < b ? a : b;\n    }\n}\n",
  "sourcePath": "/Users/andybn/projects/blockchain-developer-bootcamp-final-project/contracts/ExpenseGroup.sol",
  "compiler": {
    "name": "solc",
    "version": "0.8.9+commit.e5eed63a.Emscripten.clang"
  },
  "schemaVersion": "3.4.3",
  "updatedAt": "2021-10-19T05:50:07.189Z",
  "networkType": "ethereum",
  "devdoc": {
    "author": "Andrs Buenestado",
    "events": {
      "ExpenseAdded(uint256)": {
        "params": {
          "_expenseId": "the identifier of the expense."
        }
      },
      "ExpenseApproved(uint256,bool)": {
        "params": {
          "_approved": "approval (true) or disapproval (false)",
          "_expenseId": "the identifier of the expense."
        }
      },
      "MemberAdded(uint256)": {
        "params": {
          "_memberId": "the identifier of the member."
        }
      },
      "PaymentAdded(address,address,uint256)": {
        "params": {
          "_amount": "amount paid",
          "_payee": "payee address",
          "_payer": "payer address."
        }
      },
      "Withdrawal(address,uint256)": {
        "params": {
          "_amount": "withdrawn amount    ",
          "_member": "member address."
        }
      }
    },
    "kind": "dev",
    "methods": {
      "addExpense(string,uint256,uint256,address[])": {
        "details": "The number of payees are limited to a fixed number to avoid gas limit using loop.",
        "params": {
          "_amount": "the amount of the expense. Must be superior to zero.",
          "_payees": "the list of payee of the expense. The payer can be part of the payees.",
          "_title": "the title of the expense.",
          "_valueDate": "the value date of the expense."
        }
      },
      "addMember(string,address)": {
        "params": {
          "_memberAddress": "the address of the member.",
          "_name": "the name or alias of the member."
        }
      },
      "addPayment(string,address)": {
        "params": {
          "_payee": "the payee of the payment",
          "_title": "the title of the payment"
        }
      },
      "approve(uint256,bool)": {
        "params": {
          "_approved": "the approval of the member : true of false.",
          "_expenseId": "the identifier of the expense."
        }
      },
      "constructor": {
        "params": {
          "_owner": "address of the first member.",
          "_ownerName": "Yhe name of the first member.",
          "_title": "ExpenseGroup title "
        }
      },
      "getApproval(uint256,address)": {
        "params": {
          "_expenseId": "the index of the expense",
          "_memberAddress": "address of the payee"
        },
        "returns": {
          "_0": "true if payee gave is approval, else false"
        }
      },
      "getBalance(address)": {
        "params": {
          "_memberAddress": "the address of the member"
        },
        "returns": {
          "_0": "the balance of the member"
        }
      },
      "getMaxBalance()": {
        "returns": {
          "_0": "(max, index) where max is the max of all the balance and index is the index of the member."
        }
      },
      "getMemberName(address)": {
        "params": {
          "_memberAddress": "the address of the member"
        },
        "returns": {
          "_0": "the name of the member"
        }
      },
      "getNumberOfApprovals(uint256)": {
        "params": {
          "_expenseId": "the index of the expense"
        },
        "returns": {
          "_0": "the number of approvals"
        }
      },
      "getWithdrawal(address)": {
        "returns": {
          "_0": "the available withdrawal for the member address"
        }
      },
      "paused()": {
        "details": "Returns true if the contract is paused, and false otherwise."
      }
    },
    "title": "ExpenseGroup smart contract allows to share and settle a group of expenses and track debts and credits.",
    "version": 1
  },
  "userdoc": {
    "events": {
      "ExpenseAdded(uint256)": {
        "notice": "Event triggered when a new expense is added"
      },
      "ExpenseApproved(uint256,bool)": {
        "notice": "Event triggered when an existing expense is approved"
      },
      "MemberAdded(uint256)": {
        "notice": "Event triggered when a new member is added"
      },
      "PaymentAdded(address,address,uint256)": {
        "notice": "Event triggered when a payment is made"
      },
      "Withdrawal(address,uint256)": {
        "notice": "Event triggered when a withdrawal is made    "
      }
    },
    "kind": "user",
    "methods": {
      "addExpense(string,uint256,uint256,address[])": {
        "notice": "Add an expense as payer. By default, the payer is the creator of the expense."
      },
      "addMember(string,address)": {
        "notice": "Adds a member. Only registered member can add new members."
      },
      "addPayment(string,address)": {
        "notice": "Create a Payment. Use this payable function send money to the smart contract."
      },
      "approve(uint256,bool)": {
        "notice": "Set member's approval for an expense. Each member has 4 weeks to set its approval."
      },
      "constructor": {
        "notice": "Constructor. The creator of the smart contract will be the first member."
      },
      "getApproval(uint256,address)": {
        "notice": "Get approval depending on the expense identifier and address of the member."
      },
      "getBalance(address)": {
        "notice": "Get the balance of a member."
      },
      "getMaxBalance()": {
        "notice": "Get the max of all balances."
      },
      "getMemberCount()": {
        "notice": "Returns the current number of members"
      },
      "getMemberName(address)": {
        "notice": "Get the name of a member."
      },
      "getNumberOfApprovals(uint256)": {
        "notice": "Get the total number of approvals for a given expense."
      },
      "getWithdrawal(address)": {
        "notice": "Get withdrawal per address"
      },
      "isContractInstanceCreated()": {
        "notice": "Allow the creation of the first member when the contract instance is created."
      },
      "members(address)": {
        "notice": "Users of current expense group"
      },
      "numExpenses()": {
        "notice": "A mapping of expense identifier and expense."
      },
      "withdraw()": {
        "notice": "Allow each user to withdraw its money from the smart contract"
      },
      "withdrawals(address)": {
        "notice": "A mapping of all the available withdrawals per address."
      }
    },
    "version": 1
  }
}