{
  "contractName": "ExpenseGroupFactory",
  "abi": [
    {
      "anonymous": false,
      "inputs": [
        {
          "indexed": true,
          "internalType": "address",
          "name": "_expenseGroupAddress",
          "type": "address"
        },
        {
          "indexed": true,
          "internalType": "string",
          "name": "_ownerName",
          "type": "string"
        }
      ],
      "name": "ExpenseGroupCreated",
      "type": "event"
    },
    {
      "inputs": [
        {
          "internalType": "uint256",
          "name": "",
          "type": "uint256"
        }
      ],
      "name": "expenseGroups",
      "outputs": [
        {
          "internalType": "contract ExpenseGroup",
          "name": "",
          "type": "address"
        }
      ],
      "stateMutability": "view",
      "type": "function",
      "constant": true
    },
    {
      "inputs": [
        {
          "internalType": "string",
          "name": "_ownerName",
          "type": "string"
        },
        {
          "internalType": "string",
          "name": "_title",
          "type": "string"
        }
      ],
      "name": "createExpenseGroup",
      "outputs": [],
      "stateMutability": "nonpayable",
      "type": "function"
    },
    {
      "inputs": [],
      "name": "getExpenseGroups",
      "outputs": [
        {
          "internalType": "contract ExpenseGroup[]",
          "name": "",
          "type": "address[]"
        }
      ],
      "stateMutability": "view",
      "type": "function",
      "constant": true
    }
  ],
  "bytecode": "0x608060405234801561001057600080fd5b50615110806100206000396000f3fe60806040523480156200001157600080fd5b5060043610620000465760003560e01c80631b5d0551146200004b5780634d3a27cd146200006d57806364c0b37114620000a3575b600080fd5b62000055620000c3565b604051620000649190620003ed565b60405180910390f35b6200008b600480360381019062000085919062000460565b62000153565b6040516200009a9190620004a3565b60405180910390f35b620000c16004803603810190620000bb919062000622565b62000193565b005b606060008054806020026020016040519081016040528092919081815260200182805480156200014957602002820191906000526020600020905b8160009054906101000a900473ffffffffffffffffffffffffffffffffffffffff1673ffffffffffffffffffffffffffffffffffffffff1681526020019060010190808311620000fe575b5050505050905090565b600081815481106200016457600080fd5b906000526020600020016000915054906101000a900473ffffffffffffffffffffffffffffffffffffffff1681565b6000338383604051620001a69062000297565b620001b4939291906200075f565b604051809103906000f080158015620001d1573d6000803e3d6000fd5b5090506000819080600181540180825580915050600190039060005260206000200160009091909190916101000a81548173ffffffffffffffffffffffffffffffffffffffff021916908373ffffffffffffffffffffffffffffffffffffffff16021790555082604051620002479190620007ec565b60405180910390208173ffffffffffffffffffffffffffffffffffffffff167f75ba07ee2e9d62321ba6ac8c2c0b4e4330ce5f8571ede4021c79d549fcb7f2a760405160405180910390a3505050565b6148d5806200080683390190565b600081519050919050565b600082825260208201905092915050565b6000819050602082019050919050565b600073ffffffffffffffffffffffffffffffffffffffff82169050919050565b6000819050919050565b60006200031c620003166200031084620002d1565b620002f1565b620002d1565b9050919050565b60006200033082620002fb565b9050919050565b6000620003448262000323565b9050919050565b620003568162000337565b82525050565b60006200036a83836200034b565b60208301905092915050565b6000602082019050919050565b60006200039082620002a5565b6200039c8185620002b0565b9350620003a983620002c1565b8060005b83811015620003e0578151620003c488826200035c565b9750620003d18362000376565b925050600181019050620003ad565b5085935050505092915050565b6000602082019050818103600083015262000409818462000383565b905092915050565b6000604051905090565b600080fd5b600080fd5b6000819050919050565b6200043a8162000425565b81146200044657600080fd5b50565b6000813590506200045a816200042f565b92915050565b6000602082840312156200047957620004786200041b565b5b6000620004898482850162000449565b91505092915050565b6200049d8162000337565b82525050565b6000602082019050620004ba600083018462000492565b92915050565b600080fd5b600080fd5b6000601f19601f8301169050919050565b7f4e487b7100000000000000000000000000000000000000000000000000000000600052604160045260246000fd5b6200051582620004ca565b810181811067ffffffffffffffff82111715620005375762000536620004db565b5b80604052505050565b60006200054c62000411565b90506200055a82826200050a565b919050565b600067ffffffffffffffff8211156200057d576200057c620004db565b5b6200058882620004ca565b9050602081019050919050565b82818337600083830152505050565b6000620005bb620005b5846200055f565b62000540565b905082815260208101848484011115620005da57620005d9620004c5565b5b620005e784828562000595565b509392505050565b600082601f830112620006075762000606620004c0565b5b813562000619848260208601620005a4565b91505092915050565b600080604083850312156200063c576200063b6200041b565b5b600083013567ffffffffffffffff8111156200065d576200065c62000420565b5b6200066b85828601620005ef565b925050602083013567ffffffffffffffff8111156200068f576200068e62000420565b5b6200069d85828601620005ef565b9150509250929050565b6000620006b482620002d1565b9050919050565b620006c681620006a7565b82525050565b600081519050919050565b600082825260208201905092915050565b60005b8381101562000708578082015181840152602081019050620006eb565b8381111562000718576000848401525b50505050565b60006200072b82620006cc565b620007378185620006d7565b935062000749818560208601620006e8565b6200075481620004ca565b840191505092915050565b6000606082019050620007766000830186620006bb565b81810360208301526200078a81856200071e565b90508181036040830152620007a081846200071e565b9050949350505050565b600081905092915050565b6000620007c282620006cc565b620007ce8185620007aa565b9350620007e0818560208601620006e8565b80840191505092915050565b6000620007fa8284620007b5565b91508190509291505056fe60806040526000600460006101000a81548160ff0219169083151502179055503480156200002c57600080fd5b50604051620048d5380380620048d58339818101604052810190620000529190620008a7565b60008060006101000a81548160ff0219169083151502179055506000825111620000b3576040517f08c379a0000000000000000000000000000000000000000000000000000000008152600401620000aa90620009a2565b60405180910390fd5b6000815111620000fa576040517f08c379a0000000000000000000000000000000000000000000000000000000008152600401620000f19062000a14565b60405180910390fd5b6200010c82846200014960201b60201c565b806001908051906020019062000124929190620005f5565b506001600460006101000a81548160ff02191690831515021790555050505062000d6f565b600260003373ffffffffffffffffffffffffffffffffffffffff1673ffffffffffffffffffffffffffffffffffffffff16815260200190815260200160002060020160009054906101000a900473ffffffffffffffffffffffffffffffffffffffff1673ffffffffffffffffffffffffffffffffffffffff163373ffffffffffffffffffffffffffffffffffffffff161480620001f35750600460009054906101000a900460ff16155b62000235576040517f08c379a00000000000000000000000000000000000000000000000000000000081526004016200022c9062000a86565b60405180910390fd5b62000245620005df60201b60201c565b1562000288576040517f08c379a00000000000000000000000000000000000000000000000000000000081526004016200027f9062000af8565b60405180910390fd5b600260008273ffffffffffffffffffffffffffffffffffffffff1673ffffffffffffffffffffffffffffffffffffffff16815260200190815260200160002060020160009054906101000a900473ffffffffffffffffffffffffffffffffffffffff1673ffffffffffffffffffffffffffffffffffffffff168173ffffffffffffffffffffffffffffffffffffffff16141580620003335750600460009054906101000a900460ff16155b62000375576040517f08c379a00000000000000000000000000000000000000000000000000000000081526004016200036c9062000b90565b60405180910390fd5b6000825111620003bc576040517f08c379a0000000000000000000000000000000000000000000000000000000008152600401620003b39062000c02565b60405180910390fd5b600073ffffffffffffffffffffffffffffffffffffffff168173ffffffffffffffffffffffffffffffffffffffff1614156200042f576040517f08c379a0000000000000000000000000000000000000000000000000000000008152600401620004269062000c74565b60405180910390fd5b60006040518060800160405280600081526020018481526020018373ffffffffffffffffffffffffffffffffffffffff168152602001600081525090506003829080600181540180825580915050600190039060005260206000200160009091909190916101000a81548173ffffffffffffffffffffffffffffffffffffffff021916908373ffffffffffffffffffffffffffffffffffffffff1602179055506001600380549050620004e3919062000ccf565b81600001818152505080600260008473ffffffffffffffffffffffffffffffffffffffff1673ffffffffffffffffffffffffffffffffffffffff16815260200190815260200160002060008201518160000155602082015181600101908051906020019062000554929190620005f5565b5060408201518160020160006101000a81548173ffffffffffffffffffffffffffffffffffffffff021916908373ffffffffffffffffffffffffffffffffffffffff1602179055506060820151816003015590505080600001517f663edc42a721f7c73209441ed31f141cef6912283c680024547d950559c5559160405160405180910390a2505050565b60008060009054906101000a900460ff16905090565b828054620006039062000d39565b90600052602060002090601f01602090048101928262000627576000855562000673565b82601f106200064257805160ff191683800117855562000673565b8280016001018555821562000673579182015b828111156200067257825182559160200191906001019062000655565b5b50905062000682919062000686565b5090565b5b80821115620006a157600081600090555060010162000687565b5090565b6000604051905090565b600080fd5b600080fd5b600073ffffffffffffffffffffffffffffffffffffffff82169050919050565b6000620006e682620006b9565b9050919050565b620006f881620006d9565b81146200070457600080fd5b50565b6000815190506200071881620006ed565b92915050565b600080fd5b600080fd5b6000601f19601f8301169050919050565b7f4e487b7100000000000000000000000000000000000000000000000000000000600052604160045260246000fd5b620007738262000728565b810181811067ffffffffffffffff8211171562000795576200079462000739565b5b80604052505050565b6000620007aa620006a5565b9050620007b8828262000768565b919050565b600067ffffffffffffffff821115620007db57620007da62000739565b5b620007e68262000728565b9050602081019050919050565b60005b8381101562000813578082015181840152602081019050620007f6565b8381111562000823576000848401525b50505050565b6000620008406200083a84620007bd565b6200079e565b9050828152602081018484840111156200085f576200085e62000723565b5b6200086c848285620007f3565b509392505050565b600082601f8301126200088c576200088b6200071e565b5b81516200089e84826020860162000829565b91505092915050565b600080600060608486031215620008c357620008c2620006af565b5b6000620008d38682870162000707565b935050602084015167ffffffffffffffff811115620008f757620008f6620006b4565b5b620009058682870162000874565b925050604084015167ffffffffffffffff811115620009295762000928620006b4565b5b620009378682870162000874565b9150509250925092565b600082825260208201905092915050565b7f4f776e6572206e616d652063616e6e6f7420626520656d707479000000000000600082015250565b60006200098a601a8362000941565b9150620009978262000952565b602082019050919050565b60006020820190508181036000830152620009bd816200097b565b9050919050565b7f5469746c652063616e6e6f7420626520656d7074790000000000000000000000600082015250565b6000620009fc60158362000941565b915062000a0982620009c4565b602082019050919050565b6000602082019050818103600083015262000a2f81620009ed565b9050919050565b7f53656e646572206973207374696c6c206e6f742061206d656d62657200000000600082015250565b600062000a6e601c8362000941565b915062000a7b8262000a36565b602082019050919050565b6000602082019050818103600083015262000aa18162000a5f565b9050919050565b7f5061757361626c653a2070617573656400000000000000000000000000000000600082015250565b600062000ae060108362000941565b915062000aed8262000aa8565b602082019050919050565b6000602082019050818103600083015262000b138162000ad1565b9050919050565b7f41206d656d62657220776974682074686174206164647265737320616c72656160008201527f6479206578697374730000000000000000000000000000000000000000000000602082015250565b600062000b7860298362000941565b915062000b858262000b1a565b604082019050919050565b6000602082019050818103600083015262000bab8162000b69565b9050919050565b7f4e616d652063616e6e6f7420626520656d707479000000000000000000000000600082015250565b600062000bea60148362000941565b915062000bf78262000bb2565b602082019050919050565b6000602082019050818103600083015262000c1d8162000bdb565b9050919050565b7f416464726573732063616e6e6f7420626520656d707479000000000000000000600082015250565b600062000c5c60178362000941565b915062000c698262000c24565b602082019050919050565b6000602082019050818103600083015262000c8f8162000c4d565b9050919050565b6000819050919050565b7f4e487b7100000000000000000000000000000000000000000000000000000000600052601160045260246000fd5b600062000cdc8262000c96565b915062000ce98362000c96565b92508282101562000cff5762000cfe62000ca0565b5b828203905092915050565b7f4e487b7100000000000000000000000000000000000000000000000000000000600052602260045260246000fd5b6000600282049050600182168062000d5257607f821691505b6020821081141562000d695762000d6862000d0a565b5b50919050565b613b568062000d7f6000396000f3fe6080604052600436106101355760003560e01c80638f081ece116100ab578063b4d95e711161006f578063b4d95e711461046d578063bc35008814610496578063c3e1888e146104b2578063cc4e6299146104de578063f8b2cb4f1461051b578063ff419aa21461055857610135565b80638f081ece1461035c578063997072f71461038757806399f62bab146103b2578063af4afe0a146103ef578063aff4b8491461043057610135565b80635b8f3d14116100fd5780635b8f3d14146102225780635c975abb1461024d5780636c02c75c14610278578063747442d3146102b55780637a9262a2146102de57806387d817891461031b57610135565b806308ae4b0c1461013a57806328c847931461017a5780633ccfd60b146101b757806345e39705146101ce5780634a79d50c146101f7575b600080fd5b34801561014657600080fd5b50610161600480360381019061015c91906127ae565b610595565b60405161017194939291906128b5565b60405180910390f35b34801561018657600080fd5b506101a1600480360381019061019c919061292d565b61066d565b6040516101ae9190612988565b60405180910390f35b3480156101c357600080fd5b506101cc6106d8565b005b3480156101da57600080fd5b506101f560048036038101906101f09190612ad8565b610993565b005b34801561020357600080fd5b5061020c610e0c565b6040516102199190612b34565b60405180910390f35b34801561022e57600080fd5b50610237610e9a565b6040516102449190612988565b60405180910390f35b34801561025957600080fd5b50610262610ead565b60405161026f9190612988565b60405180910390f35b34801561028457600080fd5b5061029f600480360381019061029a9190612b56565b610ec3565b6040516102ac9190612c41565b60405180910390f35b3480156102c157600080fd5b506102dc60048036038101906102d79190612c8f565b610f67565b005b3480156102ea57600080fd5b50610305600480360381019061030091906127ae565b61126d565b6040516103129190612ccf565b60405180910390f35b34801561032757600080fd5b50610342600480360381019061033d9190612b56565b611285565b604051610353959493929190612cea565b60405180910390f35b34801561036857600080fd5b50610371611393565b60405161037e9190612ccf565b60405180910390f35b34801561039357600080fd5b5061039c611399565b6040516103a99190612ccf565b60405180910390f35b3480156103be57600080fd5b506103d960048036038101906103d491906127ae565b6113a6565b6040516103e69190612ccf565b60405180910390f35b3480156103fb57600080fd5b5061041660048036038101906104119190612b56565b6113ef565b604051610427959493929190612d44565b60405180910390f35b34801561043c57600080fd5b50610457600480360381019061045291906127ae565b6114cd565b6040516104649190612b34565b60405180910390f35b34801561047957600080fd5b50610494600480360381019061048f9190612e66565b6115a1565b005b6104b060048036038101906104ab9190612ad8565b611930565b005b3480156104be57600080fd5b506104c7611d9c565b6040516104d5929190612f05565b60405180910390f35b3480156104ea57600080fd5b5061050560048036038101906105009190612b56565b611f71565b6040516105129190612f2e565b60405180910390f35b34801561052757600080fd5b50610542600480360381019061053d91906127ae565b611fb0565b60405161054f9190612f49565b60405180910390f35b34801561056457600080fd5b5061057f600480360381019061057a9190612b56565b611ffc565b60405161058c9190612ccf565b60405180910390f35b60026020528060005260406000206000915090508060000154908060010180546105be90612f93565b80601f01602080910402602001604051908101604052809291908181526020018280546105ea90612f93565b80156106375780601f1061060c57610100808354040283529160200191610637565b820191906000526020600020905b81548152906001019060200180831161061a57829003601f168201915b5050505050908060020160009054906101000a900473ffffffffffffffffffffffffffffffffffffffff16908060030154905084565b60006006600084815260200190815260200160002060060160008373ffffffffffffffffffffffffffffffffffffffff1673ffffffffffffffffffffffffffffffffffffffff16815260200190815260200160002060009054906101000a900460ff16905092915050565b600260003373ffffffffffffffffffffffffffffffffffffffff1673ffffffffffffffffffffffffffffffffffffffff16815260200190815260200160002060020160009054906101000a900473ffffffffffffffffffffffffffffffffffffffff1673ffffffffffffffffffffffffffffffffffffffff163373ffffffffffffffffffffffffffffffffffffffff1614806107815750600460009054906101000a900460ff16155b6107c0576040517f08c379a00000000000000000000000000000000000000000000000000000000081526004016107b790613011565b60405180910390fd5b6000600860003373ffffffffffffffffffffffffffffffffffffffff1673ffffffffffffffffffffffffffffffffffffffff1681526020019081526020016000205411610842576040517f08c379a00000000000000000000000000000000000000000000000000000000081526004016108399061307d565b60405180910390fd5b6000600860003373ffffffffffffffffffffffffffffffffffffffff1673ffffffffffffffffffffffffffffffffffffffff1681526020019081526020016000205490506000600860003373ffffffffffffffffffffffffffffffffffffffff1673ffffffffffffffffffffffffffffffffffffffff1681526020019081526020016000208190555060003373ffffffffffffffffffffffffffffffffffffffff16826040516108f1906130ce565b60006040518083038185875af1925050503d806000811461092e576040519150601f19603f3d011682016040523d82523d6000602084013e610933565b606091505b505090508061094157600080fd5b3373ffffffffffffffffffffffffffffffffffffffff167f7fcf532c15f0a6db0bd6d0e038bea71d30d808c7d98cb3bf7268a95bf5081b65836040516109879190612ccf565b60405180910390a25050565b600260003373ffffffffffffffffffffffffffffffffffffffff1673ffffffffffffffffffffffffffffffffffffffff16815260200190815260200160002060020160009054906101000a900473ffffffffffffffffffffffffffffffffffffffff1673ffffffffffffffffffffffffffffffffffffffff163373ffffffffffffffffffffffffffffffffffffffff161480610a3c5750600460009054906101000a900460ff16155b610a7b576040517f08c379a0000000000000000000000000000000000000000000000000000000008152600401610a7290613011565b60405180910390fd5b610a83610ead565b15610ac3576040517f08c379a0000000000000000000000000000000000000000000000000000000008152600401610aba9061312f565b60405180910390fd5b600260008273ffffffffffffffffffffffffffffffffffffffff1673ffffffffffffffffffffffffffffffffffffffff16815260200190815260200160002060020160009054906101000a900473ffffffffffffffffffffffffffffffffffffffff1673ffffffffffffffffffffffffffffffffffffffff168173ffffffffffffffffffffffffffffffffffffffff16141580610b6d5750600460009054906101000a900460ff16155b610bac576040517f08c379a0000000000000000000000000000000000000000000000000000000008152600401610ba3906131c1565b60405180910390fd5b6000825111610bf0576040517f08c379a0000000000000000000000000000000000000000000000000000000008152600401610be79061322d565b60405180910390fd5b600073ffffffffffffffffffffffffffffffffffffffff168173ffffffffffffffffffffffffffffffffffffffff161415610c60576040517f08c379a0000000000000000000000000000000000000000000000000000000008152600401610c5790613299565b60405180910390fd5b60006040518060800160405280600081526020018481526020018373ffffffffffffffffffffffffffffffffffffffff168152602001600081525090506003829080600181540180825580915050600190039060005260206000200160009091909190916101000a81548173ffffffffffffffffffffffffffffffffffffffff021916908373ffffffffffffffffffffffffffffffffffffffff1602179055506001600380549050610d1291906132e8565b81600001818152505080600260008473ffffffffffffffffffffffffffffffffffffffff1673ffffffffffffffffffffffffffffffffffffffff168152602001908152602001600020600082015181600001556020820151816001019080519060200190610d8192919061260f565b5060408201518160020160006101000a81548173ffffffffffffffffffffffffffffffffffffffff021916908373ffffffffffffffffffffffffffffffffffffffff1602179055506060820151816003015590505080600001517f663edc42a721f7c73209441ed31f141cef6912283c680024547d950559c5559160405160405180910390a2505050565b60018054610e1990612f93565b80601f0160208091040260200160405190810160405280929190818152602001828054610e4590612f93565b8015610e925780601f10610e6757610100808354040283529160200191610e92565b820191906000526020600020905b815481529060010190602001808311610e7557829003601f168201915b505050505081565b600460009054906101000a900460ff1681565b60008060009054906101000a900460ff16905090565b606060066000838152602001908152602001600020600501805480602002602001604051908101604052809291908181526020018280548015610f5b57602002820191906000526020600020905b8160009054906101000a900473ffffffffffffffffffffffffffffffffffffffff1673ffffffffffffffffffffffffffffffffffffffff1681526020019060010190808311610f11575b50505050509050919050565b600260003373ffffffffffffffffffffffffffffffffffffffff1673ffffffffffffffffffffffffffffffffffffffff16815260200190815260200160002060020160009054906101000a900473ffffffffffffffffffffffffffffffffffffffff1673ffffffffffffffffffffffffffffffffffffffff163373ffffffffffffffffffffffffffffffffffffffff1614806110105750600460009054906101000a900460ff16155b61104f576040517f08c379a000000000000000000000000000000000000000000000000000000000815260040161104690613011565b60405180910390fd5b611057610ead565b15611097576040517f08c379a000000000000000000000000000000000000000000000000000000000815260040161108e9061312f565b60405180910390fd5b60006006600084815260200190815260200160002090506224ea0081600301546110c1919061331c565b4210611102576040517f08c379a00000000000000000000000000000000000000000000000000000000081526004016110f9906133e4565b60405180910390fd5b8115158160060160003373ffffffffffffffffffffffffffffffffffffffff1673ffffffffffffffffffffffffffffffffffffffff16815260200190815260200160002060009054906101000a900460ff1615151415611197576040517f08c379a000000000000000000000000000000000000000000000000000000000815260040161118e90613476565b60405180910390fd5b60006111a284611ffc565b9050600081146111b6576111b5846120ef565b5b828260060160003373ffffffffffffffffffffffffffffffffffffffff1673ffffffffffffffffffffffffffffffffffffffff16815260200190815260200160002060006101000a81548160ff021916908315150217905550600061121a85611ffc565b90506000811461122e5761122d856120fd565b5b847f23c19de93ce378d27f3b34f74ae236838987d9179c902bca3cdc3bb93bd731448560405161125e9190612988565b60405180910390a25050505050565b60086020528060005260406000206000915090505481565b6007818154811061129557600080fd5b90600052602060002090600502016000915090508060000180546112b890612f93565b80601f01602080910402602001604051908101604052809291908181526020018280546112e490612f93565b80156113315780601f1061130657610100808354040283529160200191611331565b820191906000526020600020905b81548152906001019060200180831161131457829003601f168201915b5050505050908060010154908060020154908060030160009054906101000a900473ffffffffffffffffffffffffffffffffffffffff16908060040160009054906101000a900473ffffffffffffffffffffffffffffffffffffffff16905085565b60055481565b6000600380549050905090565b6000600860008373ffffffffffffffffffffffffffffffffffffffff1673ffffffffffffffffffffffffffffffffffffffff168152602001908152602001600020549050919050565b600660205280600052604060002060009150905080600001805461141290612f93565b80601f016020809104026020016040519081016040528092919081815260200182805461143e90612f93565b801561148b5780601f106114605761010080835404028352916020019161148b565b820191906000526020600020905b81548152906001019060200180831161146e57829003601f168201915b5050505050908060010154908060020154908060030154908060040160009054906101000a900473ffffffffffffffffffffffffffffffffffffffff16905085565b6060600260008373ffffffffffffffffffffffffffffffffffffffff1673ffffffffffffffffffffffffffffffffffffffff168152602001908152602001600020600101805461151c90612f93565b80601f016020809104026020016040519081016040528092919081815260200182805461154890612f93565b80156115955780601f1061156a57610100808354040283529160200191611595565b820191906000526020600020905b81548152906001019060200180831161157857829003601f168201915b50505050509050919050565b600260003373ffffffffffffffffffffffffffffffffffffffff1673ffffffffffffffffffffffffffffffffffffffff16815260200190815260200160002060020160009054906101000a900473ffffffffffffffffffffffffffffffffffffffff1673ffffffffffffffffffffffffffffffffffffffff163373ffffffffffffffffffffffffffffffffffffffff16148061164a5750600460009054906101000a900460ff16155b611689576040517f08c379a000000000000000000000000000000000000000000000000000000000815260040161168090613011565b60405180910390fd5b611691610ead565b156116d1576040517f08c379a00000000000000000000000000000000000000000000000000000000081526004016116c89061312f565b60405180910390fd5b6000845111611715576040517f08c379a000000000000000000000000000000000000000000000000000000000815260040161170c906134e2565b60405180910390fd5b60008311611758576040517f08c379a000000000000000000000000000000000000000000000000000000000815260040161174f9061354e565b60405180910390fd5b6000815111801561176e5750601460ff16815111155b6117ad576040517f08c379a00000000000000000000000000000000000000000000000000000000081526004016117a4906135ba565b60405180910390fd5b6117b68161210b565b6117f5576040517f08c379a00000000000000000000000000000000000000000000000000000000081526004016117ec90613626565b60405180910390fd5b6117fe8161216b565b61183d576040517f08c379a000000000000000000000000000000000000000000000000000000000815260040161183490613692565b60405180910390fd5b60006006600060056000815480929190611856906136b2565b91905055815260200190815260200160002090508481600001908051906020019061188292919061260f565b50838160010181905550828160020181905550338160040160006101000a81548173ffffffffffffffffffffffffffffffffffffffff021916908373ffffffffffffffffffffffffffffffffffffffff160217905550428160030181905550818160050190805190602001906118f9929190612695565b506005547f0196a834ab6362d8b08696adb04296039cef5ac7132808904aa83f47bf7f4e5e60405160405180910390a25050505050565b600260003373ffffffffffffffffffffffffffffffffffffffff1673ffffffffffffffffffffffffffffffffffffffff16815260200190815260200160002060020160009054906101000a900473ffffffffffffffffffffffffffffffffffffffff1673ffffffffffffffffffffffffffffffffffffffff163373ffffffffffffffffffffffffffffffffffffffff1614806119d95750600460009054906101000a900460ff16155b611a18576040517f08c379a0000000000000000000000000000000000000000000000000000000008152600401611a0f90613011565b60405180910390fd5b611a20610ead565b15611a60576040517f08c379a0000000000000000000000000000000000000000000000000000000008152600401611a579061312f565b60405180910390fd5b600033905060003411611aa8576040517f08c379a0000000000000000000000000000000000000000000000000000000008152600401611a9f9061376d565b60405180910390fd5b8073ffffffffffffffffffffffffffffffffffffffff168273ffffffffffffffffffffffffffffffffffffffff161415611b17576040517f08c379a0000000000000000000000000000000000000000000000000000000008152600401611b0e906137ff565b60405180910390fd5b611b2082612250565b611b5f576040517f08c379a0000000000000000000000000000000000000000000000000000000008152600401611b569061386b565b60405180910390fd5b6000835111611ba3576040517f08c379a0000000000000000000000000000000000000000000000000000000008152600401611b9a906138d7565b60405180910390fd5b60006040518060a001604052808581526020013481526020014281526020018373ffffffffffffffffffffffffffffffffffffffff1681526020018473ffffffffffffffffffffffffffffffffffffffff16815250905060078190806001815401808255809150506001900390600052602060002090600502016000909190919091506000820151816000019080519060200190611c4292919061260f565b50602082015181600101556040820151816002015560608201518160030160006101000a81548173ffffffffffffffffffffffffffffffffffffffff021916908373ffffffffffffffffffffffffffffffffffffffff16021790555060808201518160040160006101000a81548173ffffffffffffffffffffffffffffffffffffffff021916908373ffffffffffffffffffffffffffffffffffffffff160217905550505034600860008573ffffffffffffffffffffffffffffffffffffffff1673ffffffffffffffffffffffffffffffffffffffff1681526020019081526020016000206000828254611d36919061331c565b92505081905550611d46816122ea565b8173ffffffffffffffffffffffffffffffffffffffff167f9d1bcf0ff0f343cd9c63d8f1eb8a81b7884dc4151cb4eb64d0281f7ecd6975488434604051611d8e9291906138f7565b60405180910390a250505050565b6000806000600260006003600081548110611dba57611db9613920565b5b9060005260206000200160009054906101000a900473ffffffffffffffffffffffffffffffffffffffff1673ffffffffffffffffffffffffffffffffffffffff1673ffffffffffffffffffffffffffffffffffffffff168152602001908152602001600020600301549050600080600190505b600380549050811015611f6457611ec4836002600060038581548110611e5657611e55613920565b5b9060005260206000200160009054906101000a900473ffffffffffffffffffffffffffffffffffffffff1673ffffffffffffffffffffffffffffffffffffffff1673ffffffffffffffffffffffffffffffffffffffff168152602001908152602001600020600301546123af565b8314611f51576002600060038381548110611ee257611ee1613920565b5b9060005260206000200160009054906101000a900473ffffffffffffffffffffffffffffffffffffffff1673ffffffffffffffffffffffffffffffffffffffff1673ffffffffffffffffffffffffffffffffffffffff1681526020019081526020016000206003015492508091505b8080611f5c906136b2565b915050611e2d565b5081819350935050509091565b60038181548110611f8157600080fd5b906000526020600020016000915054906101000a900473ffffffffffffffffffffffffffffffffffffffff1681565b6000600260008373ffffffffffffffffffffffffffffffffffffffff1673ffffffffffffffffffffffffffffffffffffffff168152602001908152602001600020600301549050919050565b6000806006600084815260200190815260200160002090506000805b82600501805490508110156120e4576001151583600601600085600501848154811061204757612046613920565b5b9060005260206000200160009054906101000a900473ffffffffffffffffffffffffffffffffffffffff1673ffffffffffffffffffffffffffffffffffffffff1673ffffffffffffffffffffffffffffffffffffffff16815260200190815260200160002060009054906101000a900460ff16151514156120d15781806120cd906136b2565b9250505b80806120dc906136b2565b915050612018565b508092505050919050565b6120fa8160016123c9565b50565b6121088160006123c9565b50565b600080600090505b82518110156121605761213f83828151811061213257612131613920565b5b6020026020010151612250565b61214d576000915050612166565b8080612158906136b2565b915050612113565b50600190505b919050565b60008060005b83518110156122445760009150600084828151811061219357612192613920565b5b6020026020010151905060005b855181101561222f578581815181106121bc576121bb613920565b5b602002602001015173ffffffffffffffffffffffffffffffffffffffff168273ffffffffffffffffffffffffffffffffffffffff161415612206578380612202906136b2565b9450505b600284141561221c57600094505050505061224b565b8080612227906136b2565b9150506121a0565b5050808061223c906136b2565b915050612171565b5060019150505b919050565b6000600260008373ffffffffffffffffffffffffffffffffffffffff1673ffffffffffffffffffffffffffffffffffffffff16815260200190815260200160002060020160009054906101000a900473ffffffffffffffffffffffffffffffffffffffff1673ffffffffffffffffffffffffffffffffffffffff168273ffffffffffffffffffffffffffffffffffffffff16149050919050565b806020015160026000836080015173ffffffffffffffffffffffffffffffffffffffff1673ffffffffffffffffffffffffffffffffffffffff1681526020019081526020016000206003016000828254612344919061394f565b92505081905550806020015160026000836060015173ffffffffffffffffffffffffffffffffffffffff1673ffffffffffffffffffffffffffffffffffffffff16815260200190815260200160002060030160008282546123a591906139e3565b9250508190555050565b6000818312156123bf57816123c1565b825b905092915050565b60006123d483611ffc565b9050600081116123e357600080fd5b6000600660008581526020019081526020016000209050600082826001015461240c9190613aa6565b90506000826001015490508415612436578161242790613ad7565b91508061243390613ad7565b90505b80600260008560040160009054906101000a900473ffffffffffffffffffffffffffffffffffffffff1673ffffffffffffffffffffffffffffffffffffffff1673ffffffffffffffffffffffffffffffffffffffff16815260200190815260200160002060030160008282546124ac91906139e3565b9250508190555060005b8360050180549050811015612606578360060160008560050183815481106124e1576124e0613920565b5b9060005260206000200160009054906101000a900473ffffffffffffffffffffffffffffffffffffffff1673ffffffffffffffffffffffffffffffffffffffff1673ffffffffffffffffffffffffffffffffffffffff16815260200190815260200160002060009054906101000a900460ff16156125f357826002600086600501848154811061257457612573613920565b5b9060005260206000200160009054906101000a900473ffffffffffffffffffffffffffffffffffffffff1673ffffffffffffffffffffffffffffffffffffffff1673ffffffffffffffffffffffffffffffffffffffff16815260200190815260200160002060030160008282546125eb919061394f565b925050819055505b80806125fe906136b2565b9150506124b6565b50505050505050565b82805461261b90612f93565b90600052602060002090601f01602090048101928261263d5760008555612684565b82601f1061265657805160ff1916838001178555612684565b82800160010185558215612684579182015b82811115612683578251825591602001919060010190612668565b5b509050612691919061271f565b5090565b82805482825590600052602060002090810192821561270e579160200282015b8281111561270d5782518260006101000a81548173ffffffffffffffffffffffffffffffffffffffff021916908373ffffffffffffffffffffffffffffffffffffffff160217905550916020019190600101906126b5565b5b50905061271b919061271f565b5090565b5b80821115612738576000816000905550600101612720565b5090565b6000604051905090565b600080fd5b600080fd5b600073ffffffffffffffffffffffffffffffffffffffff82169050919050565b600061277b82612750565b9050919050565b61278b81612770565b811461279657600080fd5b50565b6000813590506127a881612782565b92915050565b6000602082840312156127c4576127c3612746565b5b60006127d284828501612799565b91505092915050565b6000819050919050565b6127ee816127db565b82525050565b600081519050919050565b600082825260208201905092915050565b60005b8381101561282e578082015181840152602081019050612813565b8381111561283d576000848401525b50505050565b6000601f19601f8301169050919050565b600061285f826127f4565b61286981856127ff565b9350612879818560208601612810565b61288281612843565b840191505092915050565b61289681612770565b82525050565b6000819050919050565b6128af8161289c565b82525050565b60006080820190506128ca60008301876127e5565b81810360208301526128dc8186612854565b90506128eb604083018561288d565b6128f860608301846128a6565b95945050505050565b61290a816127db565b811461291557600080fd5b50565b60008135905061292781612901565b92915050565b6000806040838503121561294457612943612746565b5b600061295285828601612918565b925050602061296385828601612799565b9150509250929050565b60008115159050919050565b6129828161296d565b82525050565b600060208201905061299d6000830184612979565b92915050565b600080fd5b600080fd5b7f4e487b7100000000000000000000000000000000000000000000000000000000600052604160045260246000fd5b6129e582612843565b810181811067ffffffffffffffff82111715612a0457612a036129ad565b5b80604052505050565b6000612a1761273c565b9050612a2382826129dc565b919050565b600067ffffffffffffffff821115612a4357612a426129ad565b5b612a4c82612843565b9050602081019050919050565b82818337600083830152505050565b6000612a7b612a7684612a28565b612a0d565b905082815260208101848484011115612a9757612a966129a8565b5b612aa2848285612a59565b509392505050565b600082601f830112612abf57612abe6129a3565b5b8135612acf848260208601612a68565b91505092915050565b60008060408385031215612aef57612aee612746565b5b600083013567ffffffffffffffff811115612b0d57612b0c61274b565b5b612b1985828601612aaa565b9250506020612b2a85828601612799565b9150509250929050565b60006020820190508181036000830152612b4e8184612854565b905092915050565b600060208284031215612b6c57612b6b612746565b5b6000612b7a84828501612918565b91505092915050565b600081519050919050565b600082825260208201905092915050565b6000819050602082019050919050565b612bb881612770565b82525050565b6000612bca8383612baf565b60208301905092915050565b6000602082019050919050565b6000612bee82612b83565b612bf88185612b8e565b9350612c0383612b9f565b8060005b83811015612c34578151612c1b8882612bbe565b9750612c2683612bd6565b925050600181019050612c07565b5085935050505092915050565b60006020820190508181036000830152612c5b8184612be3565b905092915050565b612c6c8161296d565b8114612c7757600080fd5b50565b600081359050612c8981612c63565b92915050565b60008060408385031215612ca657612ca5612746565b5b6000612cb485828601612918565b9250506020612cc585828601612c7a565b9150509250929050565b6000602082019050612ce460008301846127e5565b92915050565b600060a0820190508181036000830152612d048188612854565b9050612d1360208301876127e5565b612d2060408301866127e5565b612d2d606083018561288d565b612d3a608083018461288d565b9695505050505050565b600060a0820190508181036000830152612d5e8188612854565b9050612d6d60208301876127e5565b612d7a60408301866127e5565b612d8760608301856127e5565b612d94608083018461288d565b9695505050505050565b600067ffffffffffffffff821115612db957612db86129ad565b5b602082029050602081019050919050565b600080fd5b6000612de2612ddd84612d9e565b612a0d565b90508083825260208201905060208402830185811115612e0557612e04612dca565b5b835b81811015612e2e5780612e1a8882612799565b845260208401935050602081019050612e07565b5050509392505050565b600082601f830112612e4d57612e4c6129a3565b5b8135612e5d848260208601612dcf565b91505092915050565b60008060008060808587031215612e8057612e7f612746565b5b600085013567ffffffffffffffff811115612e9e57612e9d61274b565b5b612eaa87828801612aaa565b9450506020612ebb87828801612918565b9350506040612ecc87828801612918565b925050606085013567ffffffffffffffff811115612eed57612eec61274b565b5b612ef987828801612e38565b91505092959194509250565b6000604082019050612f1a60008301856128a6565b612f2760208301846127e5565b9392505050565b6000602082019050612f43600083018461288d565b92915050565b6000602082019050612f5e60008301846128a6565b92915050565b7f4e487b7100000000000000000000000000000000000000000000000000000000600052602260045260246000fd5b60006002820490506001821680612fab57607f821691505b60208210811415612fbf57612fbe612f64565b5b50919050565b7f53656e646572206973207374696c6c206e6f742061206d656d62657200000000600082015250565b6000612ffb601c836127ff565b915061300682612fc5565b602082019050919050565b6000602082019050818103600083015261302a81612fee565b9050919050565b7f576964746864726177616c20616d6f756e74206973207a65726f000000000000600082015250565b6000613067601a836127ff565b915061307282613031565b602082019050919050565b600060208201905081810360008301526130968161305a565b9050919050565b600081905092915050565b50565b60006130b860008361309d565b91506130c3826130a8565b600082019050919050565b60006130d9826130ab565b9150819050919050565b7f5061757361626c653a2070617573656400000000000000000000000000000000600082015250565b60006131196010836127ff565b9150613124826130e3565b602082019050919050565b600060208201905081810360008301526131488161310c565b9050919050565b7f41206d656d62657220776974682074686174206164647265737320616c72656160008201527f6479206578697374730000000000000000000000000000000000000000000000602082015250565b60006131ab6029836127ff565b91506131b68261314f565b604082019050919050565b600060208201905081810360008301526131da8161319e565b9050919050565b7f4e616d652063616e6e6f7420626520656d707479000000000000000000000000600082015250565b60006132176014836127ff565b9150613222826131e1565b602082019050919050565b600060208201905081810360008301526132468161320a565b9050919050565b7f416464726573732063616e6e6f7420626520656d707479000000000000000000600082015250565b60006132836017836127ff565b915061328e8261324d565b602082019050919050565b600060208201905081810360008301526132b281613276565b9050919050565b7f4e487b7100000000000000000000000000000000000000000000000000000000600052601160045260246000fd5b60006132f3826127db565b91506132fe836127db565b925082821015613311576133106132b9565b5b828203905092915050565b6000613327826127db565b9150613332836127db565b9250827fffffffffffffffffffffffffffffffffffffffffffffffffffffffffffffffff03821115613367576133666132b9565b5b828201905092915050565b7f457870656e73652063616e6e6f7420626520617070726f76652061667465722060008201527f34207765656b732073696e6365206372656174696f6e00000000000000000000602082015250565b60006133ce6036836127ff565b91506133d982613372565b604082019050919050565b600060208201905081810360008301526133fd816133c1565b9050919050565b7f43757272656e7420617070726f76616c2073746174652069732074686520736160008201527f6d65000000000000000000000000000000000000000000000000000000000000602082015250565b60006134606022836127ff565b915061346b82613404565b604082019050919050565b6000602082019050818103600083015261348f81613453565b9050919050565b7f5469746c652063616e6e6f7420626520656d7074790000000000000000000000600082015250565b60006134cc6015836127ff565b91506134d782613496565b602082019050919050565b600060208201905081810360008301526134fb816134bf565b9050919050565b7f416d6f756e74206d7573742062652067726561746572207468616e2030000000600082015250565b6000613538601d836127ff565b915061354382613502565b602082019050919050565b600060208201905081810360008301526135678161352b565b9050919050565b7f4e6f206d6f726520657870656e7365732063616e206265206164646564000000600082015250565b60006135a4601d836127ff565b91506135af8261356e565b602082019050919050565b600060208201905081810360008301526135d381613597565b9050919050565b7f416c6c20706179656573206d757374206265206d656d62657273000000000000600082015250565b6000613610601a836127ff565b915061361b826135da565b602082019050919050565b6000602082019050818103600083015261363f81613603565b9050919050565b7f536f6d652061646472657373206973206475706c696361746564000000000000600082015250565b600061367c601a836127ff565b915061368782613646565b602082019050919050565b600060208201905081810360008301526136ab8161366f565b9050919050565b60006136bd826127db565b91507fffffffffffffffffffffffffffffffffffffffffffffffffffffffffffffffff8214156136f0576136ef6132b9565b5b600182019050919050565b7f416d6f756e742073656e74206d7573742062652067726561746572207468616e60008201527f2030000000000000000000000000000000000000000000000000000000000000602082015250565b60006137576022836127ff565b9150613762826136fb565b604082019050919050565b600060208201905081810360008301526137868161374a565b9050919050565b7f50617965722061646472657373206d75737420626520646966666572656e742060008201527f66726f6d207061796565206f6e65000000000000000000000000000000000000602082015250565b60006137e9602e836127ff565b91506137f48261378d565b604082019050919050565b60006020820190508181036000830152613818816137dc565b9050919050565b7f5061796565206d7573742062652061206d656d62657200000000000000000000600082015250565b60006138556016836127ff565b91506138608261381f565b602082019050919050565b6000602082019050818103600083015261388481613848565b9050919050565b7f546865207469746c652063616e6e6f7420626520656d70747900000000000000600082015250565b60006138c16019836127ff565b91506138cc8261388b565b602082019050919050565b600060208201905081810360008301526138f0816138b4565b9050919050565b600060408201905061390c600083018561288d565b61391960208301846127e5565b9392505050565b7f4e487b7100000000000000000000000000000000000000000000000000000000600052603260045260246000fd5b600061395a8261289c565b91506139658361289c565b9250827f8000000000000000000000000000000000000000000000000000000000000000018212600084121516156139a05761399f6132b9565b5b827f7fffffffffffffffffffffffffffffffffffffffffffffffffffffffffffffff0182136000841216156139d8576139d76132b9565b5b828203905092915050565b60006139ee8261289c565b91506139f98361289c565b9250817f7fffffffffffffffffffffffffffffffffffffffffffffffffffffffffffffff03831360008312151615613a3457613a336132b9565b5b817f8000000000000000000000000000000000000000000000000000000000000000038312600083121615613a6c57613a6b6132b9565b5b828201905092915050565b7f4e487b7100000000000000000000000000000000000000000000000000000000600052601260045260246000fd5b6000613ab1826127db565b9150613abc836127db565b925082613acc57613acb613a77565b5b828204905092915050565b6000613ae28261289c565b91507f8000000000000000000000000000000000000000000000000000000000000000821415613b1557613b146132b9565b5b81600003905091905056fea26469706673582212205a102fa9017b3b0190a37dad7d1640c74055c40338ce0b89d07dc1f668d7c2f964736f6c63430008090033a2646970667358221220a71ca72cc4970663c7729b65a8300ea84dec506b4b5e753ac3b956c4abf415d064736f6c63430008090033",
  "immutableReferences": {},
  "source": "// SPDX-License-Identifier: MIT\npragma solidity ^0.8.0;\n\nimport \"./ExpenseGroup.sol\";\n\ncontract ExpenseGroupFactory {\n    ExpenseGroup[] public expenseGroups;\n    uint256 disabledCount;\n\n    event ExpenseGroupCreated(\n        address indexed _expenseGroupAddress,\n        string indexed _ownerName\n    );\n\n    function createExpenseGroup(string memory _ownerName, string memory _title) external {\n        ExpenseGroup expenseGroup = new ExpenseGroup(msg.sender, _ownerName, _title);\n        expenseGroups.push(expenseGroup);\n        emit ExpenseGroupCreated(address(expenseGroup), _ownerName);\n    }\n\n    function getExpenseGroups()\n        external\n        view\n        returns (ExpenseGroup[] memory)\n    {\n        return expenseGroups;\n    }\n}\n",
  "sourcePath": "/Users/andybn/projects/blockchain-developer-bootcamp-final-project/contracts/ExpenseGroupFactory.sol",
  "compiler": {
    "name": "solc",
    "version": "0.8.9+commit.e5eed63a.Emscripten.clang"
  },
  "schemaVersion": "3.4.3",
  "updatedAt": "2021-10-29T12:52:21.951Z",
  "networkType": "ethereum",
  "devdoc": {
    "kind": "dev",
    "methods": {},
    "version": 1
  },
  "userdoc": {
    "kind": "user",
    "methods": {},
    "version": 1
  }
}