{
  "contractName": "Factory",
  "abi": [
    {
      "anonymous": false,
      "inputs": [
        {
          "indexed": true,
          "internalType": "address",
          "name": "_expenseGroupAddress",
          "type": "address"
        },
        {
          "indexed": true,
          "internalType": "string",
          "name": "_name",
          "type": "string"
        }
      ],
      "name": "ExpenseGroupCreated",
      "type": "event"
    },
    {
      "inputs": [
        {
          "internalType": "uint256",
          "name": "",
          "type": "uint256"
        }
      ],
      "name": "expenseGroups",
      "outputs": [
        {
          "internalType": "contract ExpenseGroup",
          "name": "",
          "type": "address"
        }
      ],
      "stateMutability": "view",
      "type": "function"
    },
    {
      "inputs": [
        {
          "internalType": "string",
          "name": "_name",
          "type": "string"
        }
      ],
      "name": "createExpenseGroup",
      "outputs": [],
      "stateMutability": "nonpayable",
      "type": "function"
    },
    {
      "inputs": [],
      "name": "getExpenseGroups",
      "outputs": [
        {
          "internalType": "contract ExpenseGroup[]",
          "name": "_expenseGroups",
          "type": "address[]"
        }
      ],
      "stateMutability": "view",
      "type": "function"
    }
  ],
  "bytecode": "0x608060405234801561001057600080fd5b50612302806100206000396000f3fe60806040523480156200001157600080fd5b5060043610620000465760003560e01c80631b5d0551146200004b5780634d3a27cd146200006d5780637fe976e5146200009d575b600080fd5b62000055620000b6565b60405162000064919062000363565b60405180910390f35b620000846200007e366004620003b2565b62000255565b6040516001600160a01b03909116815260200162000064565b620000b4620000ae366004620003e2565b62000280565b005b600154600054606091620000ca91620004b3565b67ffffffffffffffff811115620000e557620000e5620003cc565b6040519080825280602002602001820160405280156200010f578160200160208202803683370190505b5090506000805b600054811015620002505760008181548110620001375762000137620004cd565b6000918252602091829020015460408051635c975abb60e01b815290516001600160a01b0390921692635c975abb92600480840193829003018186803b1580156200018157600080fd5b505afa15801562000196573d6000803e3d6000fd5b505050506040513d601f19601f82011682018060405250810190620001bc9190620004e3565b6200022b5760008181548110620001d757620001d7620004cd565b9060005260206000200160009054906101000a90046001600160a01b03168383815181106200020a576200020a620004cd565b60200260200101906001600160a01b031690816001600160a01b0316815250505b8162000237816200050e565b925050808062000247906200050e565b91505062000116565b505090565b600081815481106200026657600080fd5b6000918252602090912001546001600160a01b0316905081565b600081604051620002919062000355565b6200029d91906200055f565b604051809103906000f080158015620002ba573d6000803e3d6000fd5b50600080546001810182559080527f290decd9548b62a8d60345a988386fc84ba6bc95484008f6362f93160ef3e5630180546001600160a01b0319166001600160a01b0383161790556040519091506200031690839062000594565b604051908190038120906001600160a01b038316907f75ba07ee2e9d62321ba6ac8c2c0b4e4330ce5f8571ede4021c79d549fcb7f2a790600090a35050565b611d1a80620005b383390190565b6020808252825182820181905260009190848201906040850190845b81811015620003a65783516001600160a01b0316835292840192918401916001016200037f565b50909695505050505050565b600060208284031215620003c557600080fd5b5035919050565b634e487b7160e01b600052604160045260246000fd5b600060208284031215620003f557600080fd5b813567ffffffffffffffff808211156200040e57600080fd5b818401915084601f8301126200042357600080fd5b813581811115620004385762000438620003cc565b604051601f8201601f19908116603f01168101908382118183101715620004635762000463620003cc565b816040528281528760208487010111156200047d57600080fd5b826020860160208301376000928101602001929092525095945050505050565b634e487b7160e01b600052601160045260246000fd5b600082821015620004c857620004c86200049d565b500390565b634e487b7160e01b600052603260045260246000fd5b600060208284031215620004f657600080fd5b815180151581146200050757600080fd5b9392505050565b60006000198214156200052557620005256200049d565b5060010190565b60005b83811015620005495781810151838201526020016200052f565b8381111562000559576000848401525b50505050565b6020815260008251806020840152620005808160408501602087016200052c565b601f01601f19169190910160400192915050565b60008251620005a88184602087016200052c565b919091019291505056fe60806040526003805460ff191690553480156200001b57600080fd5b5060405162001d1a38038062001d1a8339810160408190526200003e91620002e7565b6000805460ff1916905562000054813362000068565b506003805460ff1916600117905562000426565b336000818152600160205260409020600201546001600160a01b0316148062000094575060035460ff16155b6200009e57600080fd5b60005460ff1615620000e95760405162461bcd60e51b815260206004820152601060248201526f14185d5cd8589b194e881c185d5cd95960821b604482015260640160405180910390fd5b6001600160a01b038082166000818152600160205260409020600201549091161415806200011a575060035460ff16155b6200012457600080fd5b6001600160a01b0381166200013857600080fd5b604080516080810182526000808252602082018590526001600160a01b038416928201839052606082018190526002805460018181018355928290527f405787fa12a823e0f2b7631cc41b3ba8828b3321ca811111fa75cd3aa3bb5ace0180546001600160a01b03191690941790935591549091620001b791620003c3565b81526001600160a01b03821660009081526001602081815260409092208351815582840151805185949293620001f3939085019201906200022b565b5060408201516002820180546001600160a01b0319166001600160a01b03909216919091179055606090910151600390910155505050565b8280546200023990620003e9565b90600052602060002090601f0160209004810192826200025d5760008555620002a8565b82601f106200027857805160ff1916838001178555620002a8565b82800160010185558215620002a8579182015b82811115620002a85782518255916020019190600101906200028b565b50620002b6929150620002ba565b5090565b5b80821115620002b65760008155600101620002bb565b634e487b7160e01b600052604160045260246000fd5b60006020808385031215620002fb57600080fd5b82516001600160401b03808211156200031357600080fd5b818501915085601f8301126200032857600080fd5b8151818111156200033d576200033d620002d1565b604051601f8201601f19908116603f01168101908382118183101715620003685762000368620002d1565b8160405282815288868487010111156200038157600080fd5b600093505b82841015620003a5578484018601518185018701529285019262000386565b82841115620003b75760008684830101525b98975050505050505050565b600082821015620003e457634e487b7160e01b600052601160045260246000fd5b500390565b600181811c90821680620003fe57607f821691505b602082108114156200042057634e487b7160e01b600052602260045260246000fd5b50919050565b6118e480620004366000396000f3fe6080604052600436106101145760003560e01c80638f081ece116100a0578063bc35008811610064578063bc3500881461036b578063c3e1888e1461037e578063cc4e6299146103a8578063f8b2cb4f146103e0578063ff419aa21461041957600080fd5b80638f081ece146102a157806399f62bab146102b7578063af4afe0a146102ed578063aff4b8491461031e578063b4d95e711461034b57600080fd5b80635b8f3d14116100e75780635b8f3d14146101e35780635c975abb146101fd578063747442d3146102155780637a9262a21461023557806387d817891461027057600080fd5b806308ae4b0c1461011957806328c84793146101525780633ccfd60b146101ac57806345e39705146101c3575b600080fd5b34801561012557600080fd5b5061013961013436600461138c565b610439565b60405161014994939291906113f4565b60405180910390f35b34801561015e57600080fd5b5061019c61016d366004611429565b60008281526005602090815260408083206001600160a01b038516845260060190915290205460ff1692915050565b6040519015158152602001610149565b3480156101b857600080fd5b506101c16104f3565b005b3480156101cf57600080fd5b506101c16101de36600461150c565b6105ac565b3480156101ef57600080fd5b5060035461019c9060ff1681565b34801561020957600080fd5b5060005460ff1661019c565b34801561022157600080fd5b506101c1610230366004611551565b610747565b34801561024157600080fd5b5061026261025036600461138c565b60076020526000908152604090205481565b604051908152602001610149565b34801561027c57600080fd5b5061029061028b366004611586565b610848565b60405161014995949392919061159f565b3480156102ad57600080fd5b5061026260045481565b3480156102c357600080fd5b506102626102d236600461138c565b6001600160a01b031660009081526007602052604090205490565b3480156102f957600080fd5b5061030d610308366004611586565b610924565b6040516101499594939291906115df565b34801561032a57600080fd5b5061033e61033936600461138c565b6109e4565b604051610149919061161f565b34801561035757600080fd5b506101c1610366366004611632565b610a94565b6101c161037936600461150c565b610bbd565b34801561038a57600080fd5b50610393610d5f565b60408051928352602083019190915201610149565b3480156103b457600080fd5b506103c86103c3366004611586565b610e62565b6040516001600160a01b039091168152602001610149565b3480156103ec57600080fd5b506102626103fb36600461138c565b6001600160a01b031660009081526001602052604090206003015490565b34801561042557600080fd5b50610262610434366004611586565b610e8c565b60016020819052600091825260409091208054918101805461045a90611714565b80601f016020809104026020016040519081016040528092919081815260200182805461048690611714565b80156104d35780601f106104a8576101008083540402835291602001916104d3565b820191906000526020600020905b8154815290600101906020018083116104b657829003601f168201915b50505050600283015460039093015491926001600160a01b031691905084565b336000818152600160205260409020600201546001600160a01b0316148061051e575060035460ff16155b61052757600080fd5b3360009081526007602052604090205461054057600080fd5b33600081815260076020526040808220805490839055905190929083908381818185875af1925050503d8060008114610595576040519150601f19603f3d011682016040523d82523d6000602084013e61059a565b606091505b50509050806105a857600080fd5b5050565b336000818152600160205260409020600201546001600160a01b031614806105d7575060035460ff16155b6105e057600080fd5b60005460ff161561060c5760405162461bcd60e51b81526004016106039061174f565b60405180910390fd5b6001600160a01b0380821660008181526001602052604090206002015490911614158061063c575060035460ff16155b61064557600080fd5b6001600160a01b03811661065857600080fd5b604080516080810182526000808252602082018590526001600160a01b038416928201839052606082018190526002805460018181018355928290527f405787fa12a823e0f2b7631cc41b3ba8828b3321ca811111fa75cd3aa3bb5ace0180546001600160a01b031916909417909355915490916106d59161178f565b81526001600160a01b0382166000908152600160208181526040909220835181558284015180518594929361070f93908501920190611287565b5060408201516002820180546001600160a01b0319166001600160a01b03909216919091179055606090910151600390910155505050565b336000818152600160205260409020600201546001600160a01b03161480610772575060035460ff16155b61077b57600080fd5b60005460ff161561079e5760405162461bcd60e51b81526004016106039061174f565b600082815260056020526040902060038101546107be906224ea006117a6565b42106107c957600080fd5b33600090815260068201602052604090205460ff16151582151514156107ee57600080fd5b60006107f984610e8c565b9050801561080a5761080a84610f1e565b3360009081526006830160205260408120805460ff191685151517905561083085610e8c565b905080156108415761084185610f2c565b5050505050565b6006818154811061085857600080fd5b906000526020600020906005020160009150905080600001805461087b90611714565b80601f01602080910402602001604051908101604052809291908181526020018280546108a790611714565b80156108f45780601f106108c9576101008083540402835291602001916108f4565b820191906000526020600020905b8154815290600101906020018083116108d757829003601f168201915b505050600184015460028501546003860154600490960154949591949093506001600160a01b0391821692501685565b60056020526000908152604090208054819061093f90611714565b80601f016020809104026020016040519081016040528092919081815260200182805461096b90611714565b80156109b85780601f1061098d576101008083540402835291602001916109b8565b820191906000526020600020905b81548152906001019060200180831161099b57829003601f168201915b50505050600183015460028401546003850154600490950154939491939092506001600160a01b031685565b6001600160a01b038116600090815260016020819052604090912001805460609190610a0f90611714565b80601f0160208091040260200160405190810160405280929190818152602001828054610a3b90611714565b8015610a885780601f10610a5d57610100808354040283529160200191610a88565b820191906000526020600020905b815481529060010190602001808311610a6b57829003601f168201915b50505050509050919050565b336000818152600160205260409020600201546001600160a01b03161480610abf575060035460ff16155b610ac857600080fd5b60005460ff1615610aeb5760405162461bcd60e51b81526004016106039061174f565b60008311610af857600080fd5b60008151118015610b0b57508051601410155b610b1457600080fd5b610b1d81610f37565b610b2657600080fd5b610b2f81610f8e565b610b3857600080fd5b60048054600091600591839182610b4e836117be565b9091555081526020808201929092526040016000208651909250610b7791839190880190611287565b5060018101849055600281018390556004810180546001600160a01b031916331790554260038201558151610bb5906005830190602085019061130b565b505050505050565b336000818152600160205260409020600201546001600160a01b03161480610be8575060035460ff16155b610bf157600080fd5b60005460ff1615610c145760405162461bcd60e51b81526004016106039061174f565b3334610c1f57600080fd5b806001600160a01b0316826001600160a01b03161415610c3e57600080fd5b610c4782611052565b610c5057600080fd5b6040805160a0810182528481523460208083019190915242928201929092526001600160a01b0380841660608301528416608082015260068054600181018255600091909152815180519293849360059093027ff652222313e28459528d920b65115c16c04f3efc82aaedc97be59f3f377c0d3f0192610cd39284920190611287565b506020828101516001830155604080840151600284015560608401516003840180546001600160a01b03199081166001600160a01b03938416179091556080909501516004909401805490951693811693909317909355908516600090815260079091529081208054349290610d4a9084906117a6565b90915550610d5990508161108d565b50505050565b6000806000600160006002600081548110610d7c57610d7c6117d9565b60009182526020808320909101546001600160a01b03168352820192909252604001812060030154915060015b600254811015610e5857610dfb836001600060028581548110610dce57610dce6117d9565b60009182526020808320909101546001600160a01b03168352820192909252604001902060030154611110565b8314610e46576001600060028381548110610e1857610e186117d9565b60009182526020808320909101546001600160a01b0316835282019290925260400190206003015492509050805b80610e50816117be565b915050610da9565b5090939092509050565b60028181548110610e7257600080fd5b6000918252602090912001546001600160a01b0316905081565b600081815260056020526040812081805b6005830154811015610f1657826006016000846005018381548110610ec457610ec46117d9565b60009182526020808320909101546001600160a01b0316835282019290925260400190205460ff16151560011415610f045781610f00816117be565b9250505b80610f0e816117be565b915050610e9d565b509392505050565b610f29816001611129565b50565b610f29816000611129565b6000805b8251811015610f8557610f66838281518110610f5957610f596117d9565b6020026020010151611052565b610f735750600092915050565b80610f7d816117be565b915050610f3b565b50600192915050565b60008060005b835181101561104857600091506000848281518110610fb557610fb56117d9565b6020026020010151905060005b855181101561103357858181518110610fdd57610fdd6117d9565b60200260200101516001600160a01b0316826001600160a01b0316141561100c5783611008816117be565b9450505b83600214156110215750600095945050505050565b8061102b816117be565b915050610fc2565b50508080611040906117be565b915050610f94565b5060019392505050565b6001600160a01b03808216600081815260016020526040812060020154909216141561108057506001919050565b506000919050565b919050565b80602001516001600083608001516001600160a01b03166001600160a01b0316815260200190815260200160002060030160008282546110cd91906117ef565b909155505060208082015160608301516001600160a01b0316600090815260019092526040822060030180549192909161110890849061182e565b909155505050565b6000818312156111205781611122565b825b9392505050565b600061113483610e8c565b90506000811161114357600080fd5b6000838152600560205260408120600181015490919061116490849061186f565b600183015490915084156111895761117b82611891565b915061118681611891565b90505b60048301546001600160a01b0316600090815260016020526040812060030180548392906111b890849061182e565b90915550600090505b600584015481101561127e578360060160008560050183815481106111e8576111e86117d9565b60009182526020808320909101546001600160a01b0316835282019290925260400190205460ff161561126c57826001600086600501848154811061122f5761122f6117d9565b60009182526020808320909101546001600160a01b03168352820192909252604001812060030180549091906112669084906117ef565b90915550505b80611276816117be565b9150506111c1565b50505050505050565b82805461129390611714565b90600052602060002090601f0160209004810192826112b557600085556112fb565b82601f106112ce57805160ff19168380011785556112fb565b828001600101855582156112fb579182015b828111156112fb5782518255916020019190600101906112e0565b50611307929150611360565b5090565b8280548282559060005260206000209081019282156112fb579160200282015b828111156112fb57825182546001600160a01b0319166001600160a01b0390911617825560209092019160019091019061132b565b5b808211156113075760008155600101611361565b80356001600160a01b038116811461108857600080fd5b60006020828403121561139e57600080fd5b61112282611375565b6000815180845260005b818110156113cd576020818501810151868301820152016113b1565b818111156113df576000602083870101525b50601f01601f19169290920160200192915050565b84815260806020820152600061140d60808301866113a7565b6001600160a01b03949094166040830152506060015292915050565b6000806040838503121561143c57600080fd5b8235915061144c60208401611375565b90509250929050565b634e487b7160e01b600052604160045260246000fd5b604051601f8201601f1916810167ffffffffffffffff8111828210171561149457611494611455565b604052919050565b600082601f8301126114ad57600080fd5b813567ffffffffffffffff8111156114c7576114c7611455565b6114da601f8201601f191660200161146b565b8181528460208386010111156114ef57600080fd5b816020850160208301376000918101602001919091529392505050565b6000806040838503121561151f57600080fd5b823567ffffffffffffffff81111561153657600080fd5b6115428582860161149c565b92505061144c60208401611375565b6000806040838503121561156457600080fd5b823591506020830135801515811461157b57600080fd5b809150509250929050565b60006020828403121561159857600080fd5b5035919050565b60a0815260006115b260a08301886113a7565b60208301969096525060408101939093526001600160a01b03918216606084015216608090910152919050565b60a0815260006115f260a08301886113a7565b602083019690965250604081019390935260608301919091526001600160a01b0316608090910152919050565b60208152600061112260208301846113a7565b6000806000806080858703121561164857600080fd5b843567ffffffffffffffff8082111561166057600080fd5b61166c8883890161149c565b9550602091508187013594506040870135935060608701358181111561169157600080fd5b8701601f810189136116a257600080fd5b8035828111156116b4576116b4611455565b8060051b92506116c584840161146b565b818152928201840192848101908b8511156116df57600080fd5b928501925b84841015611704576116f584611375565b825292850192908501906116e4565b989b979a50959850505050505050565b600181811c9082168061172857607f821691505b6020821081141561174957634e487b7160e01b600052602260045260246000fd5b50919050565b60208082526010908201526f14185d5cd8589b194e881c185d5cd95960821b604082015260600190565b634e487b7160e01b600052601160045260246000fd5b6000828210156117a1576117a1611779565b500390565b600082198211156117b9576117b9611779565b500190565b60006000198214156117d2576117d2611779565b5060010190565b634e487b7160e01b600052603260045260246000fd5b60008083128015600160ff1b85018412161561180d5761180d611779565b6001600160ff1b038401831381161561182857611828611779565b50500390565b600080821280156001600160ff1b038490038513161561185057611850611779565b600160ff1b839003841281161561186957611869611779565b50500190565b60008261188c57634e487b7160e01b600052601260045260246000fd5b500490565b6000600160ff1b8214156118a7576118a7611779565b506000039056fea264697066735822122049ede736bb7b31bb78768c3a10440cee8feeda0ced9b2938fdfdc3f9722e0deb64736f6c63430008090033a2646970667358221220165e62175cf50f40df68323b2395a64eb28a75ae267544c5aae3fc68eb55767064736f6c63430008090033",
  "immutableReferences": {},
  "source": "// SPDX-License-Identifier: MIT\npragma solidity ^0.8.0;\n\nimport \"./ExpenseGroup.sol\";\n\ncontract Factory {\n    ExpenseGroup[] public expenseGroups;\n    uint256 disabledCount;\n\n    event ExpenseGroupCreated(\n        address indexed _expenseGroupAddress,\n        string indexed _name\n    );\n\n    function createExpenseGroup(string memory _name) external {\n        ExpenseGroup expenseGroup = new ExpenseGroup(_name);\n        expenseGroups.push(expenseGroup);\n        emit ExpenseGroupCreated(address(expenseGroup), _name);\n    }\n\n    function getExpenseGroups()\n        external\n        view\n        returns (ExpenseGroup[] memory _expenseGroups)\n    {\n        _expenseGroups = new ExpenseGroup[](\n            expenseGroups.length - disabledCount\n        );\n\n        uint256 count;\n\n        for (uint256 i = 0; i < expenseGroups.length; i++) {\n           if(!expenseGroups[i].paused())\n            _expenseGroups[count] = expenseGroups[i];\n            count++;\n        }\n    }\n}\n",
  "sourcePath": "/Users/andybn/projects/blockchain-developer-bootcamp-final-project/contracts/ExpenseGroupFactory.sol",
  "compiler": {
    "name": "solc",
    "version": "0.8.9+commit.e5eed63a.Emscripten.clang"
  },
  "schemaVersion": "3.4.3",
  "updatedAt": "2021-10-08T14:22:26.449Z",
  "devdoc": {
    "kind": "dev",
    "methods": {},
    "version": 1
  },
  "userdoc": {
    "kind": "user",
    "methods": {},
    "version": 1
  }
}